:100000000C94FD040C941A050C941A050C941A0512
:100010000C941A050C941A050C941A050C941A05E4
:100020000C941A050C941A050C941A050C941A05D4
:100030000C941A050C941A050C9451050C941A058D
:100040000C941A050C941A050C941C050C941A05B2
:100050000C941A050C941A050C941A050C941A05A4
:100060000C941A050C941A05AA10B7129012A1123A
:100070007E1264125F12481222125810A6119211B9
:100080007C11621158104A113B115810231158105D
:1000900010110211E9105810DD10D110C5107C109C
:1000A0008510B4100C12C011B711B0110508010071
:1000B00000000000006F6F00000007000700147FC1
:1000C000147F1400266B2A104333086463324D49B1
:1000D00036500000070000001C2241000041221C95
:1000E00000110A1F0A1110107C10100000A06000FF
:1000F0001010101010000060600040300806013E33
:100100005149453E00427F400042615149462241EB
:10011000494936080C0A7F0827454545393C4A4974
:1001200049300161190701364949493606494929CB
:100130001E00006C6C000000AC6C00081422410032
:100140001414141414004122140802015109063E2B
:10015000415D5D467C1211127C7F494949363E4122
:100160004141227F4141413E7F494949417F09093F
:1001700009013E414151727F0808087F41417F419A
:100180004121413F01017F081422417F404040400E
:100190007F0204027F7F0608307F3E4141413E7F5F
:1001A000090909063E4141617E7F09192946264910
:1001B00049493201017F01013F4040403F1F20403B
:1001C000201F3F4030403F63140814630304780449
:1001D00003615149454300007F410001060830405A
:1001E0000000417F000402010204808080808001C1
:1001F0000204000020545454787F48444438384462
:10020000444428384444487F3854545418087E09DC
:10021000010218A4A4A4787F0808087000487A4056
:1002200000408080887A7F1010284400417F400081
:100230007C043804787C040404783844444438FC52
:1002400024242418182424FC807C0804040848541E
:1002500054542000083C48203C4040407C0C304036
:10026000300C1C6018601C44281028441CA0A0A05E
:100270007C4464544C4400083641412040FF4020F7
:10028000414136080010081810080A10010000004B
:10029000000000000000000000000000000000005E
:1002A0000000000000FFFF00000000000000000C44
:1002B0000C0000000000000F0F00000F0F000000F6
:1002C0000000000000000000008098D8FC9F99F812
:1002D000FF9F18010D0F01010F0701010000387C7D
:1002E0006CFFCCCC80000000060C0C3F0C0F07000C
:1002F000008E9151514EA0A0901000000000000708
:1003000008080807000080EE3F73E3C306C0C00082
:1003100003070E0C0C0F0F0F09000000000F0F0059
:1003200000000000000000000000000000000000CD
:10033000F0FE0F01000000000000031F3C20000041
:10034000000000010FFEF0000000000000203C1F34
:10035000030000000000243C18FF183C24000000AB
:1003600000000000000000000000C0C0C0F8F8C09D
:10037000C0C00000000000070700000000000000EF
:1003800000000000000000000000203E1E000000F1
:1003900000000080808080800000000000010101DA
:1003A000010100000000000000000000000000004B
:1003B0000000000E0E0000000000000000E0F81E2B
:1003C00007010000101C0F03000000000000F8FEF1
:1003D00007636307FEFC000001070E0C0C0E070309
:1003E0000000000603FFFF00000000000C0C0C0FD3
:1003F0000F0C0C0C000006030383C3633E1C0000BB
:100400000C0E0F0D0C0C0C0C00000603636363E371
:10041000FE9C0000060C0C0C0C0C07070000C0E052
:10042000B88C87FFFF80000001010101010F0F015F
:1004300000007F3F33333373E3C00000060C0C0C25
:100440000C0E07030000F8FE67333373E6C00000AC
:1004500003070E0C0C0E0703000003030383F37F56
:100460001F07000000080E070100000000009CFEAE
:1004700063636363FE9C000007070C0C0C0C07070A
:1004800000003C7EE7C3C367FEFC000000060C0CC6
:100490000C0E07010000000000707000000000005A
:1004A0000000000E0E000000000000000070700050
:1004B000000000000000203E1E0000000000C0C040
:1004C000E020303010180000000001010303020694
:1004D0000000303030303030303000000303030390
:1004E0000303030300001810303020E0C0C00000F8
:1004F000060203030101000000000603C3E3333FCB
:100500000E00000000000D0D0000000000F0F81CBF
:10051000CEE6666EFCF800030F1C393333333B1311
:10052000000000E0FE9F9FFEE00000000C0F0701AE
:1005300001070F0C0000FFFF63636363FE9E000072
:100540000F0F0C0C0C0C0F070000F8FE0603030342
:10055000030600000107060C0C0C0C060000FFFF50
:1005600003030306FEF800000F0F0C0C0C06070136
:100570000000FFFF63636363630300000F0F0C0C55
:100580000C0C0C0C0000FFFF63636363630300004B
:100590000F0F0000000000000000F8FE0603C3C3B8
:1005A000C3C600000107060C0C0C0F070000FFFF7C
:1005B00060606060FFFF00000F0F000000000F0F81
:1005C0000000000303FFFF0303000000000C0C0FFA
:1005D0000F0C0C000000000000030303FFFF0000ED
:1005E000060C0C0C0C0C07070000FFFF7078FE8750
:1005F000030100000F0F000001070F0C0000FFFFB8
:1006000000000000000000000F0F0C0C0C0C0C0C84
:100610000000FFFF1FF8F81FFFFF00000F0F000092
:1006200000000F0F0000FFFF0F78E000FFFF000049
:100630000F0F0000010F0F0F0000F8FE0703030764
:10064000FEF8000001070E0C0C0E07010000FFFF72
:10065000636363633E3E00000F0F00000000000074
:100660000000F8FE07030307FEF8000001070E0C68
:100670000C1E37030000FFFF6363E3E3FE1E000070
:100680000F0F000000010F0F08001C3E736363E3AF
:10069000C6800000060C0C0C0C0C070700000303BE
:1006A00003FFFF03030300000000000F0F00000022
:1006B0000000FFFF00000000FFFF000003070E0C1A
:1006C0000C0E07030000037FFE8080FE7F03000006
:1006D00000000F0F0F0F0000000FFFF000F8F800F0
:1006E000F0FF0F000F0F0F00000F0F0F00000107AA
:1006F0009FFCFC9F07010000080E0F01010F0E0870
:100700000001071F3CF0F03C1F0701000000000F34
:100710000F00000000000303C3E37B3F0F0700004E
:100720000E0F0F0D0C0C0C0C00000000FFFF010160
:100730000000000000003F3F2020000000000107F3
:100740001C70C000000000000000000001071C1029
:100750000000000101FFFF00000000000020203F1A
:100760003F00000000080C0E0703070E0C080000F5
:100770000000000000000000000000000000000079
:100780000000008080808080808080808000000069
:100790000103020000000000000000000000000053
:1007A000000000B098D8D8D8F8F00000070F0D0C62
:1007B0000C060F0F0000FFFF30181838F0E00000A3
:1007C0000F0F060C0C0E07030000E0F03818181885
:1007D0001830000003070E0C0C0C0C060000E0F0B3
:1007E00038181830FFFF000003070E0C0C060F0F1F
:1007F0000000E0F0D8D8D8D8F0E0000003070E0CD5
:100800000C0C0C0600001818FEFF1B1B1B00000040
:1008100000000F0F000000000000E0F03818183052
:10082000F8F8000003376E6C6C667F3F0000FFFF36
:1008300030181818F8F000000F0F000000000F0F1C
:100840000000001818FBFB00000000000C0C0C0F4F
:100850000F0C0C0C0000001818FBFB00000000003F
:100860006060607F3F0000000000FFFFC0F0B8182C
:10087000080000000F0F0001030F0C080000030325
:10088000FFFF0000000000000000070F0C0C0C0030
:100890000000F8F818F8F018F8F000000F0F000F3B
:1008A0000F000F0F0000F8F830181818F8F00000CB
:1008B0000F0F000000000F0F0000E0F0381818388C
:1008C000F0E0000003070E0C0C0E07030000F8F820
:1008D00030181838F0E000007F7F060C0C0E07037C
:1008E0000000E0F038181830F8F8000003070E0C8C
:1008F0000C067F7F000000F8F83018181818000068
:10090000000F0F0000000000000070F8D8D8D8D801
:1009100098300000060C0C0C0C0D0F070000181886
:10092000FEFE1818180000000000070F0C0C0C0049
:100930000000F8F800000000F8F80000070F0C0CA9
:100940000C060F0F000018F8F00000F0F818000077
:100950000000070F0F0700000038F88000E0E000FB
:1009600080F83800030F0F01010F0F030000081873
:1009700078E0E07818080000080C0F03030F0C085B
:1009800000000878F8C080F8F81800000060617F67
:100990001F070000000018181898D87838180000B1
:1009A0000C0E0F0D0C0C0C0C00000080807E7F01E3
:1009B000010000000000003F7F4040000010181CB4
:1009C0001EFFFF1E1C181000000000FFFF000000AB
:1009D00000000001017F7E80800000000040407F19
:1009E0003F0000000000C0606060C0C0C060000048
:1009F0000000000000000000000011241FBECFEF27
:100A0000D4E0DEBFCDBF12E0A0E0B1E0EAE7FAE259
:100A100002C005900D92A035B107D9F714E0A0E50A
:100A2000B2E001C01D92AD36B107E1F70E947F0E22
:100A30000C943B150C9400001F920F920FB60F926E
:100A400011248F939F93EF93FF93F894809150021A
:100A50009091C600E82FF0E0E559FD4F90838F5F3D
:100A60008093500280915002809153028F5F809357
:100A7000530280915302813C50F08091C00085FF69
:100A8000FCCF83E18093C60081E080935402789488
:100A9000FF91EF919F918F910F900FBE0F901F903C
:100AA00018951F920F920FB60F9211248F939F9358
:100AB00015BC10926E0082E085BB16BC1A9911C05D
:100AC0002A9A84E690913D01891B87BD82E080933C
:100AD0006E0085BD9F918F910F900FBE0F901F905C
:100AE00018952A9880913D0187BDF0CF14B81AB8A7
:100AF0002A9A229A8FE387B988E088B982E08093A6
:100B0000B10084BD80936E0080913D0187BD089542
:100B1000882371F49FEFB89A9093B200B89BFECFF0
:100B2000882329F0B89A9093B200B89BFECF08951D
:100B3000982F9195F0CFCF93DF93EC01009771F050
:100B40008AEF0E9488058AEF0E9488058AEF0E943A
:100B500088058AEF0E948805219791F7DF91CF9150
:100B600008959093C5008093C40082E08093C000F4
:100B700088E98093C10086E08093C200789408954C
:100B8000809153028823E1F38091510290915202A7
:100B9000FC01E559FD4FE08101969093520280934C
:100BA00051028F3F910529F020F0109252021092CD
:100BB0005102F894809153028150809353027894AB
:100BC00080915402813011F08E2F0895809153024C
:100BD0008034D0F78091C00085FFFCCF81E1809305
:100BE000C60010925402F0CF982F8091C00085FF6C
:100BF000FCCF9093C600089580E000008F5F8E3197
:100C0000E1F7089595B19C7F95B99BB193709BB91D
:100C100025B1982F9370922B95B99BB18C7F982B0F
:100C20009BB90895982F84B1836084B98AB18C6F81
:100C30008AB9613039F1623011F188E388B9892FBE
:100C40000E94020680E000008F5F8E31E1F7409A3B
:100C500080E000008F5F8E31E1F7409880E0000077
:100C60008F5F8E31E1F788E088B980E000008F5F08
:100C70008E31E1F784B18C7F84B91AB8089588E188
:100C800088B9DDCF88E288B9DACF982F84B1836044
:100C900084B98AB18C6F8AB9613039F1623011F14F
:100CA0008AE388B9892F0E94020680E000008F5FE6
:100CB0008E31E1F7409A80E000008F5F8E31E1F7DE
:100CC000409880E000008F5F8E31E1F788E088B9BE
:100CD00080E000008F5F8E31E1F784B18C7F84B9B2
:100CE0001AB808958AE188B9DDCF8AE288B9DACFE7
:100CF000AF92BF92DF92EF92FF920F931F93DF9319
:100D0000CF930F92CDB7DEB7082F862F142F79011E
:100D1000886B60E00E941206003408F058C021E0A1
:100D2000298340E4401B411708F44DC0DD24802F87
:100D3000806460E00E94120684B1836084B98AB145
:100D40008C6F8AB98981813009F478C08AE188B9C9
:100D5000112309F478C00E2DC7015C01F5018081D3
:100D60000E94020680E000008F5F8E31E1F7409A1A
:100D700080E000008F5F8E31E1F7409880E0000056
:100D80008F5F8E31E1F70894A11CB11C8A2D801B66
:100D9000811720F3012F88E088B980E000008F5F81
:100DA0008E31E1F7DD20B9F484B18C7F84B91AB8B3
:100DB0000F90CF91DF911F910F91FF90EF90DF90F7
:100DC000BF90AF900895D12ED41A142FB0CF0054F5
:100DD00032E03983A6CF80E460E00E94120684B13D
:100DE000836084B98AB18C6F8AB9F981F13069F175
:100DF0008AE288B910E0F701E00FF11D0F5F8081F2
:100E00000E94020680E000008F5F8E31E1F7409A79
:100E100080E000008F5F8E31E1F7409880E00000B5
:100E20008F5F8E31E1F71F5F1D1528F388E088B9C9
:100E300080E000008F5F8E31E1F7B6CF8AE288B99B
:100E4000112309F088CF00E0A6CF8AE188B910E02D
:100E5000D2CF813069F18EE188B980E000008F5FE8
:100E60008E31E1F7409A80E000008F5F8E31E1F72C
:100E7000409880E000008F5F8E31E1F7409A80E07B
:100E800000008F5F8E31E1F723B199B1409880E087
:100E900000008F5F8E31E1F788E088B980E00000C4
:100EA0008F5F8E31E1F723709C7F892F822B08950D
:100EB0008EE288B980E0D2CFCF92DF92FF920F937B
:100EC0001F93DF93CF930F92CDB7DEB7082F862FF6
:100ED000142F6901886B60E00E941206003408F04C
:100EE00064C081E0898340E4401B411708F44DC091
:100EF000FF24802F806460E00E941206F981F130A7
:100F000009F44FC08EE188B980E000008F5F8E3118
:100F1000E1F7409A80E000008F5F8E31E1F7409862
:100F200080E000008F5F8E31E1F7112309F481C06A
:100F30004C2DC601FC01409A80E000008F5F8E318D
:100F4000E1F793B1937089B18C7F892B80834098AE
:100F500080E000008F5F8E31E1F731968E2F841B89
:100F6000811748F3012F88E088B910E000001F5F67
:100F70001E31E1F7FF20E9F40F90CF91DF911F912F
:100F80000F91FF90DF90CF900895F12EF41A142F57
:100F9000802F806460E00E941206F981F13009F030
:100FA000B1CF8EE288B980E0B0CF0054E2E0E983AF
:100FB0009ACF80E460E00E94120689818130B1F10D
:100FC0008EE288B980E000008F5F8E31E1F7409AB1
:100FD00080E000008F5F8E31E1F7409880E00000F4
:100FE0008F5F8E31E1F720E0322F300F409A80E0A2
:100FF00000008F5F8E31E1F783B1837099B1F60104
:10100000E30FF11D9C7F982B9083409880E00000B7
:101010008F5F8E31E1F72F5F2F1530F388E088B9AD
:1010200080E000008F5F8E31E1F7A6CF18B980E035
:10103000CACF00E098CFFF920F931F93882309F047
:1010400044C010E00AE388E0F82E812F886B60E04E
:101050000E94120680E460E00E94120684B1836060
:1010600084B98AB18C6F8AB980915502813049F177
:1010700080E00E94020608B990E080E000008F5FE7
:101080008E31E1F7409A80E000008F5F8E31E1F70A
:10109000409880E000008F5F8E31E1F79F5F9034D1
:1010A00061F7F8B884B18C7F84B91AB810925702EE
:1010B000109258021F5F183041F61F910F91FF9058
:1010C00008958FEF0E940206D6CF10E080E0612FD6
:1010D00040E82CE633E00E945C0790E0E92FF0E066
:1010E000E459FC4F8081809580839F5F9038B1F7F1
:1010F00080E0612F40E82CE633E00E9478061F5F15
:10110000183021F7DACF2F923F924F925F926F9271
:101110007F928F929F92AF92BF92CF92DF92EF9287
:10112000FF920F931F93DF93CF93CDB7DEB72E9728
:101130000FB6F894DEBF0FBECDBF8887342EA22E27
:10114000B02E8701822F8150803438F1222361F044
:1011500010E0332031F000E00E94C0050F5F03155E
:10116000D8F31F5F1A15A8F32E960FB6F894DEBFBA
:101170000FBECDBFCF91DF911F910F91FF90EF90E8
:10118000DF90CF90BF90AF909F908F907F906F90A7
:101190005F904F903F902F900895842F815087FD4E
:1011A00069C1862F877058E0252E281A30E0C82E96
:1011B000DD240894C108D108C601820F931F08944A
:1011C000C11CD11C97FD66C195958795959587950E
:1011D00095958795482F4F5F4C83A694A694A69427
:1011E000AB82C90187709070892B19F08A2D8F5FAF
:1011F0008B834FEF50E0CA010C2C02C0880F991F5F
:101200000A94E2F78E83260F311D27703070211566
:10121000310509F024C19FEF9D83832D90E0EE24DA
:10122000FF24E81AF90A66956695669569831C8617
:101230001B86662477248B2C9924A1E08A2299248A
:10124000BC814B2E5524089441085108ED81E0954E
:10125000E987FE81F095FA87A62C2981260D2F8338
:101260008885622F432D2CE633E00E945C073320F3
:1012700009F4E6C06CEE73E040E050E020C0BE81AF
:101280002B23F3E0FB1508F44EC032E0B31608F44C
:101290006DC0FA01E459FC4F8081282B2083811412
:1012A000910431F0B5E0BB1518F080818095808302
:1012B0004F5F5F4F6F5F7F4F431508F0C1C001154F
:1012C000110509F461C0F801EE0DFF1D208130E029
:1012D000022C02C0359527950A94E2F7EB85FC8530
:1012E000E00FF11F808190E00C2C02C0880F991F45
:1012F0000A94E2F7282B8B859C8501969C878B8727
:101300000894E11CF11CF6E0BF16F1F0AA2009F4E4
:10131000B6CF6414750409F0B4CFED812E23F3E049
:10132000FB1508F0B2CF85E08B1538F5AA2009F03F
:1013300077C0FA01E459FC4F80819A858923808324
:101340008081282B2083ABCFD8018C9190E09C0129
:10135000022C02C0359527950A94E2F70C2C02C0A6
:10136000880F991F0A94E2F7282BD0CFFA01E4598D
:10137000FC4F80812823208392CFFA01E459FC4F4F
:101380008081282720838BCF9B81A916A8F0FA8122
:101390002F2F30E00C2C02C0220F331F0A94E2F7EB
:1013A000DB018C9190E0022C02C0959587950A9400
:1013B000E2F7282BFC93A7CF809153028823E1F317
:1013C0008091510290915202DC01A559BD4FBC9110
:1013D000BA83019690935202809351028F3F9105F8
:1013E00029F020F01092520210925102F89480914C
:1013F000530281508093530278948091540281303B
:1014000031F680915302803408F0C1CF8091C00042
:1014100085FFFCCFE1E1E093C60010925402B7CF04
:101420006414750429F0FA01E459FC4F108288CF46
:10143000FA01E459FC4F8081A9858A23808380CFFB
:1014400088856F81432D2CE633E00E94780608944E
:10145000611C711CEC816E1608F4FECE85CE88E00E
:1014600090E0821B930B02C0559547958A95E2F751
:101470004D83D3CE222309F477CE00E0332031F020
:1014800010E00E94C0051F5F1315D8F30F5F0A1507
:10149000A8F36ACE079698CEEF92FF920F939091A1
:1014A0006902492F50E090E08097849F9001859FCA
:1014B000300D949F300D11242D5F3F4F80915902C4
:1014C000882309F064C080915502813009F4A3C0DB
:1014D000C901840F951F281739079CF424553F4FE5
:1014E00040E8BC0164557F4FF9018491E42FF0E09E
:1014F000E459FC4F80834F5F2F5F3F4F261737071C
:1015000099F7809157026091580240916B032091A6
:101510006A0200914E027CEEE72E73E0F72E0E94E5
:10152000830820916B0330916C04832F820F90917C
:101530005702890F80935702482F50E0622F70E0C6
:10154000630F711DCA01860F971F80389105DCF06B
:10155000CA010E94F2148093570270915802609160
:101560006A02862F90E0472F50E022273327281B5E
:10157000390B281B390B205C3F4F2417350734F1FA
:10158000670F609358020F91FF90EF90089580913C
:101590005502813021F1C901840F951F28173907A1
:1015A0000CF0AFCF26573D4F40E8BC0166577D4F4A
:1015B000F9018491E42FF0E0E459FC4F80834F5F00
:1015C0002F5F3F4F2617370799F79BCF872F0E9432
:1015D000E614909358020F91FF90EF900895C9017F
:1015E000840F951F281739070CF08BCF26573D4FD6
:1015F00040E8BC0166577D4FF9018491E42FF0E08B
:10160000E459FC4F809580834F5F2F5F3F4F261733
:10161000370791F776CFC901840F951F281739072F
:101620000CF06FCF24553F4F40E8BC0164557F4F0D
:10163000F9018491E42FF0E0E459FC4F8095808318
:101640004F5F2F5F3F4F2617370791F75ACF1F93F2
:10165000162F806460E00E941206812F0E942907E5
:101660001F910895EF92FF920F931F93F82E67FD3D
:1016700052C0403408F04FC05FE3541B80915502C4
:10168000813009F458C0603408F04AC081E080938A
:10169000650260936402952F96959695969587E0DE
:1016A000891B8093660227E030E0B901651B710950
:1016B000AB01281B3109220F331F220F331F220FCA
:1016C000331F420F531F21E030E002C0220F331FAF
:1016D0004A95E2F7122F20936302886B60E00E9424
:1016E000120600916402E0906502802F6E2D0E9428
:1016F000270B80936202FF20D1F4109518231093DA
:101700006302802F806460E00E9412068091630271
:101710006E2D0E9445061F910F91FF90EF90089546
:1017200082E080936502605460936402B4CF182B0A
:1017300010936302E6CFF826A6CF4F925F926F9286
:101740007F928F929F92AF92BF92CF92DF92EF9251
:10175000FF920F931F93CF93DF93482EA42F722FE6
:10176000402F50E0EA2FF0E0E22EFF24A62EBB240B
:1017700055249A012E1B3F0B37FD80C0C7018A19E3
:101780009B0997FD83C08217930774F455245394E3
:101790008A2FA62F682F802F072F782FCF01F501D2
:1017A0005C01CA01A7017C01761708F454C0C70187
:1017B00075015C01CA01AF01FC016F01C41AD50AB1
:1017C000D7FC51C0A01708F455C066246A94762C43
:1017D000AE14BF047CF145018E189F08C40197FC2C
:1017E00059C0EC01D595C7958A010FC0842D602F93
:1017F0004E2D0E94320BCC19DD09D7FD11C0089483
:10180000E11CF11CAE14BF04ACF0552079F7842D17
:101810006E2D402F0E94320BCC19DD09D7FFEFCF80
:10182000060D171DC80DD91D0894E11CF11CAE143E
:10183000BF045CF7DF91CF911F910F91FF90EF9064
:10184000DF90CF90BF90AF909F908F907F906F90E0
:101850005F904F900895802F0A2FA82F6F01C41A10
:10186000D50AD7FEAFCFD094C194D108D394A01796
:1018700008F0ABCFA1E06A2E712CAACF309521954C
:101880003F4FC7018A199B0997FF7DCF909581959E
:101890009F4F79CF0196A5CF2F923F924F925F92A3
:1018A0006F927F928F929F92AF92BF92CF92DF9270
:1018B000EF92FF920F931F93CF93DF93C82E462E84
:1018C000542E7901422F450D0E94320B452D4E19A1
:1018D0008C2D642D0E94320B6E2D640D8C2D452DA8
:1018E0000E94320B642D6E198C2D452D0E94320BF7
:1018F0001E141F040CF063C0C1E0D0E0CE19DF0954
:10190000C701880F991F22243324281A390A470156
:10191000B1E06B2E712CAA24BB2406C082E090E0BB
:10192000680E791EC60DD71DD7FD09C00894810821
:10193000910882E090E0280E391EC20DD31D089454
:10194000A11CB11CDA2CD40C182D150D8C2D6D2D6D
:10195000412F0E94320BE42CEA188C2D6E2D412F62
:101960000E94320B152D18198C2D6D2D412F0E94C0
:10197000320B8C2D6E2D412F0E94320BE82CE40C83
:101980001A2D150D8C2D6E2D412F0E94320B942D8A
:101990009819092F8C2D692F412F0E94320B152D7C
:1019A0001A198C2D6E2D412F0E94320B8C2D602F19
:1019B000412F0E94320BA814B9040CF4AFCFDF9171
:1019C000CF911F910F91FF90EF90DF90CF90BF903C
:1019D000AF909F908F907F906F905F904F903F90CF
:1019E0002F900895F999FECF92BD81BD60BDFA9AFE
:1019F000F99A0895F999FECF92BD81BDF89A80B504
:101A0000089522E024BD90913D019436A0F49923DD
:101A100069F015BC10926E0084E6891B87BD209387
:101A20006E0025BD8FB780688FBF089515BC1092DA
:101A30006E002A9A089515BC10926E002A98089597
:101A4000EF92FF920F93DF93CF930F92CDB7DEB754
:101A5000522F4817A0F5242F30E090E0821B930B03
:101A6000909361028093600230935D0220935C0248
:101A70005617A8F1262F30E0852F90E0821B930B9C
:101A800090935F0280935E0230935B0220935A0230
:101A900080915C0260915A024091600220915E0246
:101AA000098306E07E010894E11CF11C0E94830872
:101AB0000F90CF91DF910F91FF90EF900895282F15
:101AC00030E0842F90E0821B930B9093610280930F
:101AD000600230935D0220935C02561758F6252F62
:101AE00030E0862F90E0821B930B90935F028093EF
:101AF0005E0230935B0220935A02CACF0F9330915B
:101B0000570240916B03431750F1242F2095205822
:101B1000642F70E06F5F7F4F80E890E0831B910936
:101B20000E94F214281B20935702509158023091C2
:101B30006A02531760F5232F2195205C80E490E022
:101B4000851B9109632F70E00E94F214281B2093DB
:101B5000580280915502813069F40FEF0CC0842F38
:101B60008095830F8093570230916A0280915502CD
:101B7000813099F300E08091570260915802480F3C
:101B8000360F3150232F0E94200D0F910895531BC3
:101B900050935802EBCFDF92EF92FF920F931F9377
:101BA000F82ED62EE42E122F013009F180E0642F9A
:101BB000422F2E2D0D2D0E949D0B80E06F2D412F69
:101BC0002E2D012F0E949D0B80E06F2D412F2F2D78
:101BD0000D2D0E949D0B80E06F2D4D2D2E2D0E940E
:101BE0009D0B1F910F91FF90EF90DF90089581E082
:101BF000642F422F2E2D0D2D0E949D0B81E06F2D05
:101C0000412F2E2D012F0E949D0B81E06F2D412F22
:101C10002F2D0D2D0E949D0B81E06F2D4D2D2E2D12
:101C20000E949D0B1F910F91FF90EF90DF90089500
:101C3000EF92FF920F93022F92E2499FA00111248D
:101C4000EEE3F1E0DF01A40FB51F4E5F5F4FE40F3D
:101C5000F51F4C9111962C917F010E9483080F91E2
:101C6000FF90EF9008958130A9F08230C1F0833069
:101C7000D9F08430F1F0853041F0863009F00895D4
:101C800080E190E00E94B105089581E290E00E9419
:101C9000B10508958FE991E00E94B10508958FEC98
:101CA00090E00E94B105089587E690E00E94B1059A
:101CB000089583E390E00E94B105089518B88CE37D
:101CC00090E00E949B0588E088B980E00E941B0894
:101CD00088EB60E00E94120680E460E00E94120639
:101CE0008FE360E00E94120680EC60E00E94120622
:101CF0001092570288EB60E00E94120608952F921E
:101D00003F924F925F926F927F928F929F92AF928B
:101D1000BF92CF92DF92EF92FF920F931F93DF93C8
:101D2000CF93CDB7DEB72E970FB6F894DEBF0FBEB8
:101D3000CDBF0E94760586E00E94330E84EF95E0C9
:101D40000E9464138091C00085FFFCCF81E18093E5
:101D5000C600F999FECF12BC11BCF89A90B5892F34
:101D600081508630A8F590933B01F999FECF81E030
:101D700090E092BD81BDF89A80B580933D01F999BC
:101D8000FECF82E090E092BD81BDF89A80B580934D
:101D90003C01F999FECF83E090E092BD81BDF89AB5
:101DA00080B580935502F999FECF84E090E092BD12
:101DB00081BDF89A80B580935602F999FECF85E0EF
:101DC00090E092BD81BDF89A80B580934F022FC0FC
:101DD000F89480E090E066E00E94F20C81E090E0F0
:101DE00064E60E94F20C82E090E061E00E94F20C56
:101DF00083E090E060E00E94F20C84E090E060E01C
:101E00000E94F20C85E090E061E00E94F20C789470
:101E100084E680933D0186E080933B0181E08093DE
:101E20003C01109255021092560280934F02ECEA48
:101E3000F0E0849180936B037F010894E11CF11C16
:101E4000F701849180936A020CEA10E00E5F1F4F45
:101E5000F801249120936C04282F26952695269529
:101E60002093690290E087709070892B19F02F5FA2
:101E7000209369028091690290916B03899F802D64
:101E80001124809369020E945E0E80913D010E94A0
:101E9000010D84EF91E00E949B0580913C0181300F
:101EA00009F40BC4F894109250021092520210924E
:101EB000510210925302789488EE93E00E949B05A1
:101EC00080E00E941B0880915002882309F4F0C32F
:101ED00081E30E944C0A81E30E944C0A85E30E9440
:101EE0004C0A82E30E944C0A80E30E944C0A80E381
:101EF0000E944C0A86E080933B010E94330EF894C6
:101F000080E090E066E00E94F20C789488EE93E026
:101F10000E949B0580E00E941B08F89410925202D8
:101F20001092510210925002109253027894E0E005
:101F30008E2EE1E09E2EEAE8F2E0CF01029674E1F7
:101F4000A72E71E0B72E6CE1662E61E0762E5DE083
:101F5000C52E4AE0542E3FE7432E2FE9322E22248D
:101F60002394249129833196A491AA83FC01F491AE
:101F7000FB83A695A695A695AC839A81892F90E0C0
:101F8000877090709E838D83AF5FAF83ECEAF0E043
:101F9000F491F887F701F491F987F801F491FA8741
:101FA00029852695269526952B879985892F90E05A
:101FB000877090709D878C872F5F2E870E94C00549
:101FC000982F8A3089F08B30D0F5883009F423C3FC
:101FD00080915602823061F1892F0E944C0A0E9442
:101FE000C005982F8A3079F77091580260916A0283
:101FF000862F90E0472F50E022273327281B390BEC
:10200000281B390B205C3F4F241735070CF012C3F7
:10201000872F0E94E61490935802809156028230D6
:1020200069F68091C00085FFFCCF5092C600C6CFF4
:102030008091C00085FFFCCF9093C600CDCF8D303E
:1020400009F4A9C28C3721F60E94C005182F2091EF
:102050005602213011F1223099F400D000D0EDB7B2
:10206000FEB73196ADB7BEB712969C928E9211977D
:10207000828313820E947E130F900F900F900F9017
:10208000E12FF0E0E232F10598F4EC5CFF4FEE0F47
:10209000FF1F0590F491E02D09948091C00085FF09
:1020A000FCCF1093C600E12FF0E0E232F10568F3B7
:1020B000209156022130C9F0223009F07FCF809163
:1020C000530200D000D0EDB7FEB73196ADB7BEB722
:1020D00012967C926E921197828313820E947E13D5
:1020E0000F900F900F900F9069CF8091C00085FFE7
:1020F000FCCF1092C60062CF0E94C005182F0E942C
:10210000C005682F812F0E9445060E94C005D82E69
:102110000E94C005E82E0E94C005F82E20E828176E
:1021200008F090C280E8F82E00E010E00E94C005A0
:10213000F801E459FC4F80830F5F1F4F0F15B0F378
:102140008D2D6E2D4F2D2CE633E00E9478062091C8
:102150005602B0CF80E00E941B08109257021092E6
:10216000580220915602A6CF0E94C0050E9429075E
:10217000982F20915602223009F468C28091C00045
:1021800085FFFCCF9093C60095CF0E94C005182F05
:102190000E94C005682F812F0E94120620915602CE
:1021A00089CF0E94C0058093580288230CF080CF0D
:1021B00040925802209156027DCF0E94C005809324
:1021C0005702803A08F474CF309257022091560299
:1021D00071CF0E94C005F82E0E94C005E82E0E9413
:1021E000C005082F0E94C005182F0E94C005282F87
:1021F0008F2D6E2D412FEE24FF240E948308209105
:10220000560258CF60913C01622560933C01F894DE
:1022100082E090E00E94F20C7894209156024ACF1E
:102220008091550282258093550281E00E941B080F
:10223000F89483E090E0609155020E94F20C78944B
:102240002091560237CF0E94C005182F0E94C0056A
:10225000F82E0E94C005E82E0E94C005D82E0E94CC
:10226000C005082F812F6F2D4E2D2D2D0E94200D82
:10227000209156021FCF0E94C005082F0E94C00562
:10228000182F0E94C005602F412F0E94320B209111
:10229000560210CF0E94C005182F0E94C005F82ECC
:1022A0000E94C005E82E0E94C005D82E0E94C005DD
:1022B000082F812F6F2D4E2D2D2D0E94CB0D20919B
:1022C0005602F8CE0E94C005883008F087E0A2E2EE
:1022D0008A9F80011124025C1E4FEE24FF240E947D
:1022E000C005F80181938F010894E11CF11CF2E212
:1022F000EF16F104A1F7DCCE0E94C005182F0E9452
:10230000C005F82E0E94C005E82E0E94C005082FC7
:102310000E94C005612F4F2D2E2D0E949D0B2091F4
:102320005602C8CE0E94C005082F0E94C005F82E94
:102330000E94C005182F0E94C005282F802F6F2DE6
:10234000412F0E94180E20915602B4CE0E94C00563
:10235000883008F087E080934E0220915602AACE82
:102360000E94C005886B60E00E941206A1CE0E9408
:10237000C005806460E00E941206209156029ACE49
:102380000E94C005F82E0E94C005082F0E94C005BB
:10239000182F813808F010E88F2D602F412F2CE680
:1023A00033E00E945C07112309F482CE0CE6E02E94
:1023B00003E0F02E209156021150012F10E0035936
:1023C0001C4F223089F0F70190818091C00085FF79
:1023D000FCCF9093C6000894E11CF11CE016F106B6
:1023E00009F468CE223079F700D000D0EDB7FEB7FF
:1023F0003196ADB7BEB71296BC92AE921197D70187
:102400008C91828313820E947E130F900F900F9005
:102410000F9020915602DFCF0E94C005182F0E9416
:10242000C005682F812F0E94270B982F20915602FC
:10243000223009F40BC18091C00085FFFCCF90933E
:10244000C60038CE80915902813009F418C120921B
:102450005902A981A0936B03BA81B0936A02EB8100
:10246000E0936C04FC81F09369028D819E81892B3D
:1024700019F09F81909369028091690290916B039A
:10248000899F802D1124809369022091560212CEDB
:102490000E94C005982F8150863010F490933B0124
:1024A00080913B010E94330EF89480E090E06091AF
:1024B0003B010E94F20C789420915602FBCD0E94C1
:1024C0005E0E20915602F6CD0E94C005E82E0E94B5
:1024D000C005F82E0E94C005182F0E94C005282FA5
:1024E00080915502813009F4E1C000E08E2D6F2DFE
:1024F000412F0E94200D20915602DCCD80914F0289
:10250000813009F4B9C020924F02F89485E090E040
:1025100060914F020E94F20C789420915602CACD2D
:102520000E94C00580933D010E94010DF89481E056
:1025300090E060913D010E94F20C78942091560247
:10254000B9CD0E94C005182F0E94C005082F0E9417
:10255000C005F82E0E94C005612F70E0402F50E0AA
:102560002F2D30E00E944C0C20915602A3CD0E94EA
:10257000C00580935602833018F082E080935602A3
:10258000F89484E090E0609156020E94F20C7894F6
:10259000209156028FCD80916C0460916B0370E0A6
:1025A000680F711D8091570290E00E94F214809391
:1025B000570290915602923001F180914F02813082
:1025C00009F0FCCC923001F17091580260916A02DE
:1025D000862F90E0472F50E022273327281B390B06
:1025E000281B390B205C3F4F241735073CF5872FFC
:1025F0000E94E61490935802E1CC8091C00085FFC0
:10260000FCCFC092C600D9CF8091C00085FFFCCF1F
:102610005092C600D9CF0E947E0D80915602823022
:1026200009F0CCCC8091C00085FFFCCF88E080937E
:10263000C600C4CC670F60935802EFCC670F60935D
:102640005802BCCC882309F06FCD7ACD00D000D0E1
:10265000EDB7FEB73196ADB7BEB71296BC92AE924B
:102660001197928313820E947E130F900F900F9008
:102670000F90209156021ECD10924F0246CF10921D
:102680005902B885B0936B03E985E0936A02FA8535
:10269000F0936C042B85209369028C859D85892B92
:1026A00009F4EACE9E8590936902E6CE0FEF1ECF25
:1026B00080913B010E94330E29CC88E368E140E021
:1026C00024E00E94180EEECB90936802809367027C
:1026D00008951F93182F8A3049F0E0916702F09116
:1026E0006802812F90E009951F910895E09167029B
:1026F000F09168028DE090E00995EFCF2F923F9224
:102700004F925F926F927F928F929F92AF92BF9201
:10271000CF92DF92EF92FF920F931F93DF93CF93AD
:10272000CDB7DEB72D970FB6F894DEBF0FBECDBF85
:102730008E010E5D1F4FF801219031908F01F10144
:1027400081911F01853261F0882309F4B3C00E9492
:10275000691328018201F10181911F018532A1F7DE
:1027600091911F01903309F49AC0903209F497C0F7
:10277000892F66241D868C3641F18C3431F190E02E
:10278000883549F1893568F4893409F4B4C08A344C
:1027900008F001C1833471F0843409F4ACC028011D
:1027A00010C0893609F4A7C08A3608F0D5C0833630
:1027B00009F09EC0F2E04F2E512C400E511EF80140
:1027C00080810E9469138201C6CFF10181911F01AE
:1027D00091E08835B9F6A0E18A2E912CA12CB12C7C
:1027E000992309F4E5C044E0442E512C400E511EBB
:1027F000F801C080D180E280F3808E01045F1F4F1A
:102800001C86C701B601A50194010E94051520E3AD
:10281000722E760EF9E3F71518F497E3792E760EFB
:10282000F80172928F01C701B601A50194010E94BF
:102830000515C901DA016C017D01FD85FF2311F049
:10284000F150FD870097A105B105D9F6A8012D85A6
:10285000222309F4B9C08D858150282F30E0015022
:102860001040C801821B930B0F5F1F4FF80162924B
:102870008F01E817F907D1F7890100951095040F2A
:10288000151F662009F466CF862D0E9469130F5F1D
:102890001F4FF80160806620B9F782015CCFF1011B
:1028A00081911F01F82FF053FD87FA30E0F0692E77
:1028B0001D8661CF2D960FB6F894DEBF0FBECDBF3B
:1028C000CF91DF911F910F91FF90EF90DF90CF900C
:1028D000BF90AF909F908F907F906F905F904F9040
:1028E0003F902F900895F10181911F01692E43CFF0
:1028F000843609F054CF9923B9F462E0462E512C66
:10290000400E511EF801808191817C010027F7FC67
:102910000095102F17FD14C0670178015AE0852E2D
:10292000912CA12CB12C69CF74E0472E512C400E74
:10293000511EF801E080F1800281138117FFECCF76
:1029400010950095F094E094E11CF11C011D111DFF
:102950008DE20E946913E0CF853711F1883709F4C1
:102960003ACF833709F01BCFE2E04E2E512C400EB8
:10297000511EF80100811181F8018081882309F43A
:10298000E9CE0E9469130F5F1F4FF80180818823F1
:10299000C1F78201E0CE833539F3853509F0FFCEEA
:1029A0008AE0882E912CA12CB12C992309F01BCF01
:1029B00032E0432E512C400E511EF801808191814E
:1029C0006C01EE24FF2419CF672C5BCF991B79E0B3
:1029D00004C0991F961708F0961B881F7A95C9F7AF
:1029E0008095089597FB092E07260AD077FD04D01D
:1029F0002ED006D000201AF4709561957F4F08956F
:102A0000F6F7909581959F4F0895A1E21A2EAA1B83
:102A1000BB1BFD010DC0AA1FBB1FEE1FFF1FA2178E
:102A2000B307E407F50720F0A21BB30BE40BF50B8B
:102A3000661F771F881F991F1A9469F76095709514
:102A4000809590959B01AC01BD01CF010895AA1B13
:102A5000BB1B51E107C0AA1FBB1FA617B70710F089
:102A6000A61BB70B881F991F5A95A9F780959095BB
:0A2A7000BC01CD010895F894FFCFDA
:102A7A00456E746572656420436F6D6D616E642086
:102A8A0025640A003078252E32780A004578697460
:102A9A00656420436F6D6D616E642C2052585F62CD
:102AAA0075666665723D25640A0A000601640A10A5
:102ABA0080C0400C3EFEF2E0F0E0FF7F3F1F1F1F88
:102ACA001F0F0703000000000000000000000000C4
:102ADA0000000000000000000000000000000000EC
:102AEA0000000000000000000000000000000000DC
:102AFA0000000000000000000000000000000000CC
:102B0A0000000000000000000000000000000000BB
:102B1A0000000000000000000000000000000000AB
:102B2A00000000000000000000000000000000009B
:102B3A00000000000000000000000000000000008B
:102B4A00000000000000000000000000000000007B
:102B5A00000000000000000000000000000000006B
:102B6A00000000000000000000000000000000005B
:102B7A00000000000000000000000000000000004B
:102B8A00000000000000000000000000000000003B
:102B9A00000000000000000000000000000000002B
:102BAA00000000000000000000000000000000001B
:102BBA000000000000000000000000000000070103
:00000001FF
