:100000000C945B000C947D020C94AA020C94830067
:100010000C9483000C9483000C9483000C94830054
:100020000C9483000C9483000C9483000C94830044
:100030000C9483000C9483000C9483000C94830034
:100040000C94D7020C9483000C9485040C948300C8
:100050000C9483000C9483000C9483000C94830014
:100060000C9483000C948300000024272A000025B0
:10007000282B000023262904040404040404040299
:100080000202020202030303030303010204081035
:100090002040800102040810200102040810200002
:1000A0000000070002010000030406000000000039
:1000B000000000002D0211241FBECFEFD8E0DEBFEC
:1000C000CDBF11E0A0E0B1E0ECE5FAE002C00590A0
:1000D0000D92AC35B107D9F712E0ACE5B1E001C043
:1000E0001D92A23FB107E1F710E0C6EBD0E004C0DB
:1000F0002297FE010E942805C43BD107C9F70E9440
:1001000026020C942C050C940000EF92FF920F93A2
:100110001F939C017B010CE512E0C801B9010E940C
:100120004302C801B7010E9472021F910F91FF9014
:10013000EF900895CF92DF92EF92FF920F931F936B
:10014000CF93DF936C019CE5E92E91E0F92EF70146
:10015000119281E0EC3DF807D9F700E010E0C0E033
:10016000D0E017C08CE592E00E943802FE01E45A0C
:10017000FE4F80838CE592E00E943B02882331F49D
:1001800064EF71E080E090E00E944703219601E077
:1001900010E08CE592E00E943B02882319F70130C1
:1001A0001105F1F420E030E00FC0D7018C918136C9
:1001B00010F080528C93F601E20FF31FD7018D915E
:1001C0007D0180832F5F3F4F2C173D0774F3CC0DCB
:1001D000DD1D188280E091E0B6010E94850081E07B
:1001E000DF91CF911F910F91FF90EF90DF90CF9013
:1001F0000895EF92FF920F931F93CF93DF93E82F11
:1002000081548A3120F0E03249F080E026C0E032AB
:1002100029F0F0E0E550FF4F608101C060E0C0E0F0
:10022000D0E0062F112707FD109547E0E42EF12CB2
:10023000FE01EC5CFE4FB7016C1B7D0BC80102C0D8
:10024000959587956A95E2F7BC01617080810E945F
:10025000C9032196C830D10559F7DF91CF911F917D
:100260000F91FF90EF900895EF92FF920F931F93DD
:10027000CF93DF93E82F81548A3120F0E03249F0A8
:1002800080E026C0E03229F0F0E0E550FF4F6081C9
:1002900001C060E0C0E0D0E0062F112707FD1095F7
:1002A00057E0E52EF12CFE01E45DFE4FB7016C1B1B
:1002B0007D0BC80102C0959587956A95E2F7BC0150
:1002C000617080810E94C9032196C830D10559F719
:1002D000DF91CF911F910F91FF90EF9008958F9232
:1002E0009F92AF92BF92CF92DF92EF92FF920F93C5
:1002F0001F93DF93CF93CDB7DEB7ADB6BEB68CED0F
:1003000091E00E949A00882309F475C060E070E0D3
:10031000FB01E452FE4F8081882329F461157105A9
:1003200009F469C005C06F5F7F4F6038710581F7C0
:100330009DB68EB6E4E0CE2ED12CC60ED71E9B0104
:100340002B5F3F4F8DB79EB7821B930B0FB6F89470
:100350009EBF0FBE8DBFADB7BEB7119680E090E0D7
:10036000FD01E80FF91F1082019682179307C4F36D
:1003700080E211968C9311978C937D01AD0120E062
:1003800030E0F901E452FE4F8081FA0182832F5F51
:100390003F4F4F5F5F4F261737079CF3FD01E60F76
:1003A000F71F80E283838283AC0DBD1D1C9200E0A9
:1003B00010E0F70180810E9434010F5F1F4FF701A9
:1003C00081810E94F90060912A0170912B01882798
:1003D00077FD8095982F0E9447030894E11CF11C3B
:1003E000C016D10634F7892D982D9C010FB6F894CC
:1003F0003EBF0FBE2DBF0FB6F894BEBE0FBEADBE42
:10040000CF91DF911F910F91FF90EF90DF90CF90F0
:10041000BF90AF909F908F9008951F9312E0812F0F
:1004200061E00E94AB031F5F1431C9F78CE592E0D5
:1004300040E855E260E070E00E943E028CE592E008
:1004400067E171E00E9472021F9108950E9471039A
:100450000E940D020E946F01FDCF8AE591E090930A
:100460005D0280935C020895862F0E944D040895DA
:100470000E94660408950E9455040895CB01BA01B4
:100480000E94140408950F931F93CF93DF938C0160
:10049000EB0109C02196D801ED91FC910190F0810A
:1004A000E02DC801099568816623A1F7DF91CF91FE
:1004B0001F910F9108950F931F938C01DC01ED9113
:1004C000FC910190F081E02D6DE00995D801ED914E
:1004D000FC910190F081E02DC8016AE009951F911F
:1004E0000F9108950F931F938C010E944302C8013E
:1004F0000E945B021F910F9108951F920F920FB6F9
:100500000F9211242F933F934F935F936F937F9399
:100510008F939F93AF93BF93EF93FF9380915E026E
:1005200090915F02892B29F0E0915E02F0915F02C9
:100530000995FF91EF91BF91AF919F918F917F911D
:100540006F915F914F913F912F910F900FBE0F9040
:100550001F9018951F920F920FB60F9211242F9390
:100560003F934F935F936F937F938F939F93AF933B
:10057000BF93EF93FF938091600290916102892B6A
:1005800029F0E0916002F09161020995FF91EF91ED
:10059000BF91AF919F918F917F916F915F914F919B
:1005A0003F912F910F900FBE0F901F9018951F92A3
:1005B0000F920FB60F9211242F938F939F93AF93A7
:1005C000BF938091620290916302A0916402B09106
:1005D00065020196A11DB11D809362029093630292
:1005E000A0936402B09365028091660290916702C5
:1005F000A0916802B09169028050904CAF4FBF4FFC
:100600008093660290936702A0936802B093690298
:1006100027C08091660290916702A0916802B09114
:10062000690280589E43A040B04080936602909338
:100630006702A0936802B093690280916A02909168
:100640006B02A0916C02B0916D020196A11DB11DCB
:1006500080936A0290936B02A0936C02B0936D0238
:100660008091660290916702A0916802B091690240
:1006700081589E43A040B04060F6BF91AF919F91DA
:100680008F912F910F900FBE0F901F901895EF92A2
:10069000FF920F931F937B018C018FB7F8944091C9
:1006A0006A0250916B0260916C0270916D028FBF73
:1006B0002FB7F89480916A0290916B02A0916C021E
:1006C000B0916D022FBF841B950BA60BB70BE816DC
:1006D000F9060A071B0760F71F910F91FF90EF9033
:1006E0000895789484B5826084BD84B5816084BDAA
:1006F00085B5826085BD85B5816085BDEEE6F0E09B
:10070000808181608083E1E8F0E080818260808385
:10071000808181608083E0E8F0E080818160808377
:10072000E1EBF0E0808184608083E0EBF0E08081A9
:1007300081608083EAE7F0E080818460808380814B
:1007400082608083808181608083808180688083F3
:100750001092C1000895282F30E0C90185579F4F9E
:10076000FC01949129583F4FF9018491882381F02D
:10077000E82FF0E0E859FF4FE491F0E0662329F418
:10078000808190958923808308958081892B80833F
:100790000895482F50E0CA0181569F4FFC012491D3
:1007A000CA0185579F4FFC01949149585F4FFA0148
:1007B00034913323C1F1222331F1233021F480918C
:1007C00080008F7705C0243031F4809180008F7DC8
:1007D0008093800018C0213019F484B58F7704C04D
:1007E000223021F484B58F7D84BD0DC0263021F4E4
:1007F0008091B0008F7705C0273029F48091B00038
:100800008F7D8093B000E32FF0E0E359FF4FE49138
:10081000F0E0662329F480819095892380830895F0
:100820008081892B80830895EF92FF920F931F930D
:100830007B018C0122E030E040E050E00E94F704B0
:10084000205C3D4B404F5F4FCA01B901A8019701A1
:100850000E94F704C901DA010197A109B109292F02
:100860003A2F4B2F552747FD5A950196A11DB11DD3
:100870002093C50081508093C400E1ECF0E08081BA
:1008800080618083808188608083808180688083AC
:100890001F910F91FF90EF900895982F8091C000C5
:1008A00085FFFCCF9093C600089580916E029091D1
:1008B0006F0280589F4F2091700230917102821B0D
:1008C000930B60E870E00E94C204089540917002AA
:1008D0005091710280916E0290916F02841795077A
:1008E00019F42FEF3FEF0FC0FA01EE58FD4F2081B2
:1008F000CA01019660E870E00E94C2049093710200
:100900008093700230E0C90108951F920F920FB6D4
:100910000F9211242F933F934F935F936F937F9385
:100920008F939F93AF93BF93EF93FF934091C60034
:10093000E0916E02F0916F02CF01019660E870E0E5
:100940000E94C2049C01809170029091710228174C
:10095000390739F0EE58FD4F408330936F022093F2
:100960006E02FF91EF91BF91AF919F918F917F9117
:100970006F915F914F913F912F910F900FBE0F900C
:100980001F90189597FB092E07260AD077FD04D0F3
:1009900049D006D000201AF4709561957F4F0895D4
:1009A000F6F7909581959F4F0895A1E21A2EAA1B04
:1009B000BB1BFD010DC0AA1FBB1FEE1FFF1FA2170F
:1009C000B307E407F50720F0A21BB30BE40BF50B0C
:1009D000661F771F881F991F1A9469F76095709595
:1009E000809590959B01AC01BD01CF01089597FBC7
:1009F000092E05260ED057FD04D0D7DF0AD0001CE3
:100A000038F450954095309521953F4F4F4F5F4FAB
:100A10000895F6F790958095709561957F4F8F4F6B
:100A20009F4F0895AA1BBB1B51E107C0AA1FBB1F04
:100A3000A617B70710F0A61BB70B881F991F5A956A
:100A4000A9F780959095BC01CD010895EE0FFF1F89
:0C0A50000590F491E02D0994F894FFCF7C
:100A5C00537472696E672069733A200056616C7525
:100A6C00652069733A2000576527726520726561AD
:100A7C00647920746F20676F210020030C0D121015
:100A8C000F0B110A08090403020607057EE6F0CED7
:100A9C00F272F46660CC6EE0017CFC7A3E7EB6703D
:0C0AAC00EC010101AEDA00000000340291
:00000001FF
