:100000000C945B000C9435020C9462020C948300F7
:100010000C9483000C9483000C9483000C94830054
:100020000C9483000C9483000C9483000C94830044
:100030000C9483000C9483000C9483000C94830034
:100040000C948F020C9483000C9466040C9483002F
:100050000C9483000C9483000C9483000C94830014
:100060000C9483000C948300000024272A000025B0
:10007000282B000023262904040404040404040299
:100080000202020202030303030303010204081035
:100090002040800102040810200102040810200002
:1000A0000000070002010000030406000000000039
:1000B000000000000C0111241FBECFEFD8E0DEBF0E
:1000C000CDBF11E0A0E0B1E0EEE1FAE002C00590A2
:1000D0000D92AA32B107D9F711E0AAE2B1E001C04E
:1000E0001D92A03CB107E1F710E0C6EBD0E004C0E0
:1000F0002297FE010E940905C43BD107C9F70E945F
:1001000005010C940D050C940000EF92FF920F93E3
:100110001F937B018C01202F30E080911E01B901DB
:100120000E9463032F2D30E080912001B9010E94CD
:1001300063038FEF90E0A0E0B0E0E822F9220A2309
:100140001B2380912201B7010E9463031F910F912D
:10015000FF90EF900895AF92BF92CF92DF92EF920F
:10016000FF920F931F939FEFA92EB12CC12CD12C7E
:100170008501FF24EE248AE291E060E071E00E94B4
:100180001C018AE291E0B801A70120E130E00E9461
:100190002A02C801B7010E94850064E670E080E091
:1001A00090E00E94FF0286EF9FEFAFEFBFEFA80E37
:1001B000B91ECA1EDB1EDCCFCF93DF93CEE1D1E0A8
:1001C000888161E00E94BC0388816FEF70E00E942B
:1001D0006303229681E0C432D80791F78AE291E066
:1001E00040E051EE60E070E00E9417018AE291E089
:1001F00068E071E00E944B0164E670E080E090E00E
:100200000E94FF02DF91CF9108950E9429030E946E
:10021000DC000E94AB00FDCF88E291E090932B01BF
:1002200080932A010895862F0E945E040895CB01D1
:10023000BA010E94250408950F931F93CF93DF9373
:100240008C01EB0109C02196D801ED91FC91019040
:10025000F081E02DC801099568816623A1F7DF913F
:10026000CF911F910F9108950F931F938C01DC0183
:10027000ED91FC910190F081E02D6DE00995D801A0
:10028000ED91FC910190F081E02DC8016AE00995A3
:100290001F910F9108950F931F938C010E941C01D1
:1002A000C8010E9434011F910F9108952F923F922F
:1002B0004F925F926F927F928F929F92AF92BF9276
:1002C000CF92DF92EF92FF920F931F93DF93CF9322
:1002D000CDB7DEB7A0970FB6F894DEBF0FBECDBF87
:1002E0001C016A017B01411551056105710549F445
:1002F000DC01ED91FC910190F081E02D60E3099526
:1003000054C0882499245401422E5524662477240D
:1003100001E010E00C0F1D1F080D191DC701B601EB
:10032000A30192010E94B604F80160830894811C25
:10033000911CA11CB11CC701B601A30192010E942E
:10034000B604C901DA016C017D01C114D104E104D4
:10035000F104F1F681E0E82EF12CEC0EFD1EE80C24
:10036000F91C3E010894611C711CD501C401019760
:10037000A109B1096C01C818D90814C0F601EE0D25
:10038000FF1D60816A3010F4605D01C0695CD101BD
:10039000ED91FC910190F081E02DC1010995089447
:1003A000E108F1086E147F0449F7A0960FB6F8949F
:1003B000DEBF0FBECDBFCF91DF911F910F91FF9098
:1003C000EF90DF90CF90BF90AF909F908F907F90F5
:1003D0006F905F904F903F902F900895EF92FF9213
:1003E0000F931F93CF93DF93EC017A018B0177FF7B
:1003F0000FC0E881F9810190F081E02D6DE209954F
:1004000010950095F094E094E11CF11C011D111D64
:10041000CE01B801A7012AE00E945601DF91CF91D9
:100420001F910F91FF90EF900895DC012115310588
:1004300041F4ED91FC910190F081E02D642F09953C
:1004400008952A30310519F40E94EE0108950E94A2
:10045000560108950F931F938C010E941502C80145
:100460000E9434011F910F9108951F920F920FB6B1
:100470000F9211242F933F934F935F936F937F932A
:100480008F939F93AF93BF93EF93FF9380912C0132
:1004900090912D01892B29F0E0912C01F0912D01F3
:1004A0000995FF91EF91BF91AF919F918F917F91AE
:1004B0006F915F914F913F912F910F900FBE0F90D1
:1004C0001F9018951F920F920FB60F9211242F9321
:1004D0003F934F935F936F937F938F939F93AF93CC
:1004E000BF93EF93FF9380912E0190912F01892B61
:1004F00029F0E0912E01F0912F010995FF91EF91E4
:10050000BF91AF919F918F917F916F915F914F912B
:100510003F912F910F900FBE0F901F9018951F9233
:100520000F920FB60F9211242F938F939F93AF9337
:10053000BF938091300190913101A0913201B0912F
:1005400033010196A11DB11D8093300190933101BB
:10055000A0933201B0933301809134019091350121
:10056000A0913601B09137018050904CAF4FBF4FF2
:100570008093340190933501A0933601B0933701F5
:1005800027C08091340190913501A0913601B0913E
:10059000370180589E43A040B0408093340190932F
:1005A0003501A0933601B0933701809138019091C5
:1005B0003901A0913A01B0913B010196A11DB11DF5
:1005C0008093380190933901A0933A01B0933B0195
:1005D0008091340190913501A0913601B09137019D
:1005E00081589E43A040B04060F6BF91AF919F916B
:1005F0008F912F910F900FBE0F901F901895EF9233
:10060000FF920F931F937B018C018FB7F894409159
:1006100038015091390160913A0170913B018FBFCF
:100620002FB7F8948091380190913901A0913A0147
:10063000B0913B012FBF841B950BA60BB70BE8169F
:10064000F9060A071B0760F71F910F91FF90EF90C3
:100650000895789484B5826084BD84B5816084BD3A
:1006600085B5826085BD85B5816085BDEEE6F0E02B
:10067000808181608083E1E8F0E080818260808316
:10068000808181608083E0E8F0E080818160808308
:10069000E1EBF0E0808184608083E0EBF0E080813A
:1006A00081608083EAE7F0E08081846080838081DC
:1006B0008260808380818160808380818068808384
:1006C0001092C10008951F93CF93DF93182FEB0171
:1006D00061E00E94BC03E12FF0E0E156FF4F8491FE
:1006E000833051F480918000806880938000D093A3
:1006F0008900C09388003CC0843051F48091800010
:10070000806280938000D0938B00C0938A0030C0B9
:10071000813039F4209729F184B5806884BDC7BD44
:1007200027C0823039F42097E1F084B5806284BD1F
:10073000C8BD1EC0863041F48091B00080688093AF
:10074000B000C093B30014C0873041F48091B00072
:1007500080628093B000C093B4000AC0C038D10555
:100760001CF4812F60E002C0812F61E00E94DA0357
:10077000DF91CF911F910895282F30E0C90185574F
:100780009F4FFC01949129583F4FF9018491882390
:1007900081F0E82FF0E0E859FF4FE491F0E06623A4
:1007A00029F4808190958923808308958081892B05
:1007B00080830895482F50E0CA0181569F4FFC0165
:1007C0002491CA0185579F4FFC01949149585F4F6E
:1007D000FA0134913323C1F1222331F1233021F482
:1007E000809180008F7705C0243031F480918000A3
:1007F0008F7D8093800018C0213019F484B58F77E5
:1008000004C0223021F484B58F7D84BD0DC0263014
:1008100021F48091B0008F7705C0273029F48091B2
:10082000B0008F7D8093B000E32FF0E0E359FF4FDD
:10083000E491F0E0662329F48081909589238083F8
:1008400008958081892B80830895EF92FF920F9302
:100850001F937B018C0122E030E040E050E00E94D9
:10086000D804205C3D4B404F5F4FCA01B901A8013D
:1008700097010E94D804C901DA010197A109B109C1
:10088000292F3A2F4B2F552747FD5A950196A11D29
:10089000B11D2093C50081508093C400E1ECF0E0CD
:1008A000808180618083808188608083808180688E
:1008B00080831F910F91FF90EF900895982F809162
:1008C000C00085FFFCCF9093C60008951F920F9241
:1008D0000FB60F9211242F933F934F935F936F9313
:1008E0007F938F939F93AF93BF93EF93FF93409129
:1008F000C600E0913C01F0913D01CF01019660E816
:1009000070E00E94A3049C0180913E0190913F0100
:100910002817390739F0E05CFE4F408330933D01E2
:1009200020933C01FF91EF91BF91AF919F918F91E7
:100930007F916F915F914F913F912F910F900FBEDB
:100940000F901F90189597FB092E07260AD077FD68
:1009500004D049D006D000201AF4709561957F4FDD
:100960000895F6F7909581959F4F0895A1E21A2E6C
:10097000AA1BBB1BFD010DC0AA1FBB1FEE1FFF1F43
:10098000A217B307E407F50720F0A21BB30BE40B93
:10099000F50B661F771F881F991F1A9469F76095DA
:1009A0007095809590959B01AC01BD01CF01089594
:1009B00097FB092E05260ED057FD04D0D7DF0AD0AD
:1009C000001C38F450954095309521953F4F4F4F7E
:1009D0005F4F0895F6F790958095709561957F4FDC
:1009E0008F4F9F4F0895AA1BBB1B51E107C0AA1F41
:1009F000BB1FA617B70710F0A61BB70B881F991FC0
:100A00005A95A9F780959095BC01CD010895EE0FF8
:0E0A1000FF1F0590F491E02D0994F894FFCF9C
:100A1E00436F6C6F723A2000436F6D6D756E696334
:100A2E006174696F6E7320416374697665000300AB
:0A0A3E00050006000000000013018F
:00000001FF
