:100000000C9403050C9420050C9420050C942005F9
:100010000C9420050C9420050C9420050C942005CC
:100020000C9420050C9420050C9420050C942005BC
:100030000C9420050C9420050C9420050C942005AC
:100040000C945B050C9420050C9420050C94200561
:100050000C9422050C9420050C9420050C9420058A
:100060000C9420050C9420050C9420050C9420057C
:10007000FD1118120712B812A6128C1287127012F4
:100080004A12451040122C12E711CD114510B9113A
:10009000AA114510921145107F1171115811451088
:1000A0004C1140113411691072109710F410A810FF
:1000B0002B11221113110A11050801000000000084
:1000C000006F6F00000007000700147F147F14000A
:1000D000266B2A104333086463324D4936500000C2
:1000E000070000001C2241000041221C00110A1FD1
:1000F0000A1110107C10100000A0600010101010E9
:1001000010000060600040300806013E5149453E45
:1001100000427F4000426151494622414949360828
:100120000C0A7F0827454545393C4A494930016159
:100130001907013649494936064949291E00006C0C
:100140006C000000AC6C000814224100141414145C
:1001500014004122140802015109063E415D5D462A
:100160007C1211127C7F494949363E414141227F30
:100170004141413E7F494949417F090909013E41C9
:100180004151727F0808087F41417F414121413F31
:1001900001017F081422417F404040407F02040259
:1001A0007F7F0608307F3E4141413E7F09090906B5
:1001B0003E4141617E7F091929462649494932015C
:1001C000017F01013F4040403F1F2040201F3F4032
:1001D00030403F63140814630304780403615149F9
:1001E000454300007F410001060830400000417F88
:1001F000000402010204808080808001020400006B
:1002000020545454787F484444383844444428386F
:100210004444487F3854545418087E09010218A4F5
:10022000A4A4787F0808087000487A4000408080C5
:10023000887A7F1010284400417F40007C043804F5
:10024000787C040404783844444438FC242424187A
:10025000182424FC807C08040408485454542000CA
:10026000083C48203C4040407C0C3040300C1C6036
:1002700018601C44281028441CA0A0A07C4464548E
:100280004C4400083641412040FF4020414136089F
:100290000010081810080A100100000000000000FB
:1002A000000000000000000000000000000000004E
:1002B00000FFFF00000000000000000C0C00000028
:1002C0000000000F0F00000F0F00000000000000F2
:1002D00000000000008098D8FC9F99F8FF9F18014B
:1002E0000D0F01010F0701010000387C6CFFCCCC21
:1002F00080000000060C0C3F0C0F0700008E91518F
:10030000514EA0A090100000000000070808080748
:10031000000080EE3F73E3C306C0C00003070E0C6D
:100320000C0F0F0F09000000000F0F00000000006D
:10033000000000000000000000000000F0FE0F01BF
:10034000000000000000031F3C200000000000012E
:100350000FFEF0000000000000203C1F0300000022
:100360000000243C18FF183C24000000000000009E
:10037000000000000000C0C0C0F8F8C0C0C000000D
:10038000000000070700000000000000000000005F
:10039000000000000000203E1E0000000000008061
:1003A0008080808000000000000101010101000048
:1003B0000000000000000000000000000000000E2F
:1003C0000E0000000000000000E0F81E0701000021
:1003D000101C0F03000000000000F8FE0763630715
:1003E000FEFC000001070E0C0C0E070300000006C7
:1003F00003FFFF00000000000C0C0C0F0F0C0C0C96
:10040000000006030383C3633E1C00000C0E0F0DA7
:100410000C0C0C0C00000603636363E3FE9C0000FD
:10042000060C0C0C0C0C07070000C0E0B88C87FF12
:10043000FF80000001010101010F0F0100007F3F5B
:1004400033333373E3C00000060C0C0C0C0E0703AF
:100450000000F8FE67333373E6C0000003070E0C9C
:100460000C0E0703000003030383F37F1F07000044
:1004700000080E070100000000009CFE6363636338
:10048000FE9C000007070C0C0C0C070700003C7ECC
:10049000E7C3C367FEFC000000060C0C0C0E07014E
:1004A0000000000000707000000000000000000E5E
:1004B0000E0000000000000000707000000000004E
:1004C0000000203E1E0000000000C0C0E0203030D0
:1004D0001018000000000101030302060000303084
:1004E00030303030303000000303030303030303D4
:1004F00000001810303020E0C0C0000006020303E6
:100500000101000000000603C3E3333F0E000000BA
:1005100000000D0D0000000000F0F81CCEE6666E35
:10052000FCF800030F1C393333333B13000000E0A9
:10053000FE9F9FFEE00000000C0F070101070F0C5B
:100540000000FFFF63636363FE9E00000F0F0C0C4F
:100550000C0C0F070000F8FE06030303030600005F
:100560000107060C0C0C0C060000FFFF030303063A
:10057000FEF800000F0F0C0C0C0607010000FFFF37
:1005800063636363630300000F0F0C0C0C0C0C0C13
:100590000000FFFF63636363630300000F0F00004D
:1005A000000000000000F8FE0603C3C3C3C600003D
:1005B0000107060C0C0C0F070000FFFF6060606075
:1005C000FFFF00000F0F000000000F0F00000003EE
:1005D00003FFFF0303000000000C0C0F0F0C0C00C6
:1005E0000000000000030303FFFF0000060C0C0CDA
:1005F0000C0C07070000FFFF7078FE870301000066
:100600000F0F000001070F0C0000FFFF00000000AB
:10061000000000000F0F0C0C0C0C0C0C0000FFFF76
:100620001FF8F81FFFFF00000F0F000000000F0F62
:100630000000FFFF0F78E000FFFF00000F0F000039
:10064000010F0F0F0000F8FE07030307FEF800007C
:1006500001070E0C0C0E07010000FFFF63636363CC
:100660003E3E00000F0F0000000000000000F8FEFA
:1006700007030307FEF8000001070E0C0C1E3703EA
:100680000000FFFF6363E3E3FE1E00000F0F0000A6
:1006900000010F0F08001C3E736363E3C680000077
:1006A000060C0C0C0C0C07070000030303FFFF03F0
:1006B000030300000000000F0F0000000000FFFF18
:1006C00000000000FFFF000003070E0C0C0E0703E4
:1006D0000000037FFE8080FE7F03000000000F0FFC
:1006E0000F0F0000000FFFF000F8F800F0FF0F0000
:1006F0000F0F0F00000F0F0F000001079FFCFC9F62
:1007000007010000080E0F01010F0E080001071F6E
:100710003CF0F03C1F0701000000000F0F0000003C
:1007200000000303C3E37B3F0F0700000E0F0F0D14
:100730000C0C0C0C00000000FFFF01010000000089
:1007400000003F3F20200000000001071C70C00097
:10075000000000000000000001071C100000000164
:1007600001FFFF00000000000020203F3F000000CC
:1007700000080C0E0703070E0C0800000000000024
:1007800000000000000000000000000000000080E9
:1007900080808080808080808000000001030200D3
:1007A000000000000000000000000000000000B099
:1007B00098D8D8D8F8F00000070F0D0C0C060F0FD2
:1007C0000000FFFF30181838F0E000000F0F060C93
:1007D0000C0E07030000E0F038181818183000005D
:1007E00003070E0C0C0C0C060000E0F03818183053
:1007F000FFFF000003070E0C0C060F0F0000E0F0D7
:10080000D8D8D8D8F0E0000003070E0C0C0C0C066A
:1008100000001818FEFF1B1B1B00000000000F0F3C
:10082000000000000000E0F038181830F8F8000070
:1008300003376E6C6C667F3F0000FFFF301818189E
:10084000F8F000000F0F000000000F0F000000186C
:1008500018FBFB00000000000C0C0C0F0F0C0C0C24
:100860000000001818FBFB00000000006060607FC3
:100870003F0000000000FFFFC0F0B81808000000B3
:100880000F0F0001030F0C0800000303FFFF00001F
:10089000000000000000070F0C0C0C000000F8F82E
:1008A00018F8F018F8F000000F0F000F0F000F0FEE
:1008B0000000F8F830181818F8F000000F0F0000CA
:1008C00000000F0F0000E0F038181838F0E00000CA
:1008D00003070E0C0C0E07030000F8F83018183848
:1008E000F0E000007F7F060C0C0E07030000E0F034
:1008F00038181830F8F8000003070E0C0C067F7F3C
:10090000000000F8F830181818180000000F0F0049
:1009100000000000000070F8D8D8D8D89830000047
:10092000060C0C0C0C0D0F0700001818FEFE181812
:10093000180000000000070F0C0C0C000000F8F875
:1009400000000000F8F80000070F0C0C0C060F0F59
:10095000000018F8F00000F0F81800000000070F81
:100960000F0700000038F88000E0E00080F8380051
:10097000030F0F01010F0F030000081878E0E07863
:1009800018080000080C0F03030F0C08000008787B
:10099000F8C080F8F81800000060617F1F070000B1
:1009A000000018181898D878381800000C0E0F0D91
:1009B0000C0C0C0C00000080807E7F010100000008
:1009C0000000003F7F4040000010181C1EFFFF1E6B
:1009D0001C181000000000FFFF00000000000001D4
:1009E000017F7E80800000000040407F3F000000CB
:1009F0000000C0606060C0C0C06000000000000077
:100A000000000000000011241FBECFEFD0E1DEBFC8
:100A1000CDBF13E0A0E0B1E0EAECFAE202C005903D
:100A20000D92A23DB107D9F715E0A2EDB3E001C0E8
:100A30001D92AF30B107E1F70E94000E0C946315D0
:100A40000C9400001F920F920FB60F9211248F93F7
:100A50009F93EF93FF93F8948091D2039091C600F7
:100A6000E82FF0E0E750FC4F90838F5F8093D20334
:100A70008091D203843110F01092D2038091D5037B
:100A80008F5F8093D5038091D503803150F08091A2
:100A9000C00085FFFCCF83E18093C60081E0809396
:100AA000D6037894FF91EF919F918F910F900FBE95
:100AB0000F901F9018951F920F920FB60F9211244E
:100AC0008F939F9315BC10926E0082E085BB16BC7D
:100AD00004990FC0149A8091390187BD82E08093F8
:100AE0006E0085BD9F918F910F900FBE0F901F904C
:100AF0001895149884E690913901891B87BDEECF33
:100B000014B817B880EF82B981B98EEF8AB980E244
:100B10008BB982E08093B10084BD80936E00809198
:100B2000390187BD0895882371F49FEFB89A909397
:100B3000B200B89BFECF882329F0B89A9093B200F8
:100B4000B89BFECF0895982F9195F0CFCF93DF9368
:100B5000EC01009771F08AEF0E9493058AEF0E94E2
:100B600093058AEF0E9493058AEF0E9493052197CF
:100B700091F7DF91CF9108959093C5008093C400C1
:100B800082E08093C00088E98093C10086E0809372
:100B9000C200789408958091D5038823E1F3809171
:100BA000D3039091D403FC01E750FC4FE081019600
:100BB0009093D4038093D303449720F01092D403EE
:100BC0001092D303F8948091D50381508093D5037C
:100BD00078948091D603813011F08E2F0895809102
:100BE000D5038530D0F78091C00085FFFCCF81E12F
:100BF0008093C6001092D603F0CF982F8091C0004A
:100C000085FFFCCF9093C600089580E000008F5FC1
:100C10008632E1F70895982F8FEF87B9613011F18F
:100C20006230E9F080EE8BB998B980E000008F5F08
:100C30008632E1F75A9A80E000008F5F8632E1F752
:100C40005A9880E000008F5F8632E1F780E28BB92E
:100C500080E000008F5F8632E1F717B8089580E6E4
:100C60008BB9E2CF80EA8BB9DFCF982F8FEF87B9AE
:100C7000613011F16230E9F088EE8BB998B980E00B
:100C800000008F5F8632E1F75A9A80E000008F5FA4
:100C90008632E1F75A9880E000008F5F8632E1F7F4
:100CA00080E28BB980E000008F5F8632E1F717B8F1
:100CB000089588E68BB9E2CF88EA8BB9DFCFCF926F
:100CC000DF92FF920F931F93DF93CF930F92CDB7D5
:100CD000DEB7082F862F142F6901886B60E00E9411
:100CE0000B06003408F049C081E0898340E4401BD2
:100CF000411708F43EC0FF24802F806460E00E940A
:100D00000B068FEF87B9F981F13009F468C088E6E6
:100D10008BB91123D9F04C2DC601FC01808188B913
:100D200080E000008F5F8632E1F75A9A80E0000091
:100D30008F5F8632E1F75A9880E000008F5F86323D
:100D4000E1F731968E2F841B811740F380E28BB937
:100D500080E000008F5F8632E1F7FF2091F417B842
:100D60000F90CF91DF911F910F91FF90DF90CF9067
:100D70000895F12EF41A142FBFCF0054E2E0E98356
:100D8000B5CF80E460E00E940B068FEF87B98981C0
:100D9000813041F188EA8BB990E0F601E10FF11D55
:100DA000808188B91F5F80E000008F5F8632E1F7A5
:100DB0005A9A80E000008F5F8632E1F75A9880E00F
:100DC00000008F5F8632E1F79F5F9F1530F380E26E
:100DD0008BB980E000008F5F8632E1F7C0CF88EAF0
:100DE0008BB997CF88E68BB990E0D7CF813021F1CE
:100DF00088E78BB95A9A80E000008F5F8632E1F76E
:100E00005A9880E000008F5F8632E1F75A9A80E0BE
:100E100000008F5F8632E1F796B15A9880E00000BB
:100E20008F5F8632E1F780E28BB980E000008F5F50
:100E30008632E1F7892F089588EB8BB9DBCFCF920B
:100E4000DF92FF920F931F93DF93CF930F92CDB753
:100E5000DEB7082F862F142F6901886B60E00E948F
:100E60000B06003408F058C081E0898340E4401B41
:100E7000411708F442C0FF24802F806460E00E9484
:100E80000B06F981F13009F444C088E78BB95A9A0E
:100E900080E000008F5F8632E1F75A9880E0000022
:100EA0008F5F8632E1F71123B1F04C2DC601FC01B2
:100EB0005A9A80E000008F5F8632E1F786B1808326
:100EC0005A9880E000008F5F8632E1F731968E2FCE
:100ED000841B811768F380E28BB980E000008F5F8C
:100EE0008632E1F7FF20E1F40F90CF91DF911F915F
:100EF0000F91FF90DF90CF900895F12EF41A142FE8
:100F0000802F806460E00E940B06F981F13009F0C7
:100F1000BCCF88EB8BB9BBCF0054E2E0E983A6CF0E
:100F200080E460E00E940B068981813069F188EBE2
:100F30008BB95A9A80E000008F5F8632E1F75A98A9
:100F400080E000008F5F8632E1F790E0292F210FCB
:100F50005A9A80E000008F5F8632E1F786B1F60191
:100F6000E20FF11D80835A9880E000008F5F863287
:100F7000E1F79F5F9F1550F380E28BB980E000009E
:100F80008F5F8632E1F7B0CF88E78BB9D2CFEF928F
:100F9000FF920F931F938823D9F510E00FEF98EE7F
:100FA000F92E80E2E82E812F886B60E00E940B060C
:100FB00080E460E00E940B0607B98091D70381307E
:100FC00029F118B8FBB890E080E000008F5F86320E
:100FD000E1F75A9A80E000008F5F8632E1F75A9875
:100FE00080E000008F5F8632E1F79F5F903461F709
:100FF000EBB817B81092DD031092DE031F5F1830B4
:1010000091F61F910F91FF90EF90089508B9DACFF4
:1010100010E080E0612F40E82EE034E00E941F07DE
:1010200090E0E92FF0E0E25FFB4F808180958083C4
:101030009F5F9038B1F780E0612F40E82EE034E008
:101040000E945F061F5F183021F7DBCF2F923F927F
:101050004F925F926F927F928F929F92AF92BF92C8
:10106000CF92DF92EF92FF920F931F93DF93CF9374
:10107000CDB7DEB72E970FB6F894DEBF0FBECDBF4B
:101080008887342EA22EB02E8701822F8150803483
:1010900038F1222361F010E0332031F000E00E94AB
:1010A000CB050F5F0315D8F31F5F1A15A8F32E9613
:1010B0000FB6F894DEBF0FBECDBFCF91DF911F9169
:1010C0000F91FF90EF90DF90CF90BF90AF909F90E7
:1010D0008F907F906F905F904F903F902F900895EA
:1010E000842F815087FD66C1862F877058E0252E9A
:1010F000281A30E0C82EDD240894C108D108C601A2
:10110000820F931F0894C11CD11C97FD63C1959554
:1011100087959595879595958795482F4F5F4C8333
:10112000A694A694A694AB82C90187709070892B6F
:1011300019F08A2D8F5F8B834FEF50E0CA010C2C82
:1011400002C0880F991F0A94E2F78E83260F311D83
:10115000277030702115310509F021C19FEF9D8363
:10116000832D90E0EE24FF24E81AF90A669566952F
:10117000669569831C861B86662477248B2C9924AC
:10118000A1E08A229924BC814B2E55240894410861
:101190005108ED81E095E987FE81F095FA87A62C4C
:1011A0002981260D2F838885622F432D2EE034E080
:1011B0000E941F07332009F4E3C06EE874E040E0AA
:1011C00050E020C0BE812B23F3E0FB1508F44EC095
:1011D00032E0B31608F46DC0FA01E25FFB4F808184
:1011E000282B20838114910431F0B5E0BB1518F051
:1011F0008081809580834F5F5F4F6F5F7F4F431586
:1012000008F0BEC00115110509F461C0F801EE0D2A
:10121000FF1D208130E0022C02C0359527950A94ED
:10122000E2F7EB85FC85E00FF11F808190E00C2C4C
:1012300002C0880F991F0A94E2F7282B8B859C85A2
:1012400001969C878B870894E11CF11CF6E0BF1681
:10125000F1F0AA2009F4B6CF6414750409F0B4CFF4
:10126000ED812E23F3E0FB1508F0B2CF85E08B155E
:1012700038F5AA2009F074C0FA01E25FFB4F8081C3
:101280009A85892380838081282B2083ABCFD80146
:101290008C9190E09C01022C02C0359527950A9410
:1012A000E2F70C2C02C0880F991F0A94E2F7282B52
:1012B000D0CFFA01E25FFB4F80812823208392CFB9
:1012C000FA01E25FFB4F8081282720838BCF9B812F
:1012D000A916A8F0FA812F2F30E00C2C02C0220FA3
:1012E000331F0A94E2F7DB018C9190E0022C02C0DC
:1012F000959587950A94E2F7282BFC93A7CF8091C8
:10130000D5038823E1F38091D3039091D403DC01CA
:10131000A750BC4FBC91BA8301969093D40380939D
:10132000D303449720F01092D4031092D303F8947F
:101330008091D50381508093D50378948091D60312
:10134000813041F68091D503853020F68091C00030
:1013500085FFFCCFE1E1E093C6001092D603BACF3F
:101360006414750429F0FA01E25FFB4F10828BCF01
:10137000FA01E25FFB4F8081A9858A23808383CFB6
:1013800088856F81432D2EE034E00E945F0608942B
:10139000611C711CEC816E1608F401CF88CE88E0C8
:1013A00090E0821B930B02C0559547958A95E2F712
:1013B0004D83D6CE222309F47ACE00E0332031F0DB
:1013C00010E00E94CB051F5F1315D8F30F5F0A15BD
:1013D000A8F36DCE07969BCEEF92FF920F9390915C
:1013E000EF03492F50E090E08097849F9001859F04
:1013F000300D949F300D11242D5F3F4F8091DF03FE
:10140000882309F064C08091D703813009F4A3C018
:10141000C901840F951F281739079CF428543F4FA2
:1014200040E8BC0168547F4FF9018491E42FF0E05B
:10143000E25FFB4F80834F5F2F5F3F4F26173707D9
:1014400099F78091DD036091DE0340910D042091B6
:10145000F0030091CF037EE8E72E74E0F72E0E94A0
:10146000260820910D0430910E05832F820F909154
:10147000DD03890F8093DD03482F50E0622F70E079
:10148000630F711DCA01860F971F80389105DCF02C
:10149000CA010E941A158093DD037091DE036091EA
:1014A000F003862F90E0472F50E022273327281B98
:1014B000390B281B390B205C3F4F2417350734F1BB
:1014C000670F6093DE030F91FF90EF900895809176
:1014D000D703813021F1C901840F951F28173907DF
:1014E0000CF0AFCF2A563D4F40E8BC016A567D4F05
:1014F000F9018491E42FF0E0E25FFB4F80834F5FBE
:101500002F5F3F4F2617370799F79BCF872F0E94F2
:101510000E159093DE030F91FF90EF900895C9018F
:10152000840F951F281739070CF08BCF2A563D4F93
:1015300040E8BC016A567D4FF9018491E42FF0E048
:10154000E25FFB4F809580834F5F2F5F3F4F2617F1
:10155000370791F776CFC901840F951F28173907F0
:101560000CF06FCF28543F4F40E8BC0168547F4FC8
:10157000F9018491E42FF0E0E25FFB4F80958083D6
:101580004F5F2F5F3F4F2617370791F75ACF1F93B3
:10159000162F806460E00E940B06812F0E94F606E1
:1015A0001F910895EF92FF920F931F93F82E67FDFE
:1015B00052C0403408F04FC05FE3541B8091D70302
:1015C000813009F458C0603408F04AC081E080934B
:1015D000EB036093EA03952F96959695969587E091
:1015E000891B8093EC0327E030E0B901651B71098A
:1015F000AB01281B3109220F331F220F331F220F8B
:10160000331F420F531F21E030E002C0220F331F6F
:101610004A95E2F7122F2093E903886B60E00E945D
:101620000B060091EA03E090EB03802F6E2D0E94E1
:10163000C70A8093E803FF20D1F410951823109374
:10164000E903802F806460E00E940B068091E9032B
:101650006E2D0E9435061F910F91FF90EF90089517
:1016600082E08093EB0360546093EA03B4CF182BBD
:101670001093E903E6CFF826A6CF4F925F926F92C0
:101680007F928F929F92AF92BF92CF92DF92EF9212
:10169000FF920F931F93CF93DF93482EA42F722FA7
:1016A000402F50E0EA2FF0E0E22EFF24A62EBB24CC
:1016B00055249A012E1B3F0B37FD80C0C7018A19A4
:1016C0009B0997FD83C08217930774F455245394A4
:1016D0008A2FA62F682F802F072F782FCF01F50193
:1016E0005C01CA01A7017C01761708F454C0C70148
:1016F00075015C01CA01AF01FC016F01C41AD50A72
:10170000D7FC51C0A01708F455C066246A94762C03
:10171000AE14BF047CF145018E189F08C40197FCEC
:1017200059C0EC01D595C7958A010FC0842D602F53
:101730004E2D0E94D20ACC19DD09D7FD11C00894A4
:10174000E11CF11CAE14BF04ACF0552079F7842DD8
:101750006E2D402F0E94D20ACC19DD09D7FFEFCFA2
:10176000060D171DC80DD91D0894E11CF11CAE14FF
:10177000BF045CF7DF91CF911F910F91FF90EF9025
:10178000DF90CF90BF90AF909F908F907F906F90A1
:101790005F904F900895802F0A2FA82F6F01C41AD1
:1017A000D50AD7FEAFCFD094C194D108D394A01757
:1017B00008F0ABCFA1E06A2E712CAACF309521950D
:1017C0003F4FC7018A199B0997FF7DCF909581955F
:1017D0009F4F79CF0196A5CF2F923F924F925F9264
:1017E0006F927F928F929F92AF92BF92CF92DF9231
:1017F000EF92FF920F931F93CF93DF93C82E462E45
:10180000542E7901422F450D0E94D20A452D4E19C2
:101810008C2D642D0E94D20A6E2D640D8C2D452DC9
:101820000E94D20A642D6E198C2D452D0E94D20A79
:101830001E141F040CF063C0C1E0D0E0CE19DF0914
:10184000C701880F991F22243324281A390A470117
:10185000B1E06B2E712CAA24BB2406C082E090E07C
:10186000680E791EC60DD71DD7FD09C008948108E2
:10187000910882E090E0280E391EC20DD31D089415
:10188000A11CB11CDA2CD40C182D150D8C2D6D2D2E
:10189000412F0E94D20AE42CEA188C2D6E2D412F84
:1018A0000E94D20A152D18198C2D6D2D412F0E94E2
:1018B000D20A8C2D6E2D412F0E94D20AE82CE40C06
:1018C0001A2D150D8C2D6E2D412F0E94D20A942DAC
:1018D0009819092F8C2D692F412F0E94D20A152D9E
:1018E0001A198C2D6E2D412F0E94D20A8C2D602F3B
:1018F000412F0E94D20AA814B9040CF4AFCFDF9193
:10190000CF911F910F91FF90EF90DF90CF90BF90FC
:10191000AF909F908F907F906F905F904F903F908F
:101920002F900895F999FECF92BD81BD60BDFA9ABE
:10193000F99A0895F999FECF92BD81BDF89A80B5C4
:10194000089522E024BD909139019436A0F49923A2
:1019500069F015BC10926E0084E6891B87BD209348
:101960006E0025BD8FB780688FBF089515BC10929B
:101970006E001498089515BC10926E00149A089584
:10198000EF92FF920F93DF93CF930F92CDB7DEB715
:10199000522F4817A0F5242F30E090E0821B930BC4
:1019A0009093E7038093E6033093E3032093E203ED
:1019B0005617A8F1262F30E0852F90E0821B930B5D
:1019C0009093E5038093E4033093E1032093E003D5
:1019D0008091E2036091E0034091E6032091E403EB
:1019E000098306E07E010894E11CF11C0E94260890
:1019F0000F90CF91DF910F91FF90EF900895282FD6
:101A000030E0842F90E0821B930B9093E703809348
:101A1000E6033093E3032093E203561758F6252F8D
:101A200030E0862F90E0821B930B9093E503809328
:101A3000E4033093E1032093E003CACF0F93309186
:101A4000DD0340910D04431750F1242F20952058B9
:101A5000642F70E06F5F7F4F80E890E0831B9109F7
:101A60000E941A15281B2093DD035091DE0330914C
:101A7000F003531760F5232F2195205C80E490E05C
:101A8000851B9109632F70E00E941A15281B209373
:101A9000DE038091D703813069F40FEF0CC0842FEF
:101AA0008095830F8093DD033091F0038091D703FD
:101AB000813099F300E08091DD036091DE03480FEF
:101AC000360F3150232F0E94C00C0F910895531BE5
:101AD0005093DE03EBCFDF92EF92FF920F931F93B1
:101AE000F82ED62EE42E122F81E0642F422F2E2DB9
:101AF0000D2D0E943D0B81E06F2D412F2E2D012FCA
:101B00000E943D0B81E06F2D412F2F2D0D2D0E9446
:101B10003D0B81E06F2D4D2D2E2D0E943D0B1F9111
:101B20000F91FF90EF90DF900895EF92FF920F9347
:101B3000022F92E4499FA0011124EBE3F1E0DF01C1
:101B4000A40FB51F4E5F5F4FE40FF51F4C91119628
:101B50002C917F010E9426080F91FF90EF9008952D
:101B60008130A9F08230C1F08330D9F08430F1F0B7
:101B7000853041F0863009F0089584E190E00E94BC
:101B8000BC0508958AE290E00E94BC05089587E0B4
:101B900092E00E94BC05089583E091E00E94BC059C
:101BA000089581E890E00E94BC05089580E490E0EB
:101BB0000E94BC0508951BB88CE390E00E94A60526
:101BC00080E28BB98CE390E00E94A60580E00E9441
:101BD000C7078FE360E00E940B0688EB60E00E947D
:101BE0000B0680E460E00E940B0680EC60E00E943F
:101BF0000B061092DD0388EB60E00E940B0608954F
:101C00002F923F924F925F926F927F928F929F920C
:101C1000AF92BF92CF92DF92EF92FF920F931F93FA
:101C2000DF93CF93CDB7DEB72E970FB6F894DEBF14
:101C30000FBECDBF0E94800586E00E94B00D8DEFE3
:101C400095E00E948C138091C00085FFFCCF81E15C
:101C50008093C6008AE08093390186E08093370143
:101C600081E0809338011092D7031092D8038093BB
:101C7000D003E8EBF0E0849180930D047F01089499
:101C8000E11CF11CF70184918093F00308EB10E054
:101C90000E5F1F4FF801249120930E05282F2695E3
:101CA000269526952093EF0390E087709070892BFE
:101CB00019F02F5F2093EF038091EF0390910D04B3
:101CC000899F802D11248093EF030E94DB0D80916A
:101CD00039010E94A10C84EF91E00E94A605809139
:101CE0003801813009F40CC5F8941092D203109297
:101CF000D4031092D3031092D503789488EE93E026
:101D00000E94A60580E00E94C7078091D203882325
:101D100009F4FDC481E30E94EC0981E30E94EC090F
:101D200085E30E94EC0982E30E94EC0980E30E94B3
:101D3000EC0980E30E94EC0986E0809337010E9461
:101D4000B00DF89480E090E066E00E94920C7894E8
:101D500088EE93E00E94A60580E00E94C707F894F1
:101D60001092D4031092D3031092D2031092D50391
:101D70007894E0E0AE2EE1E0BE2EE6E9F2E0CF019D
:101D8000029674E1872E71E0972E68E1662E61E07D
:101D9000762E5AE0C52E4DE0542E3FE7432E2FE914
:101DA000322E22242394249129833196A491AA834C
:101DB000FC01F491FB83A695A695A695AC839A8128
:101DC000892F90E0877090709E838D83AF5FAF8383
:101DD000E8EBF0E0F491F887F701F491F987F80166
:101DE000F491FA8729852695269526952B8799853E
:101DF000892F90E0877090709D878C872F5F2E874A
:101E00008091D503882309F068C020B183B1982F51
:101E100080FF7CC01092F1038091DC038E7F809361
:101E2000DC0391FF82C01092F2038091DC038D7F6E
:101E30008093DC0392FF88C01092F3038091DC034F
:101E40008B7F8093DC0393FF8EC01092F40380910C
:101E5000DC03877F8093DC0394FF94C01092F5032A
:101E60008091DC038F7E8093DC03922F20FF9AC049
:101E70001092F6038091DC038F7D8093DC0391FF49
:101E8000A0C01092F7038091DC038F7B8093DC036A
:101E900092FFA6C01092F8038091DC038F778093A5
:101EA000DC039091DB039F5F9093DB0380913A0109
:101EB000981708F0AEC017988091D903981708F0CA
:101EC000A6C015988091DA03981708F09EC016985E
:101ED0008091D503882309F498CF0E94CB05982FD1
:101EE0008A3009F4ABC38B3008F095C0883009F410
:101EF00096C38091D803823009F480C0892F0E9454
:101F0000EC0920B183B1982F80FD84CF8091F1033B
:101F10008F5F8093F103882309F083CF8091DC03E6
:101F200081608093DC0391FD7ECF8091F2038F5F0F
:101F30008093F203882309F07DCF8091DC038260D7
:101F40008093DC0392FD78CF8091F3038F5F8093C1
:101F5000F303882309F077CF8091DC0384608093BA
:101F6000DC0393FD72CF8091F4038F5F8093F403C1
:101F7000882309F071CF8091DC0388608093DC03B3
:101F800094FD6CCF8091F5038F5F8093F5038823D8
:101F900009F06BCF8091DC0380618093DC03922F8A
:101FA00020FD66CF8091F6038F5F8093F603882330
:101FB00009F065CF8091DC0380628093DC0391FDA2
:101FC00060CF8091F7038F5F8093F703882309F038
:101FD0005FCF8091DC0380648093DC0392FD5ACF55
:101FE0008091F8038F5F8093F803882309F059CF1D
:101FF0008091DC0380688093DC0353CF8091C00024
:1020000085FFFCCF9093C60079CF169AF9CE159A2A
:1020100059CF179A51CF8D3009F4C0C28C3709F0CF
:1020200068CF0E94CB05182F2091D803213011F1E1
:10203000223099F400D000D0EDB7FEB73196ADB79D
:10204000BEB71296BC92AE921197828313820E9401
:10205000A6130F900F900F900F90E12FF0E0E43255
:10206000F10598F4E85CFF4FEE0FFF1F0590F49127
:10207000E02D09948091C00085FFFCCF1093C6002D
:10208000E12FF0E0E432F10568F32091D80321302C
:10209000C9F0223009F0B9CE8091D50300D000D02C
:1020A000EDB7FEB73196ADB7BEB712967C926E9281
:1020B0001197828313820E94A6130F900F900F90A6
:1020C0000F90A3CE8091C00085FFFCCF1092C60078
:1020D0009CCE0E94CB05182F0E94CB05682F812F24
:1020E0000E9435060E94CB05D82E0E94CB05E82E13
:1020F0000E94CB05F82EB0E8B81708F0CBC280E8F4
:10210000F82E00E010E00E94CB05F801E25FFB4FE3
:1021100080830F5F1F4F0F15B0F38D2D6E2D4F2D48
:102120002EE034E00E945F062091D803B0CF0E94D9
:10213000CB050E94F606982F2091D803223009F48F
:10214000ADC28091C00085FFFCCF9093C6009FCFA9
:102150000E94CB05F82E0E94CB05082F0E94CB05CC
:10216000182F813808F010E88F2D602F412F2EE0B6
:1021700034E00E941F07112309F487CF0EE0E02E00
:1021800004E0F02E2091D8031150012F10E0015FE0
:102190001B4F223089F0F70190818091C00085FFAC
:1021A000FCCF9093C6000894E11CF11CE016F106E8
:1021B00009F46DCF223079F700D000D0EDB7FEB72B
:1021C0003196ADB7BEB712969C928E921197D701F9
:1021D0008C91828313820E94A6130F900F900F9010
:1021E0000F902091D803DFCF0E94CB05182F0E94BB
:1021F000CB05682F812F0E94C70A982F2091D80302
:10220000223009F44BC28091C00085FFFCCF90932F
:10221000C6003DCF9091DC038091C00085FFFCCFCC
:102220009093C60032CF0E94CB0580933A010E9462
:10223000CB058093D9030E94CB058093DA032091CC
:10224000D80325CF0E94CB05886B60E00E940B0667
:102250002091D8031CCF0E94CB05806460E00E94CF
:102260000B062091D80313CF0E94CB05182F0E9494
:10227000CB05682F812F0E940B062091D80307CF32
:102280000E94CB058093DE0388230CF0FECE4092A3
:10229000DE032091D803FBCE0E94CB058093DD03A3
:1022A000803A08F4F2CE3092DD032091D803EFCECD
:1022B0000E94CB05F82E0E94CB05E82E0E94CB058C
:1022C000082F0E94CB05182F0E94CB05282F8F2D99
:1022D0006E2D412FEE24FF240E9426082091D80362
:1022E000D6CE60913801622560933801F89482E07F
:1022F00090E00E94920C78942091D803C8CE8091EF
:10230000D70382258093D70381E00E94C707F89402
:1023100083E090E06091D7030E94920C7894209122
:10232000D803B5CE0E94CB05182F0E94CB05F82EFE
:102330000E94CB05E82E0E94CB05D82E0E94CB052B
:10234000082F812F6F2D4E2D2D2D0E94C00C209116
:10235000D8039DCE0E94CB05082F0E94CB05182FD5
:102360000E94CB05602F412F0E94D20A2091D803F2
:102370008ECE0E94CB05082F0E94CB05F82E0E941E
:10238000CB05182F0E94CB05282F802F6F2D412FB2
:102390000E946B0D2091D8037ACE0E94CB058A3023
:1023A00008F089E0A2E48A9F70011124EBE3F1E0D8
:1023B000EE0EFF1E00E010E00E94CB05D7018D93CA
:1023C0007D010F5F1F4F02341105B1F75ECE0E94F1
:1023D000CB05182F0E94CB05F82E0E94CB05E82EC6
:1023E0000E94CB05082F0E94CB05612F4F2D2E2D6B
:1023F0000E943D0B2091D8034ACE80E00E94C7077F
:102400001092DD031092DE032091D80340CE0E948B
:10241000CB05809339010E94A10CF89481E090E0F3
:10242000609139010E94920C78942091D8032FCEAC
:102430000E94CB058093D803833018F082E080930C
:10244000D803F89484E090E06091D8030E94920C45
:1024500078942091D8031BCE0E94CB05082F0E94B0
:10246000CB05F82E0E94CB05182F0E94CB05282FF4
:10247000802F6F2D412F0E94950D2091D80307CEFC
:102480000E94CB05883008F087E08093CF0320912D
:10249000D803FDCD8091DF03813009F415C120926E
:1024A000DF03A981A0930D04BA81B093F003EB81FF
:1024B000E0930E05FC81F093EF038D819E81892BC3
:1024C00019F09F819093EF038091EF0390910D0499
:1024D000899F802D11248093EF032091D803D7CDBD
:1024E0000E94CB05982F8150863010F490933701CD
:1024F000809137010E94B00DF89480E090E06091E7
:1025000037010E94920C78942091D803C0CD0E948C
:10251000DB0D2091D803BBCD0E94CB05E82E0E9495
:10252000CB05F82E0E94CB05182F0E94CB05282F33
:102530008091D703813009F4DEC000E08E2D6F2D2D
:10254000412F0E94C00C2091D803A1CD8091D003CF
:10255000813009F4D2C02092D003F89485E090E055
:102560006091D0030E94920C78942091D8038FCD73
:102570000E94CB05182F0E94CB05082F0E94CB0587
:10258000F82E0E94CB05612F70E0402F50E02F2DD8
:1025900030E00E94EC0B2091D80379CD80910E059C
:1025A00060910D0470E0680F711D8091DD0390E073
:1025B0000E941A158093DD039091D803923009F19F
:1025C0008091D003813009F020CC923009F17091D4
:1025D000DE036091F003862F90E0472F50E0222722
:1025E0003327281B390B281B390B205C3F4F24173E
:1025F00035070CF04BC0872F0E940E159093DE0319
:1026000004CC8091C00085FFFCCF5092C600D8CF8B
:102610008091C00085FFFCCFC092C600D8CF0E9439
:102620001E0D8091D803823009F0EFCB8091C0005D
:1026300085FFFCCF88E08093C600E7CB7091DE0376
:102640006091F003862F90E0472F50E02227332738
:10265000281B390B281B390B205C3F4F24173507EB
:102660008CF4872F0E940E159093DE038091D8037F
:10267000823009F0CACB8091C00085FFFCCFC092A8
:10268000C600C3CB670F6093DE03F0CF670F609384
:10269000DE03BBCB882309F034CD3FCD00D000D082
:1026A000EDB7FEB73196ADB7BEB712969C928E923B
:1026B0001197928313820E94A6130F900F900F9090
:1026C0000F902091D803E3CC1092DF03B885B0932C
:1026D0000D04E985E093F003FA85F0930E052B8550
:1026E0002093EF038C859D85892B09F4EDCE9E8583
:1026F0009093EF03E9CE0FEF21CF1092D0032DCFAF
:1027000088E368E140E024E00E94950DEDCA8091E5
:1027100037010E94B00D1CCB9093EE038093ED0324
:1027200008951F93182F8A3049F0E091ED03F0913E
:10273000EE03812F90E009951F910895E091ED033C
:10274000F091EE038DE090E00995EFCF2F923F924C
:102750004F925F926F927F928F929F92AF92BF92B1
:10276000CF92DF92EF92FF920F931F93DF93CF935D
:10277000CDB7DEB72D970FB6F894DEBF0FBECDBF35
:102780008E010E5D1F4FF801219031908F01F101F4
:1027900081911F01853261F0882309F4B3C00E9442
:1027A000911328018201F10181911F018532A1F766
:1027B00091911F01903309F49AC0903209F497C0A7
:1027C000892F66241D868C3641F18C3431F190E0DE
:1027D000883549F1893568F4893409F4B4C08A34FC
:1027E00008F001C1833471F0843409F4ACC02801CD
:1027F00010C0893609F4A7C08A3608F0D5C08336E0
:1028000009F09EC0F2E04F2E512C400E511EF801EF
:1028100080810E9491138201C6CFF10181911F0135
:1028200091E08835B9F6A0E18A2E912CA12CB12C2B
:10283000992309F4E5C044E0442E512C400E511E6A
:10284000F801C080D180E280F3808E01045F1F4FC9
:102850001C86C701B601A50194010E942D1520E335
:10286000722E760EF9E3F71518F497E3792E760EAB
:10287000F80172928F01C701B601A50194010E946F
:102880002D15C901DA016C017D01FD85FF2311F0D1
:10289000F150FD870097A105B105D9F6A8012D8556
:1028A000222309F4B9C08D858150282F30E00150D2
:1028B0001040C801821B930B0F5F1F4FF8016292FB
:1028C0008F01E817F907D1F7890100951095040FDA
:1028D000151F662009F466CF862D0E9491130F5FA5
:1028E0001F4FF80160806620B9F782015CCFF101CB
:1028F00081911F01F82FF053FD87FA30E0F0692E27
:102900001D8661CF2D960FB6F894DEBF0FBECDBFEA
:10291000CF91DF911F910F91FF90EF90DF90CF90BB
:10292000BF90AF909F908F907F906F905F904F90EF
:102930003F902F900895F10181911F01692E43CF9F
:10294000843609F054CF9923B9F462E0462E512C15
:10295000400E511EF801808191817C010027F7FC17
:102960000095102F17FD14C0670178015AE0852EDD
:10297000912CA12CB12C69CF74E0472E512C400E24
:10298000511EF801E080F1800281138117FFECCF26
:1029900010950095F094E094E11CF11C011D111DAF
:1029A0008DE20E949113E0CF853711F1883709F449
:1029B0003ACF833709F01BCFE2E04E2E512C400E68
:1029C000511EF80100811181F8018081882309F4EA
:1029D000E9CE0E9491130F5F1F4FF8018081882379
:1029E000C1F78201E0CE833539F3853509F0FFCE9A
:1029F0008AE0882E912CA12CB12C992309F01BCFB1
:102A000032E0432E512C400E511EF80180819181FD
:102A10006C01EE24FF2419CF672C5BCF991B79E062
:102A200004C0991F961708F0961B881F7A95C9F75E
:102A30008095089597FB092E07260AD077FD04D0CC
:102A40002ED006D000201AF4709561957F4F08951E
:102A5000F6F7909581959F4F0895A1E21A2EAA1B33
:102A6000BB1BFD010DC0AA1FBB1FEE1FFF1FA2173E
:102A7000B307E407F50720F0A21BB30BE40BF50B3B
:102A8000661F771F881F991F1A9469F760957095C4
:102A9000809590959B01AC01BD01CF010895AA1BC3
:102AA000BB1B51E107C0AA1FBB1FA617B70710F039
:102AB000A61BB70B881F991F5A95A9F7809590956B
:0A2AC000BC01CD010895F894FFCF8A
:102ACA00456E746572656420436F6D6D616E642036
:102ADA0025640A0025640A00457869746564204300
:102AEA006F6D6D616E642C2052585F627566666503
:102AFA00723D25640A0A00060114320A1080C04099
:102B0A000C3EFEF2E0F0E0FF7F3F1F1F1F1F0F0782
:102B1A0003000000000000000000000000000000A8
:102B2A00000000000000000000000000000000009B
:102B3A00000000000000000000000000000000008B
:102B4A00000000000000000000000000000000007B
:102B5A00000000000000000000000000000000006B
:102D8A000000000000000000000000000000000732
:022D9A00010036
:00000001FF
