:100000000C9463000C948B000C948B000C948B006C
:100010000C948B000C948B000C948B000C948B0034
:100020000C948B000C948B000C948B000C948B0024
:100030000C948B000C948B000C948B000C948B0014
:100040000C9441080C948B000C9438060C948B0093
:100050000C948B000C948B000C948B000C948B00F4
:100060000C948B000C948B000000000024002700EF
:100070002A0000000000250028002B0000000000DE
:1000800023002600290004040404040404040202DA
:100090000202020203030303030301020408102007
:1000A0004080010204081020010204081020000012
:1000B0000007000201000003040600000000000029
:1000C0000000EE00F10611241FBECFEFD8E0DEBF26
:1000D000CDBF11E0A0E0B1E0E6EAF9E102C0059091
:1000E0000D92A033B107D9F711E0A0E3B1E001C050
:1000F0001D92A83DB107E1F710E0C6ECD0E004C0C6
:100100002297FE010E94960CC23CD107C9F70E94BB
:1001100031060C94D10C0C940000A0E0B0E0E3E9AF
:10012000F0E00C94A20CEC01A880B980CA80DB80BE
:10013000A114B104C104D10441F484E2A82E89EDD4
:10014000B82E8BE5C82E87E0D82EC601B5012DE16B
:1001500033EF41E050E00E94650C27EA31E440E0D3
:1001600050E00E94110C7B018C01C601B5012DE10C
:1001700033EF41E050E00E94650CCA01B9012CEE5A
:1001800034EF4FEF5FEF0E94110C6E0D7F1D801F4B
:10019000911F97FF04C06150704080409048688371
:1001A00079838A839B839B01AC015F77B901CA0184
:1001B000CDB7DEB7EAE00C94BE0C0E948D00089526
:1001C0008CE191E00E948D00089560931C01709372
:1001D0001D0180931E0190931F010895109231011B
:1001E0001092300182E88093320110923501089517
:1001F000EF92FF920F931F93CF93DF938C01809127
:10020000200160E00E946109CFE0D0E081E0E82EAB
:10021000F12C8091220160E00E94610960E0C70139
:100220000C2E02C0880F991F0A94E2F780239123B5
:10023000892B09F061E0809124010E94610980917D
:10024000220161E00E9461098091240160E00E9426
:10025000610921978FEFCF3FD807D9F6809122010E
:1002600060E00E9461098091200161E00E946109C3
:10027000DF91CF911F910F91FF90EF9008956F92B2
:100280007F928F929F92AF92BF92CF92DF92EF9226
:10029000FF920F931F93882359F46FEF7FEF8FEF37
:1002A0009FEFA0E0B0E020E030E040E050E00AC086
:1002B00061E070E080E090E0A0E0B0E02FEF3FEF81
:1002C00040E050E07C018D015B01CC24B7FCC09480
:1002D000DC2C35014601620E731E841E951E07C07C
:1002E000C7010E94F800EA0CFB1C0C1D1D1DE61442
:1002F000F70408051905A1F71F910F91FF90EF90E2
:10030000DF90CF90BF90AF909F908F907F906F9035
:1003100008952F923F924F925F926F927F928F92A9
:100320009F92AF92BF92CF92DF92EF92FF920F9384
:100330001F93DF93CF93CDB7DEB728970FB6F8940E
:10034000DEBF0FBECDBF0E94B1083B014C010E9431
:10035000B10880E090E00E94F80080E090E0A0E02A
:10036000B0E08D839E83AF83B8870F2EF0E02F2EF1
:10037000F0E03F2EF0E24F2EF1E45F2EF02D0E94D0
:10038000B10869837A838B839C836619770988090E
:1003900099090E94F80A20E030E04AE754E40E94FC
:1003A0005F0A5B016C012AE037ED43E25CE30E94E7
:1003B0005B0A87FDE4CFC201B101A60195010E944D
:1003C000AE0B9B01AC016D817E818F8198850E946F
:1003D000F7097B018C01C601B50120E030E040E85F
:1003E00050EC0E94AE0BA60195010E94AE0B9B0142
:1003F000AC01C801B7010E94F7097B018C012D8176
:100400003E814F8158850E94F609A60195010E9400
:100410005F0A1B012C01C801B70120E030E040E079
:1004200050E00E945B0A882374F417FB109517F9BB
:100430001095C201B1012DEC3CEC4CE45FEB0E9445
:10044000AE0B1B012C01C801B7010E94C70A5B015A
:1004500091E0C92ED12C0A2C02C0CC0CDD1C0A94D0
:10046000E2F7C801B7012DEC3CEC4CE45EE30E94DE
:10047000F7090E94C70AA616B70649F081E090E086
:1004800002C0880F991F6A95E2F7C82AD92AC801C5
:10049000B7012DEC3CEC4CE45EE30E94AA0B18166D
:1004A000B4F4C801B7012DEC3CEC4CE45EE30E94CF
:1004B000F6090E94C70AA616B70649F081E090E047
:1004C00002C0880F991F6A95E2F7C82AD92AC60187
:1004D0000E94F800C801B70120E030E040E050E0A1
:1004E0000E94AA0B1816A4F469807A808B809C80E5
:1004F000ED82FE820F831887C801B70120E030E04B
:1005000040E05FE30E94AA0B18160CF438CF12C02B
:1005100069807A808B809C80ED82FE820F831887B1
:10052000C801B70120E030E040E05FEB0E945B0AC9
:1005300087FD25CFC201B10120E030E040E050E06E
:100540000E94AA0B1816A4F469807A808B809C8084
:10055000ED82FE820F831887C201B10120E030E0F6
:1005600040E05FE30E94AA0B18160CF408CF12C0FB
:1005700069807A808B809C80ED82FE820F83188751
:10058000C201B10120E030E040E05FEB0E945B0A75
:1005900087FDF5CE28960FB6F894DEBF0FBECDBF0F
:1005A000CF91DF911F910F91FF90EF90DF90CF904F
:1005B000BF90AF909F908F907F906F905F904F9083
:1005C0003F902F900895AF92BF92CF92DF92EF921B
:1005D000FF920F931F93CF93DF930E94B108C0E067
:1005E000D0E037E0A32EB12C21E0C22ED12CEE2496
:1005F000FF248701E61AF70A080B190B1CC0C50176
:100600008C1B9D0B960102C0220F331F8A95E2F7C7
:10061000C90196010C2E02C0220F331F0A94E2F783
:10062000922F0E94F8006091270170E080E090E036
:100630000E94BF082196C830D1050CF3C0E0D0E07D
:10064000C6010C2E02C0880F991F0A94E2F795018B
:100650002C1B3D0BA60102C0440F551F2A95E2F743
:10066000942F0E94F8006091270170E080E090E0F4
:100670000E94BF082196C830D10511F7309127019B
:1006800020912601822F992787FD9095830F911D38
:1006900001978138910518F02195209326018091CA
:1006A0002601830F8093270158E9E5165AE3F506E2
:1006B00050E0050750E0150718F4C0E0D0E0BBCFCC
:1006C000DF91CF911F910F91FF90EF90DF90CF902E
:1006D000BF90AF9008952F923F924F925F926F928A
:1006E0007F928F929F92AF92BF92CF92DF92EF92C2
:1006F000FF920F931F93CF93DF93182F0E94B1089F
:100700004B015C01112349F4CC24CA94DC2C67E032
:10071000662E712C80E090E007C051E0C52ED12CF0
:100720006624772487E090E02C014C0C5D1C41E0AE
:10073000242E312C0E94B1087B018C01E3011AC0E8
:1007400080E890E00C2E02C0959587950A94E2F718
:1007500091010C2E02C0220F331F0A94E2F7922F50
:100760000E94F80062E370E080E090E00E94BF0821
:10077000CC0DDD1DC415D50519F7E818F9080A09CF
:100780001B0988E9E8168AE3F80680E0080780E09C
:10079000180780F2DF91CF911F910F91FF90EF909A
:1007A000DF90CF90BF90AF909F908F907F906F9091
:1007B0005F904F903F902F9008952F923F924F92CD
:1007C0005F926F927F928F929F92AF92BF92CF92E1
:1007D000DF92EF92FF920F931F93DF93CF9300D09E
:1007E00000D0CDB7DEB7182F0E94B1082B013C0115
:1007F000112349F4AA24AA94BA2CE7E08E2E912C56
:1008000080E090E007C071E0A72EB12C88249924E5
:1008100087E090E09401245030403A8329831C0102
:100820002A0C3B1C0E94B1087B018C01C980DA8034
:100830009C828B8239C09601D7FE04C02B813C81FB
:100840002C5F3F4F40E850E00B8002C05595479524
:100850000A94E2F761E070E00B8002C0660F771F38
:100860000A94E2F780E890E0022E02C09595879501
:100870000A94E2F7E1E0F0E002C0EE0FFF1F2A95D4
:10088000E2F7842B9E2F962B0E94F80062E370E023
:1008900080E090E00E94BF082B813C812A0D3B1D27
:1008A0003C832B83CA0CDB1C8B819C8182159305B6
:1008B00011F6E418F5080609170998E9E9169AE30C
:1008C000F90690E0090790E0190708F4ABCF0F9004
:1008D0000F900F900F90CF91DF911F910F91FF908C
:1008E000EF90DF90CF90BF90AF909F908F907F90D0
:1008F0006F905F904F903F902F900895CF93DF932C
:10090000EC0188819981009779F52D81622F7727F5
:1009100067FD70958A8190E00E94300C7C836B8328
:100920006115710549F412161CF08FEF9FEF02C09C
:1009300081E090E09C838B838A81682F70E04B81FB
:100940005C819B01240F351FC9010197873C9105EC
:1009500058F18D8181958D8388279927841B950B6C
:100960009C838B839B011EC081309105F9F46D81BE
:10097000462F552747FD50955C834B838A81E82F8E
:10098000F0E09F01240F351FC9010197873C9105B5
:1009900058F061956D8388279927841B950B9C835C
:1009A0008B839F01280F391F2A8304C0039711F4FA
:1009B0008D818A838AEB91E060E071E00E942807D4
:1009C0004A8150E060E070E08AEB91E02AE030E09C
:1009D0000E9421088AEB91E069E071E00E942807FB
:1009E0004B815C81662757FD6095762F8AEB91E0FD
:1009F0002AE030E00E9436088A81DF91CF91089585
:100A00002F923F924F925F926F927F928F929F921E
:100A1000AF92BF92CF92DF92EF92FF920F931F930C
:100A2000CF93DF93EB010E94B1083B014C0141E100
:100A30004C1B109231011092300182E880933201F8
:100A40008AE080933501CC24DD2420E030E007C02B
:100A5000CC0CDD1C0894C11CD11C2F5F3F4F2C1700
:100A60003D07B4F3C0E0D0E0A42EBB2415010894E8
:100A70002108310825010894411C511CEE24FF2453
:100A80008701E618F7080809190915C0C6010C2ED8
:100A900002C0880F991F0A94E2F70E94F80080E3D1
:100AA00091E00E947E0490E0A0E0B0E0BC01CD01A6
:100AB0000E94BF082196CA15DB0544F3C0E0D0E0D0
:100AC00014C0960102C0220F331F8A95E2F7C901B4
:100AD0000E94F80080E391E00E947E0490E0A0E094
:100AE000B0E0BC01CD010E94BF08C1018C1B9D0B71
:100AF0002196C415D50529F738E9E3163AE3F3063C
:100B000030E0030730E0130718F4C0E0D0E0D3CFA3
:100B1000DF91CF911F910F91FF90EF90DF90CF90D9
:100B2000BF90AF909F908F907F906F905F904F900D
:100B30003F902F900895AF92BF92CF92DF92EF92A5
:100B4000FF920F931F930E94B1085B016C010E94FA
:100B5000B1087B018C0160E070E080E090E02FEF55
:100B60003FEF40E050E00E94D009DC01CB010E9441
:100B7000F80062E370E080E090E00E94BF08EA18AD
:100B8000FB080C091D0988E9E8168AE3F80680E0ED
:100B9000080780E01807D8F21F910F91FF90EF909F
:100BA000DF90CF90BF90AF900895CF93DF9380E018
:100BB0000E94890180E00E943F0181E00E943F0184
:100BC00081E00E946B0381E00E94DD0380E00E94CF
:100BD000DD0380E00E946B030E94E302C1E0D0E0ED
:100BE00083E090E0BE010E9400052196C131D1054D
:100BF000B9F7C0E1D0E083E090E0BE010E940005BB
:100C000021978FEFCF3FD807B1F70E949B05DF9167
:100C1000CF9108950F931F938091200161E00E946E
:100C200041098091220161E00E94410980912401E3
:100C300061E00E94410980E00E9423090E94EE09C0
:100C40000AEB11E0C80140E051EE60E070E00E9464
:100C50007506C80165E171E00E9457071F910F9169
:100C600008950E94E9080E940A060E94D505FDCF5A
:100C70001F920F920FB60F9211242F933F934F9311
:100C80005F936F937F938F939F93AF93BF93EF93F4
:100C9000FF934091C600E091B601F091B701CF01FA
:100CA000019660E870E00E94300C9C018091B801D0
:100CB0009091B9012817390739F0EA5CFE4F40835B
:100CC0003093B7012093B601FF91EF91BF91AF919F
:100CD0009F918F917F916F915F914F913F912F9154
:100CE0000F900FBE0F901F901895AF92BF92CF92AA
:100CF000DF92EF92FF920F931F93CF93DF936C01DC
:100D00007A018B01DC011496AD90BC901597CB0154
:100D1000BA0122E030E040E050E00E94650C205C27
:100D20003D4B404F5F4FCA01B901A80197010E9496
:100D3000650CC901DA010197A109B109292F3A2FE0
:100D40004B2F552747FD5A950196A11DB11DE50171
:100D50002883E601EE81FF8181508083EA85FB854F
:100D6000208141E050E0CA010E8402C0880F991F23
:100D70000A94E2F7282B2083EA85FB852081CA01AB
:100D80000F8402C0880F991F0A94E2F7282B208352
:100D9000EA85FB858081088802C0440F551F0A94AC
:100DA000E2F7842B8083DF91CF911F910F91FF9009
:100DB000EF90DF90CF90BF90AF900895FC01A08599
:100DC000B18521898C9190E0022E02C0959587957E
:100DD0000A94E2F780FFF6CF0484F585E02D608366
:100DE00008958DE291E09093BB018093BA0186E370
:100DF00091E09093BD018093BC0185EC90E09093CD
:100E0000BF018093BE0184EC90E09093C101809378
:100E1000C00180EC90E09093C3018093C20181EC0B
:100E200090E09093C5018093C40186EC90E090938C
:100E3000C7018093C60184E08093C80183E080935A
:100E4000C90187E08093CA0185E08093CB010895B2
:100E50000F931F93CF93DF938C01EB0109C0219671
:100E6000D801ED91FC910190F081E02DC801099528
:100E700068816623A1F7DF91CF911F910F910895AB
:100E80000F931F938C01DC01ED91FC910190F08197
:100E9000E02D6DE00995D801ED91FC910190F08174
:100EA000E02DC8016AE009951F910F9108950F93F5
:100EB0001F938C010E942807C8010E9440071F91C0
:100EC0000F9108952F923F924F925F926F927F926F
:100ED0008F929F92AF92BF92CF92DF92EF92FF924A
:100EE0000F931F93DF93CF93CDB7DEB7A0970FB6C5
:100EF000F894DEBF0FBECDBF1C016A017B01411516
:100F000051056105710549F4DC01ED91FC910190F9
:100F1000F081E02D60E3099554C0882499245401A0
:100F2000422E55246624772401E010E00C0F1D1F8B
:100F3000080D191DC701B601A30192010E94430CBF
:100F4000F80160830894811C911CA11CB11CC7018D
:100F5000B601A30192010E94430CC901DA016C01A0
:100F60007D01C114D104E104F104F1F681E0E82E21
:100F7000F12CEC0EFD1EE80CF91C3E010894611CDE
:100F8000711CD501C4010197A109B1096C01C818F0
:100F9000D90814C0F601EE0DFF1D60816A3010F40F
:100FA000605D01C0695CD101ED91FC910190F0811F
:100FB000E02DC10109950894E108F1086E147F0441
:100FC00049F7A0960FB6F894DEBF0FBECDBFCF9104
:100FD000DF911F910F91FF90EF90DF90CF90BF9026
:100FE000AF909F908F907F906F905F904F903F90C9
:100FF0002F900895EF92FF920F931F93CF93DF935B
:10100000EC017A018B0177FF0FC0E881F981019033
:10101000F081E02D6DE2099510950095F094E09433
:10102000E11CF11C011D111DCE01B801A7012AE030
:101030000E946207DF91CF911F910F91FF90EF9077
:101040000895DC012115310541F4ED91FC910190E9
:10105000F081E02D642F099508952A30310519F4A7
:101060000E94FA0708950E94620708950F931F9344
:101070008C010E942108C8010E9440071F910F9116
:1010800008951F920F920FB60F9211242F938F93F2
:101090009F93AF93BF938091CC019091CD01A0918C
:1010A000CE01B091CF010196A11DB11D8093CC015D
:1010B0009093CD01A093CE01B093CF018091D00148
:1010C0009091D101A091D201B091D3018050904C68
:1010D000AF4FBF4F8093D0019093D101A093D20125
:1010E000B093D30127C08091D0019091D101A091FC
:1010F000D201B091D30180589E43A040B04080936C
:10110000D0019093D101A093D201B093D3018091EB
:10111000D4019091D501A091D601B091D70101964B
:10112000A11DB11D8093D4019093D501A093D60148
:10113000B093D7018091D0019091D101A091D201BB
:10114000B091D30181589E43A040B04060F6BF915A
:10115000AF919F918F912F910F900FBE0F901F9085
:1011600018958FB7F8942091D4013091D501409112
:10117000D6015091D7018FBFB901CA010895EF92EE
:10118000FF920F931F937B018C018FB7F8944091CE
:10119000D4015091D5016091D6017091D7018FBFD4
:1011A0002FB7F8948091D4019091D501A091D601E8
:1011B000B091D7012FBF841B950BA60BB70BE81678
:1011C000F9060A071B0760F71F910F91FF90EF9038
:1011D0000895789484B5826084BD84B5816084BDAF
:1011E00085B5826085BD85B5816085BDEEE6F0E0A0
:1011F000808181608083E1E8F0E08081826080838B
:10120000808181608083E0E8F0E08081816080837C
:10121000E1EBF0E0808184608083E0EBF0E08081AE
:1012200081608083EAE7F0E0808184608083808150
:1012300082608083808181608083808180688083F8
:101240001092C10008958770909128019295990F8E
:10125000990F907C982B90937C0080917A00806409
:1012600080937A0080917A0086FDFCCF20917800EF
:1012700040917900942F80E030E0282B392BC90170
:101280000895282F30E0C90186569F4FFC019491A4
:101290002A573F4FF9018491882391F0E82FF0E01D
:1012A000EE0FFF1FE859FF4FA591B491662329F473
:1012B0008C91909589238C9308958C91892B8C9394
:1012C0000895482F50E0CA0182559F4FFC01249198
:1012D000CA0186569F4FFC0194914A575F4FFA010D
:1012E00034913323D1F1222331F1233021F4809141
:1012F00080008F7705C0243031F4809180008F7D8D
:101300008093800018C0213019F484B58F7704C011
:10131000223021F484B58F7D84BD0DC0263021F4A8
:101320008091B0008F7705C0273029F48091B000FC
:101330008F7D8093B000E32FF0E0EE0FFF1FEE589B
:10134000FF4FA591B491662329F48C919095892340
:101350008C9308958C91892B8C930895EF92FF9232
:101360000F931F937B018C01611571058105910518
:1013700029F420E030E040E050E00BC00E94E000A3
:10138000A80197010E94650CAC01CB01DA019C0118
:10139000AD01B901CA011F910F91FF90EF9008951F
:1013A000EF92FF920F931F937B018C0162177307DB
:1013B0008407950764F4261B370B480B590BCA01A9
:1013C000B9010E94AE09E60EF71E081F191FB701EA
:1013D000C8011F910F91FF90EF900895009729F099
:1013E000BC0180E090E00E94E50008955058BB27C2
:1013F000AA270ED075C166D130F06BD120F031F440
:101400009F3F11F41EF45BC10EF4E095E7FB51C160
:10141000E92F77D180F3BA1762077307840795071E
:1014200018F071F49EF58FC10EF4E0950B2EBA2FD3
:10143000A02D0B01B90190010C01CA01A0011124DA
:10144000FF27591B99F0593F50F4503E68F11A1686
:10145000F040A22F232F342F4427585FF3CF469517
:1014600037952795A795F0405395C9F77EF41F1639
:10147000BA0B620B730B840BBAF09150A1F0FF0F03
:10148000BB1F661F771F881FC2F70EC0BA0F621FEF
:10149000731F841F48F4879577956795B795F795DF
:1014A0009E3F08F0B3CF9395880F08F09927EE0F71
:1014B000979587950895D9D008F481E008950CD0C8
:1014C0000FC107D140F0FED030F021F45F3F19F09A
:1014D000F0C0511139C1F3C014D198F39923C9F365
:1014E0005523B1F3951B550BBB27AA27621773072A
:1014F000840738F09F5F5F4F220F331F441FAA1FDE
:10150000A9F333D00E2E3AF0E0E830D0915050409D
:10151000E695001CCAF729D0FE2F27D0660F771F4B
:10152000881FBB1F261737074807AB07B0E809F02D
:10153000BB0B802DBF01FF2793585F4F2AF09E3FC2
:10154000510568F0B6C000C15F3FECF3983EDCF394
:10155000869577956795B795F7959F5FC9F7880F3B
:10156000911D9695879597F90895E1E0660F771F8D
:10157000881FBB1F621773078407BA0720F0621B1E
:10158000730B840BBA0BEE1F88F7E095089504D017
:101590006894B111D9C00895BCD088F09F5790F0DD
:1015A000B92F9927B751A0F0D1F0660F771F881F88
:1015B000991F1AF0BA95C9F712C0B13081F0C3D0A3
:1015C000B1E00895C0C0672F782F8827B85F39F041
:1015D000B93FCCF3869577956795B395D9F73EF4E7
:1015E00090958095709561957F4F8F4F9F4F08958F
:1015F000E89409C097FB3EF49095809570956195AD
:101600007F4F8F4F9F4F9923A9F0F92F96E9BB2762
:101610009395F695879577956795B795F111F8CFDE
:10162000FAF4BB0F11F460FF1BC06F5F7F4F8F4F49
:101630009F4F16C0882311F096E911C0772321F03F
:101640009EE8872F762F05C0662371F096E8862FD7
:1016500070E060E02AF09A95660F771F881FDAF72E
:10166000880F9695879597F90895990F0008550F5B
:10167000AA0BE0E8FEEF16161706E807F907C0F018
:1016800012161306E407F50798F0621B730B840B20
:10169000950B39F40A2661F0232B242B252B21F4FA
:1016A00008950A2609F4A140A6958FEF811D811D9A
:1016B000089597F99F6780E870E060E008959FEFD4
:1016C00080EC089500240A941616170618060906D9
:1016D000089500240A9412161306140605060895A8
:1016E000092E0394000C11F4882352F0BB0F40F430
:1016F000BF2B11F460FF04C06F5F7F4F8F4F9F4F70
:10170000089557FD9058440F551F59F05F3F71F0F1
:101710004795880F97FB991F61F09F3F79F0879558
:101720000895121613061406551FF2CF4695F1DFE1
:1017300008C0161617061806991FF1CF8695710571
:10174000610508940895E894BB2766277727CB01A5
:1017500097F908958ADF08F48FEF08950BD0C0CF72
:10176000B1DF28F0B6DF18F0952309F0A2CFA7CF9C
:101770001124EACFC6DFA0F3959FD1F3950F50E077
:10178000551F629FF001729FBB27F00DB11D639F33
:10179000AA27F00DB11DAA1F649F6627B00DA11DD9
:1017A000661F829F2227B00DA11D621F739FB00D7F
:1017B000A11D621F839FA00D611D221F749F3327EF
:1017C000A00D611D231F849F600D211D822F762F88
:1017D0006A2F11249F5750408AF0E1F088234AF085
:1017E000EE0FFF1FBB1F661F771F881F91505040D1
:1017F000A9F79E3F510570F05CCFA6CF5F3FECF399
:10180000983EDCF3869577956795B795F795E795BC
:101810009F5FC1F7FE2B880F911D9695879597F9CD
:101820000895629FD001739FF001829FE00DF11D2A
:10183000649FE00DF11D929FF00D839FF00D749F4A
:10184000F00D659FF00D9927729FB00DE11DF91FF6
:10185000639FB00DE11DF91FBD01CF011124089553
:1018600097FB092E07260AD077FD04D049D006D071
:1018700000201AF4709561957F4F0895F6F79095C2
:1018800081959F4F0895A1E21A2EAA1BBB1BFD0153
:101890000DC0AA1FBB1FEE1FFF1FA217B307E4074F
:1018A000F50720F0A21BB30BE40BF50B661F771FA7
:1018B000881F991F1A9469F7609570958095909587
:1018C0009B01AC01BD01CF01089597FB092E0526B0
:1018D0000ED057FD04D0D7DF0AD0001C38F4509545
:1018E0004095309521953F4F4F4F5F4F0895F6F744
:1018F00090958095709561957F4F8F4F9F4F08957C
:10190000AA1BBB1B51E107C0AA1FBB1FA617B70725
:1019100010F0A61BB70B881F991F5A95A9F7809541
:101920009095BC01CD010895EE0FFF1F0590F49135
:10193000E02D09942F923F924F925F926F927F9287
:101940008F929F92AF92BF92CF92DF92EF92FF92CF
:101950000F931F93CF93DF93CDB7DEB7CA1BDB0B7B
:101960000FB6F894DEBF0FBECDBF09942A88398820
:1019700048885F846E847D848C849B84AA84B98427
:10198000C884DF80EE80FD800C811B81AA81B98133
:10199000CE0FD11D0FB6F894DEBF0FBECDBFED0147
:0619A0000895F894FFCF4A
:1019A6005061757365203D200020202053686966CC
:1019B60074203D2000526561647921000100000019
:1019C60008000C000B000A640100000000DE06009F
:00000001FF
