:100000000C9403050C9420050C9420050C942005F9
:100010000C9420050C9420050C9420050C942005CC
:100020000C9420050C9420050C9420050C942005BC
:100030000C9420050C9420050C9420050C942005AC
:100040000C9451050C9420050C9420050C9420056B
:100050000C9422050C9420050C9420050C9420058A
:100060000C9420050C9420050C9420050C9420057C
:10007000E6110112F011A1128F12751270125912AD
:1000800033122E1029121512D011B6112E10A211F2
:1000900093112E107B112E1068115A1141112E1040
:1000A000351129111D1152105B108010DD109110B7
:1000B00014110B11FC10F3100508010000000000E2
:1000C000006F6F00000007000700147F147F14000A
:1000D000266B2A104333086463324D4936500000C2
:1000E000070000001C2241000041221C00110A1FD1
:1000F0000A1110107C10100000A0600010101010E9
:1001000010000060600040300806013E5149453E45
:1001100000427F4000426151494622414949360828
:100120000C0A7F0827454545393C4A494930016159
:100130001907013649494936064949291E00006C0C
:100140006C000000AC6C000814224100141414145C
:1001500014004122140802015109063E415D5D462A
:100160007C1211127C7F494949363E414141227F30
:100170004141413E7F494949417F090909013E41C9
:100180004151727F0808087F41417F414121413F31
:1001900001017F081422417F404040407F02040259
:1001A0007F7F0608307F3E4141413E7F09090906B5
:1001B0003E4141617E7F091929462649494932015C
:1001C000017F01013F4040403F1F2040201F3F4032
:1001D00030403F63140814630304780403615149F9
:1001E000454300007F410001060830400000417F88
:1001F000000402010204808080808001020400006B
:1002000020545454787F484444383844444428386F
:100210004444487F3854545418087E09010218A4F5
:10022000A4A4787F0808087000487A4000408080C5
:10023000887A7F1010284400417F40007C043804F5
:10024000787C040404783844444438FC242424187A
:10025000182424FC807C08040408485454542000CA
:10026000083C48203C4040407C0C3040300C1C6036
:1002700018601C44281028441CA0A0A07C4464548E
:100280004C4400083641412040FF4020414136089F
:100290000010081810080A100100000000000000FB
:1002A000000000000000000000000000000000004E
:1002B00000FFFF00000000000000000C0C00000028
:1002C0000000000F0F00000F0F00000000000000F2
:1002D00000000000008098D8FC9F99F8FF9F18014B
:1002E0000D0F01010F0701010000387C6CFFCCCC21
:1002F00080000000060C0C3F0C0F0700008E91518F
:10030000514EA0A090100000000000070808080748
:10031000000080EE3F73E3C306C0C00003070E0C6D
:100320000C0F0F0F09000000000F0F00000000006D
:10033000000000000000000000000000F0FE0F01BF
:10034000000000000000031F3C200000000000012E
:100350000FFEF0000000000000203C1F0300000022
:100360000000243C18FF183C24000000000000009E
:10037000000000000000C0C0C0F8F8C0C0C000000D
:10038000000000070700000000000000000000005F
:10039000000000000000203E1E0000000000008061
:1003A0008080808000000000000101010101000048
:1003B0000000000000000000000000000000000E2F
:1003C0000E0000000000000000E0F81E0701000021
:1003D000101C0F03000000000000F8FE0763630715
:1003E000FEFC000001070E0C0C0E070300000006C7
:1003F00003FFFF00000000000C0C0C0F0F0C0C0C96
:10040000000006030383C3633E1C00000C0E0F0DA7
:100410000C0C0C0C00000603636363E3FE9C0000FD
:10042000060C0C0C0C0C07070000C0E0B88C87FF12
:10043000FF80000001010101010F0F0100007F3F5B
:1004400033333373E3C00000060C0C0C0C0E0703AF
:100450000000F8FE67333373E6C0000003070E0C9C
:100460000C0E0703000003030383F37F1F07000044
:1004700000080E070100000000009CFE6363636338
:10048000FE9C000007070C0C0C0C070700003C7ECC
:10049000E7C3C367FEFC000000060C0C0C0E07014E
:1004A0000000000000707000000000000000000E5E
:1004B0000E0000000000000000707000000000004E
:1004C0000000203E1E0000000000C0C0E0203030D0
:1004D0001018000000000101030302060000303084
:1004E00030303030303000000303030303030303D4
:1004F00000001810303020E0C0C0000006020303E6
:100500000101000000000603C3E3333F0E000000BA
:1005100000000D0D0000000000F0F81CCEE6666E35
:10052000FCF800030F1C393333333B13000000E0A9
:10053000FE9F9FFEE00000000C0F070101070F0C5B
:100540000000FFFF63636363FE9E00000F0F0C0C4F
:100550000C0C0F070000F8FE06030303030600005F
:100560000107060C0C0C0C060000FFFF030303063A
:10057000FEF800000F0F0C0C0C0607010000FFFF37
:1005800063636363630300000F0F0C0C0C0C0C0C13
:100590000000FFFF63636363630300000F0F00004D
:1005A000000000000000F8FE0603C3C3C3C600003D
:1005B0000107060C0C0C0F070000FFFF6060606075
:1005C000FFFF00000F0F000000000F0F00000003EE
:1005D00003FFFF0303000000000C0C0F0F0C0C00C6
:1005E0000000000000030303FFFF0000060C0C0CDA
:1005F0000C0C07070000FFFF7078FE870301000066
:100600000F0F000001070F0C0000FFFF00000000AB
:10061000000000000F0F0C0C0C0C0C0C0000FFFF76
:100620001FF8F81FFFFF00000F0F000000000F0F62
:100630000000FFFF0F78E000FFFF00000F0F000039
:10064000010F0F0F0000F8FE07030307FEF800007C
:1006500001070E0C0C0E07010000FFFF63636363CC
:100660003E3E00000F0F0000000000000000F8FEFA
:1006700007030307FEF8000001070E0C0C1E3703EA
:100680000000FFFF6363E3E3FE1E00000F0F0000A6
:1006900000010F0F08001C3E736363E3C680000077
:1006A000060C0C0C0C0C07070000030303FFFF03F0
:1006B000030300000000000F0F0000000000FFFF18
:1006C00000000000FFFF000003070E0C0C0E0703E4
:1006D0000000037FFE8080FE7F03000000000F0FFC
:1006E0000F0F0000000FFFF000F8F800F0FF0F0000
:1006F0000F0F0F00000F0F0F000001079FFCFC9F62
:1007000007010000080E0F01010F0E080001071F6E
:100710003CF0F03C1F0701000000000F0F0000003C
:1007200000000303C3E37B3F0F0700000E0F0F0D14
:100730000C0C0C0C00000000FFFF01010000000089
:1007400000003F3F20200000000001071C70C00097
:10075000000000000000000001071C100000000164
:1007600001FFFF00000000000020203F3F000000CC
:1007700000080C0E0703070E0C0800000000000024
:1007800000000000000000000000000000000080E9
:1007900080808080808080808000000001030200D3
:1007A000000000000000000000000000000000B099
:1007B00098D8D8D8F8F00000070F0D0C0C060F0FD2
:1007C0000000FFFF30181838F0E000000F0F060C93
:1007D0000C0E07030000E0F038181818183000005D
:1007E00003070E0C0C0C0C060000E0F03818183053
:1007F000FFFF000003070E0C0C060F0F0000E0F0D7
:10080000D8D8D8D8F0E0000003070E0C0C0C0C066A
:1008100000001818FEFF1B1B1B00000000000F0F3C
:10082000000000000000E0F038181830F8F8000070
:1008300003376E6C6C667F3F0000FFFF301818189E
:10084000F8F000000F0F000000000F0F000000186C
:1008500018FBFB00000000000C0C0C0F0F0C0C0C24
:100860000000001818FBFB00000000006060607FC3
:100870003F0000000000FFFFC0F0B81808000000B3
:100880000F0F0001030F0C0800000303FFFF00001F
:10089000000000000000070F0C0C0C000000F8F82E
:1008A00018F8F018F8F000000F0F000F0F000F0FEE
:1008B0000000F8F830181818F8F000000F0F0000CA
:1008C00000000F0F0000E0F038181838F0E00000CA
:1008D00003070E0C0C0E07030000F8F83018183848
:1008E000F0E000007F7F060C0C0E07030000E0F034
:1008F00038181830F8F8000003070E0C0C067F7F3C
:10090000000000F8F830181818180000000F0F0049
:1009100000000000000070F8D8D8D8D89830000047
:10092000060C0C0C0C0D0F0700001818FEFE181812
:10093000180000000000070F0C0C0C000000F8F875
:1009400000000000F8F80000070F0C0C0C060F0F59
:10095000000018F8F00000F0F81800000000070F81
:100960000F0700000038F88000E0E00080F8380051
:10097000030F0F01010F0F030000081878E0E07863
:1009800018080000080C0F03030F0C08000008787B
:10099000F8C080F8F81800000060617F1F070000B1
:1009A000000018181898D878381800000C0E0F0D91
:1009B0000C0C0C0C00000080807E7F010100000008
:1009C0000000003F7F4040000010181C1EFFFF1E6B
:1009D0001C181000000000FFFF00000000000001D4
:1009E000017F7E80800000000040407F3F000000CB
:1009F0000000C0606060C0C0C06000000000000077
:100A000000000000000011241FBECFEFD0E1DEBFC8
:100A1000CDBF1BE0A0E0B1E0ECE9FAE202C0059036
:100A20000D92A636B107D9F71DE0A6E6BBE001C0DE
:100A30001D92AF38B107E1F70E94EF0D0C944C15F1
:100A40000C9400001F920F920FB60F9211248F93F7
:100A50009F93EF93FF93F8948091660B9091C6005B
:100A6000E82FF0E0E357F44F90838F5F8093660B9D
:100A70008091660B8091690B8F5F8093690B8091E9
:100A8000690B813C20F0179881E080936A0B789481
:100A9000FF91EF919F918F910F900FBE0F901F903C
:100AA00018951F920F920FB60F9211248F939F9358
:100AB00015BC10926E0082E085BB16BC03990FC076
:100AC000139A8091390187BD82E080936E0085BDC5
:100AD0009F918F910F900FBE0F901F9018951398B4
:100AE00084E690913901891B87BDEECF14B817B801
:100AF00080EF82B981B98EEF8AB980E28BB982E04A
:100B00008093B10084BD80936E008091390187BDD0
:100B10000895882371F49FEFB89A9093B200B89B20
:100B2000FECF882329F0B89A9093B200B89BFECFED
:100B30000895982F9195F0CFCF93DF93EC01009714
:100B400071F08AEF0E9489058AEF0E9489058AEF79
:100B50000E9489058AEF0E948905219791F7DF910C
:100B6000CF9108959093C5008093C40082E0809354
:100B7000C00088E98093C10086E08093C200789429
:100B800008958091690B8823E1F38091670B909120
:100B9000680BFC01E357F44FE08101969093680BDA
:100BA0008093670B8F3F910529F020F01092680B1E
:100BB0001092670BF8948091690B81508093690BB8
:100BC000789480916A0B813011F08E2F0895809176
:100BD000690B8034D0F7179A10926A0BF6CF982FD2
:100BE0008091C00085FFFCCF9093C600089580E0FF
:100BF00000008F5F8632E1F70895982F8FEF87B955
:100C0000613011F16230E9F080EE8BB998B980E083
:100C100000008F5F8632E1F75A9A80E000008F5F14
:100C20008632E1F75A9880E000008F5F8632E1F764
:100C300080E28BB980E000008F5F8632E1F717B861
:100C4000089580E68BB9E2CF80EA8BB9DFCF982F89
:100C50008FEF87B9613011F16230E9F088EE8BB91E
:100C600098B980E000008F5F8632E1F75A9A80E001
:100C700000008F5F8632E1F75A9880E000008F5FB6
:100C80008632E1F780E28BB980E000008F5F863228
:100C9000E1F717B8089588E68BB9E2CF88EA8BB9F7
:100CA000DFCFCF92DF92FF920F931F93DF93CF930B
:100CB0000F92CDB7DEB7082F862F142F6901886BEE
:100CC00060E00E94FD05003408F049C081E089839E
:100CD00040E4401B411708F43EC0FF24802F80648D
:100CE00060E00E94FD058FEF87B9F981F13009F4CA
:100CF00068C088E68BB91123D9F04C2DC601FC01E0
:100D0000808188B980E000008F5F8632E1F75A9ACF
:100D100080E000008F5F8632E1F75A9880E00000A3
:100D20008F5F8632E1F731968E2F841B811740F357
:100D300080E28BB980E000008F5F8632E1F7FF2010
:100D400091F417B80F90CF91DF911F910F91FF9001
:100D5000DF90CF900895F12EF41A142FBFCF0054D6
:100D6000E2E0E983B5CF80E460E00E94FD058FEF0B
:100D700087B98981813041F188EA8BB990E0F60129
:100D8000E10FF11D808188B91F5F80E000008F5F57
:100D90008632E1F75A9A80E000008F5F8632E1F7F1
:100DA0005A9880E000008F5F8632E1F79F5F9F15C1
:100DB00030F380E28BB980E000008F5F8632E1F78C
:100DC000C0CF88EA8BB997CF88E68BB990E0D7CFB0
:100DD000813021F188E78BB95A9A80E000008F5F5B
:100DE0008632E1F75A9880E000008F5F8632E1F7A3
:100DF0005A9A80E000008F5F8632E1F796B15A98E8
:100E000080E000008F5F8632E1F780E28BB980E0FE
:100E100000008F5F8632E1F7892F089588EB8BB948
:100E2000DBCFCF92DF92FF920F931F93DF93CF938D
:100E30000F92CDB7DEB7082F862F142F6901886B6C
:100E400060E00E94FD05003408F058C081E089830D
:100E500040E4401B411708F442C0FF24802F806407
:100E600060E00E94FD05F981F13009F444C088E793
:100E70008BB95A9A80E000008F5F8632E1F75A986A
:100E800080E000008F5F8632E1F71123B1F04C2D36
:100E9000C601FC015A9A80E000008F5F8632E1F7BC
:100EA00086B180835A9880E000008F5F8632E1F738
:100EB00031968E2F841B811768F380E28BB980E016
:100EC00000008F5F8632E1F7FF20E1F40F90CF91B1
:100ED000DF911F910F91FF90DF90CF900895F12E39
:100EE000F41A142F802F806460E00E94FD05F981C0
:100EF000F13009F0BCCF88EB8BB9BBCF0054E2E0F6
:100F0000E983A6CF80E460E00E94FD0589818130FD
:100F100069F188EB8BB95A9A80E000008F5F8632C6
:100F2000E1F75A9880E000008F5F8632E1F790E0A9
:100F3000292F210F5A9A80E000008F5F8632E1F757
:100F400086B1F601E20FF11D80835A9880E000001F
:100F50008F5F8632E1F79F5F9F1550F380E28BB978
:100F600080E000008F5F8632E1F7B0CF88E78BB971
:100F7000D2CFEF92FF920F931F938823D9F510E001
:100F80000FEF98EEF92E80E2E82E812F886B60E05B
:100F90000E94FD0580E460E00E94FD0507B9809194
:100FA0006B0B813029F118B8FBB890E080E00000AD
:100FB0008F5F8632E1F75A9A80E000008F5F8632B9
:100FC000E1F75A9880E000008F5F8632E1F79F5F7B
:100FD000903461F7EBB817B81092710B1092720B46
:100FE0001F5F183091F61F910F91FF90EF900895B9
:100FF00008B9DACF10E080E0612F40E82EE83CE04D
:101000000E94110790E0E92FF0E0E257F34F808152
:10101000809580839F5F9038B1F780E0612F40E832
:101020002EE83CE00E9451061F5F183021F7DBCF0D
:101030002F923F924F925F926F927F928F929F92E8
:10104000AF92BF92CF92DF92EF92FF920F931F93D6
:10105000DF93CF93CDB7DEB72E970FB6F894DEBFF0
:101060000FBECDBF8887342EA22EB02E8701822FCF
:101070008150803438F1222361F010E0332031F0C8
:1010800000E00E94C1050F5F0315D8F31F5F1A151A
:10109000A8F32E960FB6F894DEBF0FBECDBFCF914A
:1010A000DF911F910F91FF90EF90DF90CF90BF9055
:1010B000AF909F908F907F906F905F904F903F90F8
:1010C0002F900895842F815087FD63C1862F8770EC
:1010D00058E0252E281A30E0C82EDD240894C108D7
:1010E000D108C601820F931F0894C11CD11C97FD23
:1010F00060C1959587959595879595958795482F86
:101100004F5F4C83A694A694A694AB82C9018770C6
:101110009070892B19F08A2D8F5F8B834FEF50E0F1
:10112000CA010C2C02C0880F991F0A94E2F78E8323
:10113000260F311D277030702115310509F01EC1B1
:101140009FEF9D83832D90E0EE24FF24E81AF90A97
:1011500066956695669569831C861B86662477244A
:101160008B2C9924A1E08A229924BC814B2E5524F2
:10117000089441085108ED81E095E987FE81F095DA
:10118000FA87A62C2981260D2F838885622F432D6F
:101190002EE83CE00E941107332009F4E0C06EE025
:1011A0007DE040E050E020C0BE812B23F3E0FB1542
:1011B00008F44EC032E0B31608F46DC0FA01E257ED
:1011C000F34F8081282B20838114910431F0B5E006
:1011D000BB1518F08081809580834F5F5F4F6F5FF4
:1011E0007F4F431508F0BBC00115110509F461C01C
:1011F000F801EE0DFF1D208130E0022C02C0359574
:1012000027950A94E2F7EB85FC85E00FF11F8081BA
:1012100090E00C2C02C0880F991F0A94E2F7282B4B
:101220008B859C8501969C878B870894E11CF11C1B
:10123000F6E0BF16F1F0AA2009F4B6CF64147504E5
:1012400009F0B4CFED812E23F3E0FB1508F0B2CF07
:1012500085E08B1538F5AA2009F071C0FA01E25734
:10126000F34F80819A85892380838081282B208376
:10127000ABCFD8018C9190E09C01022C02C0359537
:1012800027950A94E2F70C2C02C0880F991F0A9444
:10129000E2F7282BD0CFFA01E257F34F80812823C1
:1012A000208392CFFA01E257F34F808128272083D1
:1012B0008BCF9B81A916A8F0EA812E2F30E00C2C51
:1012C00002C0220F331F0A94E2F7DB018C9190E0F9
:1012D000022C02C0959587950A94E2F7282BEC938F
:1012E000A7CF8091690B8823E1F38091670B9091E0
:1012F000680BDC01A357B44FBC91BA83019690935D
:10130000680B8093670B8F3F910529F020F01092B6
:10131000680B1092670BF8948091690B8150809351
:10132000690B789480916A0B813031F68091690B5A
:10133000803408F0C1CF179A10926A0BBDCF6414A5
:10134000750429F0FA01E257F34F10828ECFFA01AB
:10135000E257F34F8081A9858A23808386CF8885D1
:101360006F81432D2EE83CE00E9451060894611CD9
:10137000711CEC816E1608F404CF8BCE88E090E0EF
:10138000821B930B02C0559547958A95E2F74D83D2
:10139000D9CE222309F47DCE00E0332031F010E0D5
:1013A0000E94C1051F5F1315D8F30F5F0A15A8F33C
:1013B00070CE07969ECEEF92FF920F939091830B83
:1013C000492F50E090E08097849F9001859F300DD9
:1013D000949F300D11242D5F3F4F8091730B882314
:1013E00009F064C080916B0B813009F4A3C0C9017E
:1013F000840F951F281739079CF428543F4F40E865
:10140000BC0168547F4FF9018491E42FF0E0E2576A
:10141000F34F80834F5F2F5F3F4F2617370799F7B2
:101420008091710B6091720B40918D0C2091840B17
:101430000091630B7EE0E72E7DE0F72E0E941808F6
:1014400020918D0C30918E0D832F820F9091710B16
:10145000890F8093710B482F50E0622F70E0630F6B
:10146000711DCA01860F971F80389105DCF0CA01F3
:101470000E9403158093710B7091720B6091840B25
:10148000862F90E0472F50E022273327281B390B67
:10149000281B390B205C3F4F2417350734F1670FA9
:1014A0006093720B0F91FF90EF90089580916B0BFA
:1014B000813021F1C901840F951F281739070CF0DD
:1014C000AFCF2A563D4F40E8BC016A567D4FF90127
:1014D0008491E42FF0E0E257F34F80834F5F2F5F5A
:1014E0003F4F2617370799F79BCF872F0E94F71496
:1014F0009093720B0F91FF90EF900895C901840FA4
:10150000951F281739070CF08BCF2A563D4F40E81E
:10151000BC016A567D4FF9018491E42FF0E0E25757
:10152000F34F809580834F5F2F5F3F4F261737071C
:1015300091F776CFC901840F951F281739070CF052
:101540006FCF28543F4F40E8BC0168547F4FF901EA
:101550008491E42FF0E0E257F34F809580834F5F52
:101560002F5F3F4F2617370791F75ACF1F93162F3C
:10157000806460E00E94FD05812F0E94E8061F91B3
:101580000895EF92FF920F931F93F82E67FD52C0BC
:10159000403408F04FC05FE3541B80916B0B8130E7
:1015A00009F458C0603408F04AC081E080937F0B92
:1015B00060937E0B952F96959695969587E0891B5F
:1015C0008093800B27E030E0B901651B7109AB0106
:1015D000281B3109220F331F220F331F220F331F05
:1015E000420F531F21E030E002C0220F331F4A9503
:1015F000E2F7122F20937D0B886B60E00E94FD05BF
:1016000000917E0BE0907F0B802F6E2D0E94B60A1A
:1016100080937C0BFF20D1F41095182310937D0B41
:10162000802F806460E00E94FD0580917D0B6E2D0F
:101630000E9427061F910F91FF90EF90089582E07E
:1016400080937F0B605460937E0BB4CF182B109364
:101650007D0BE6CFF826A6CF4F925F926F927F92D6
:101660008F929F92AF92BF92CF92DF92EF92FF92B2
:101670000F931F93CF93DF93482EA42F722F402FE9
:1016800050E0EA2FF0E0E22EFF24A62EBB245524E2
:101690009A012E1B3F0B37FD80C0C7018A199B0999
:1016A00097FD83C08217930774F4552453948A2FAF
:1016B000A62F682F802F072F782FCF01F5015C010F
:1016C000CA01A7017C01761708F454C0C70175014F
:1016D0005C01CA01AF01FC016F01C41AD50AD7FC35
:1016E00051C0A01708F455C066246A94762CAE1435
:1016F000BF047CF145018E189F08C40197FC59C0B6
:10170000EC01D595C7958A010FC0842D602F4E2D11
:101710000E94C10ACC19DD09D7FD11C00894E11C53
:10172000F11CAE14BF04ACF0552079F7842D6E2D5A
:10173000402F0E94C10ACC19DD09D7FFEFCF060D5B
:10174000171DC80DD91D0894E11CF11CAE14BF046F
:101750005CF7DF91CF911F910F91FF90EF90DF9099
:10176000CF90BF90AF909F908F907F906F905F9041
:101770004F900895802F0A2FA82F6F01C41AD50A01
:10178000D7FEAFCFD094C194D108D394A01708F05E
:10179000ABCFA1E06A2E712CAACF309521953F4F97
:1017A000C7018A199B0997FF7DCF909581959F4F1F
:1017B00079CF0196A5CF2F923F924F925F926F9271
:1017C0007F928F929F92AF92BF92CF92DF92EF92D1
:1017D000FF920F931F93CF93DF93C82E462E542E64
:1017E0007901422F450D0E94C10A452D4E198C2DBD
:1017F000642D0E94C10A6E2D640D8C2D452D0E9412
:10180000C10A642D6E198C2D452D0E94C10A1E142B
:101810001F040CF063C0C1E0D0E0CE19DF09C7019E
:10182000880F991F22243324281A390A4701B1E06E
:101830006B2E712CAA24BB2406C082E090E0680EB7
:10184000791EC60DD71DD7FD09C0089481089108DF
:1018500082E090E0280E391EC20DD31D0894A11C11
:10186000B11CDA2CD40C182D150D8C2D6D2D412F9B
:101870000E94C10AE42CEA188C2D6E2D412F0E9483
:10188000C10A152D18198C2D6D2D412F0E94C10AEA
:101890008C2D6E2D412F0E94C10AE82CE40C1A2DCC
:1018A000150D8C2D6E2D412F0E94C10A942D981973
:1018B000092F8C2D692F412F0E94C10A152D1A194D
:1018C0008C2D6E2D412F0E94C10A8C2D602F412F2F
:1018D0000E94C10AA814B9040CF4AFCFDF91CF91D4
:1018E0001F910F91FF90EF90DF90CF90BF90AF903E
:1018F0009F908F907F906F905F904F903F902F9030
:101900000895F999FECF92BD81BD60BDFA9AF99A0A
:101910000895F999FECF92BD81BDF89A80B50895DA
:1019200022E024BD909139019436A0F4992369F006
:1019300015BC10926E0084E6891B87BD20936E0053
:1019400025BD8FB780688FBF089515BC10926E00BB
:101950001398089515BC10926E00139A0895EF9293
:10196000FF920F93DF93CF930F92CDB7DEB7522F35
:101970004817A0F5242F30E090E0821B930B909342
:101980007B0B80937A0B3093770B2093760B561753
:10199000A8F1262F30E0852F90E0821B930B9093C7
:1019A000790B8093780B3093750B2093740B809197
:1019B000760B6091740B40917A0B2091780B098320
:1019C00006E07E010894E11CF11C0E9418080F90AB
:1019D000CF91DF910F91FF90EF900895282F30E085
:1019E000842F90E0821B930B90937B0B80937A0B58
:1019F0003093770B2093760B561758F6252F30E04F
:101A0000862F90E0821B930B9093790B8093780B39
:101A10003093750B2093740BCACF0F933091710BD9
:101A200040918D0C431750F1242F20952058642F9E
:101A300070E06F5F7F4F80E890E0831B91090E9408
:101A40000315281B2093710B5091720B3091840B5E
:101A5000531760F5232F2195205C80E490E0851BCF
:101A60009109632F70E00E940315281B2093720BCD
:101A700080916B0B813069F40FEF0CC0842F80953F
:101A8000830F8093710B3091840B80916B0B8130AD
:101A900099F300E08091710B6091720B480F360F43
:101AA0003150232F0E94AF0C0F910895531B509378
:101AB000720BEBCFDF92EF92FF920F931F93F82EF2
:101AC000D62EE42E122F81E0642F422F2E2D0D2DC5
:101AD0000E942C0B81E06F2D412F2E2D012F0E9493
:101AE0002C0B81E06F2D412F2F2D0D2D0E942C0BE3
:101AF00081E06F2D4D2D2E2D0E942C0B1F910F91EB
:101B0000FF90EF90DF900895EF92FF920F93022FD6
:101B100092E8499FA0011124EBE3F1E0DF01A40F5B
:101B2000B51F4E5F5F4FE40FF51F4C9111962C913E
:101B30007F010E9418080F91FF90EF900895813067
:101B4000A9F08230C1F08330D9F08430F1F08530D3
:101B500041F0863009F0089584E190E00E94B205DA
:101B600008958AE290E00E94B205089587E092E02D
:101B70000E94B205089583E091E00E94B2050895A5
:101B800081E890E00E94B205089580E490E00E9410
:101B9000B20508951BB88CE390E00E949C0580E29A
:101BA0008BB98CE390E00E949C0580E00E94B9070D
:101BB0008FE360E00E94FD0588EB60E00E94FD0578
:101BC00080E460E00E94FD0580EC60E00E94FD057D
:101BD0001092710B88EB60E00E94FD0508952F9232
:101BE0003F924F925F926F927F928F929F92AF92AD
:101BF000BF92CF92DF92EF92FF920F931F93DF93EA
:101C0000CF93CDB7DEB72E970FB6F894DEBF0FBED9
:101C1000CDBF0E94760586E00E949F0D8FEE95E075
:101C20000E947513179A8AE08093390186E08093A9
:101C3000370181E08093380110926B0B10926C0B8E
:101C40008093640BE8EBF0E0849180938D0C7F012E
:101C50000894E11CF11CF70184918093840B08EB3C
:101C600010E00E5F1F4FF801249120938E0D282F56
:101C70002695269526952093830B90E0877090708B
:101C8000892B19F02F5F2093830B8091830B909108
:101C90008D0C899F802D11248093830B0E94CA0D87
:101CA000809139010E94900C84EF91E00E949C0584
:101CB00080913801813009F40CC5F8941092660BBC
:101CC0001092680B1092670B1092690B789488EE53
:101CD00093E00E949C0580E00E94B9078091660B0A
:101CE000882309F4FDC481E30E94DB0981E30E949B
:101CF000DB0985E30E94DB0982E30E94DB0980E3C4
:101D00000E94DB0980E30E94DB0986E080933701B3
:101D10000E949F0DF89480E090E066E00E94810CA4
:101D2000789488EE93E00E949C0580E00E94B907B9
:101D3000F8941092680B1092670B1092660B109239
:101D4000690B7894E0E0AE2EE1E0BE2EE6E9F2E029
:101D5000CF01029674E1872E71E0972E68E1662E1E
:101D600061E0762E5AE0C52E4DE0542E3FE7432E1B
:101D70002FE9322E22242394249129833196A49191
:101D8000AA83FC01F491FB83A695A695A695AC8346
:101D90009A81892F90E0877090709E838D83AF5FCA
:101DA000AF83E8EBF0E0F491F887F701F491F9875D
:101DB000F801F491FA8729852695269526952B8793
:101DC0009985892F90E0877090709D878C872F5F11
:101DD0002E878091690B882309F068C020B183B1F8
:101DE000982F80FF7CC01092850B8091700B8E7FA6
:101DF0008093700B91FF82C01092860B8091700BC4
:101E00008D7F8093700B92FF88C01092870B80911A
:101E1000700B8B7F8093700B93FF8EC01092880B9A
:101E20008091700B877F8093700B94FF94C0109209
:101E3000890B8091700B8F7E8093700B922F20FF07
:101E40009AC010928A0B8091700B8F7D8093700BDB
:101E500091FFA0C010928B0B8091700B8F7B8093B1
:101E6000700B92FFA6C010928C0B8091700B8F7735
:101E70008093700B90916F0B9F5F90936F0B80918D
:101E80003A01981708F0AEC0169880916D0B98171C
:101E900008F0A6C0149880916E0B981708F09EC0A9
:101EA00015988091690B882309F498CF0E94C10589
:101EB000982F8A3009F4ABC38B3008F095C0883076
:101EC00009F496C380916C0B823009F480C0892F8D
:101ED0000E94DB0920B183B1982F80FD84CF8091CF
:101EE000850B8F5F8093850B882309F083CF8091CA
:101EF000700B81608093700B91FD7ECF8091860B7B
:101F00008F5F8093860B882309F07DCF8091700BC3
:101F100082608093700B92FD78CF8091870B8F5FEA
:101F20008093870B882309F077CF8091700B8460B2
:101F30008093700B93FD72CF8091880B8F5F80939D
:101F4000880B882309F071CF8091700B8860809393
:101F5000700B94FD6CCF8091890B8F5F8093890B00
:101F6000882309F06BCF8091700B80618093700B98
:101F7000922F20FD66CF80918A0B8F5F80938A0B12
:101F8000882309F065CF8091700B80628093700B7D
:101F900091FD60CF80918B0B8F5F80938B0B88239B
:101FA00009F05FCF8091700B80648093700B92FD7D
:101FB0005ACF80918C0B8F5F80938C0B882309F014
:101FC00059CF8091700B80688093700B53CF8091B4
:101FD000C00085FFFCCF9093C60079CF159AF9CE4B
:101FE000149A59CF169A51CF8D3009F4C0C28C374C
:101FF00009F068CF0E94C105182F20916C0B213089
:1020000011F1223099F400D000D0EDB7FEB731962F
:10201000ADB7BEB71296BC92AE921197828313826F
:102020000E948F130F900F900F900F90E12FF0E010
:10203000E432F10598F4E85CFF4FEE0FFF1F0590C6
:10204000F491E02D09948091C00085FFFCCF10939E
:10205000C600E12FF0E0E432F10568F320916C0B4B
:102060002130C9F0223009F0B9CE8091690B00D03F
:1020700000D0EDB7FEB73196ADB7BEB712967C92E1
:102080006E921197828313820E948F130F900F908C
:102090000F900F90A3CE8091C00085FFFCCF1092CF
:1020A000C6009CCE0E94C105182F0E94C105682F52
:1020B000812F0E9427060E94C105D82E0E94C105CB
:1020C000E82E0E94C105F82EB0E8B81708F0CBC280
:1020D00080E8F82E00E010E00E94C105F801E25708
:1020E000F34F80830F5F1F4F0F15B0F38D2D6E2DB3
:1020F0004F2D2EE83CE00E94510620916C0BB0CF92
:102100000E94C1050E94E806982F20916C0B223096
:1021100009F4ADC28091C00085FFFCCF9093C6004A
:102120009FCF0E94C105F82E0E94C105082F0E9472
:10213000C105182F813808F010E88F2D602F412F2E
:102140002EE83CE00E941107112309F487CF0EE826
:10215000E02E0CE0F02E20916C0B1150012F10E0BE
:102160000157134F223089F0F70190818091C00010
:1021700085FFFCCF9093C6000894E11CF11CE0168B
:10218000F10609F46DCF223079F700D000D0EDB719
:10219000FEB73196ADB7BEB712969C928E9211974C
:1021A000D7018C91828313820E948F130F900F901E
:1021B0000F900F9020916C0BDFCF0E94C105182F5C
:1021C0000E94C105682F812F0E94B60A982F209186
:1021D0006C0B223009F44BC28091C00085FFFCCF0C
:1021E0009093C6003DCF9091700B8091C00085FF09
:1021F000FCCF9093C60032CF0E94C10580933A0174
:102200000E94C10580936D0B0E94C10580936E0BE7
:1022100020916C0B25CF0E94C105886B60E00E9465
:10222000FD0520916C0B1CCF0E94C105806460E00D
:102230000E94FD0520916C0B13CF0E94C105182F41
:102240000E94C105682F812F0E94FD0520916C0B13
:1022500007CF0E94C1058093720B88230CF0FECE3D
:102260004092720B20916C0BFBCE0E94C1058093B3
:10227000710B803A08F4F2CE3092710B20916C0B06
:10228000EFCE0E94C105F82E0E94C105E82E0E94E3
:10229000C105082F0E94C105182F0E94C105282FD3
:1022A0008F2D6E2D412FEE24FF240E9418082091BF
:1022B0006C0BD6CE60913801622560933801F8949A
:1022C00082E090E00E94810C789420916C0BC8CE43
:1022D00080916B0B822580936B0B81E00E94B90784
:1022E000F89483E090E060916B0B0E94810C7894ED
:1022F00020916C0BB5CE0E94C105182F0E94C1051C
:10230000F82E0E94C105E82E0E94C105D82E0E9419
:10231000C105082F812F6F2D4E2D2D2D0E94AF0C42
:1023200020916C0B9DCE0E94C105082F0E94C10513
:10233000182F0E94C105602F412F0E94C10A2091D1
:102340006C0B8ECE0E94C105082F0E94C105F82E8D
:102350000E94C105182F0E94C105282F802F6F2DC4
:10236000412F0E945A0D20916C0B7ACE0E94C1051C
:10237000843108F083E1A2E88A9F70011124EBE325
:10238000F1E0EE0EFF1E00E010E00E94C105D70153
:102390008D937D010F5F1F4F02381105B1F75ECE9F
:1023A0000E94C105182F0E94C105F82E0E94C10588
:1023B000E82E0E94C105082F0E94C105612F4F2DF4
:1023C0002E2D0E942C0B20916C0B4ACE80E00E9497
:1023D000B9071092710B1092720B20916C0B40CECA
:1023E0000E94C105809339010E94900CF89481E00D
:1023F00090E0609139010E94810C789420916C0BDF
:102400002FCE0E94C10580936C0B833018F082E0C0
:1024100080936C0BF89484E090E060916C0B0E94C8
:10242000810C789420916C0B1BCE0E94C105082F63
:102430000E94C105F82E0E94C105182F0E94C105F7
:10244000282F802F6F2D412F0E94840D20916C0B1F
:1024500007CE0E94C105883008F087E08093630BA7
:1024600020916C0BFDCD8091730B813009F415C167
:102470002092730BA981A0938D0CBA81B093840B29
:10248000EB81E0938E0DFC81F093830B8D819E8117
:10249000892B19F09F819093830B8091830B9091EE
:1024A0008D0C899F802D11248093830B20916C0BC0
:1024B000D7CD0E94C105982F8150863010F490939B
:1024C0003701809137010E949F0DF89480E090E0E1
:1024D000609137010E94810C789420916C0BC0CDE3
:1024E0000E94CA0D20916C0BBBCD0E94C105E82E45
:1024F0000E94C105F82E0E94C105182F0E94C10537
:10250000282F80916B0B813009F4DEC000E08E2D06
:102510006F2D412F0E94AF0C20916C0BA1CD8091AB
:10252000640B813009F4D2C02092640BF89485E0EA
:1025300090E06091640B0E94810C789420916C0B68
:102540008FCD0E94C105182F0E94C105082F0E943F
:10255000C105F82E0E94C105612F70E0402F50E0A8
:102560002F2D30E00E94DB0B20916C0B79CD8091F8
:102570008E0D60918D0C70E0680F711D8091710B54
:1025800090E00E9403158093710B90916C0B923038
:1025900009F18091640B813009F020CC923009F16F
:1025A0007091720B6091840B862F90E0472F50E062
:1025B00022273327281B390B281B390B205C3F4F60
:1025C000241735070CF04BC0872F0E94F714909307
:1025D000720B04CC8091C00085FFFCCF5092C600E6
:1025E000D8CF8091C00085FFFCCFC092C600D8CF65
:1025F0000E940D0D80916C0B823009F0EFCB809121
:10260000C00085FFFCCF88E08093C600E7CB7091C7
:10261000720B6091840B862F90E0472F50E02227A9
:102620003327281B390B281B390B205C3F4F2417FD
:1026300035078CF4872F0E94F7149093720B8091CA
:102640006C0B823009F0CACB8091C00085FFFCCFB3
:10265000C092C600C3CB670F6093720BF0CF670FB9
:102660006093720BBBCB882309F034CD3FCD00D0F3
:1026700000D0EDB7FEB73196ADB7BEB712969C92BB
:102680008E921197928313820E948F130F900F9056
:102690000F900F9020916C0BE3CC1092730BB885C8
:1026A000B0938D0CE985E093840BFA85F0938E0D41
:1026B0002B852093830B8C859D85892B09F4EDCE8A
:1026C0009E859093830BE9CE0FEF21CF1092640B80
:1026D0002DCF88E368E140E024E00E94840DEDCA3C
:1026E000809137010E949F0D1CCB9093820B8093A9
:1026F000810B08951F93182F8A3049F0E091810BC8
:10270000F091820B812F90E009951F910895E0913F
:10271000810BF091820B8DE090E00995EFCF2F9225
:102720003F924F925F926F927F928F929F92AF9261
:10273000BF92CF92DF92EF92FF920F931F93DF939E
:10274000CF93CDB7DEB72D970FB6F894DEBF0FBE8F
:10275000CDBF8E010E5D1F4FF801219031908F018A
:10276000F10181911F01853261F0882309F4B3C022
:102770000E947A1328018201F10181911F018532A3
:10278000A1F791911F01903309F49AC0903209F496
:1027900097C0892F66241D868C3641F18C3431F127
:1027A00090E0883549F1893568F4893409F4B4C07A
:1027B0008A3408F001C1833471F0843409F4ACC068
:1027C000280110C0893609F4A7C08A3608F0D5C0A0
:1027D000833609F09EC0F2E04F2E512C400E511E60
:1027E000F80180810E947A138201C6CFF1018191A4
:1027F0001F0191E08835B9F6A0E18A2E912CA12C19
:10280000B12C992309F4E5C044E0442E512C400E2C
:10281000511EF801C080D180E280F3808E01045FF8
:102820001F4F1C86C701B601A50194010E94161511
:1028300020E3722E760EF9E3F71518F497E3792E5C
:10284000760EF80172928F01C701B601A5019401BD
:102850000E941615C901DA016C017D01FD85FF2377
:1028600011F0F150FD870097A105B105D9F6A80137
:102870002D85222309F4B9C08D858150282F30E0A1
:1028800001501040C801821B930B0F5F1F4FF801CE
:1028900062928F01E817F907D1F789010095109529
:1028A000040F151F662009F466CF862D0E947A1347
:1028B0000F5F1F4FF80160806620B9F782015CCF7F
:1028C000F10181911F01F82FF053FD87FA30E0F0FC
:1028D000692E1D8661CF2D960FB6F894DEBF0FBE10
:1028E000CDBFCF91DF911F910F91FF90EF90DF90BF
:1028F000CF90BF90AF909F908F907F906F905F90A0
:102900004F903F902F900895F10181911F01692E02
:1029100043CF843609F054CF9923B9F462E0462EB0
:10292000512C400E511EF801808191817C010027BD
:10293000F7FC0095102F17FD14C0670178015AE0CD
:10294000852E912CA12CB12C69CF74E0472E512CEF
:10295000400E511EF801E080F1800281138117FFC3
:10296000ECCF10950095F094E094E11CF11C011D52
:10297000111D8DE20E947A13E0CF853711F188375F
:1029800009F43ACF833709F01BCFE2E04E2E512CE9
:10299000400E511EF80100811181F80180818823C9
:1029A00009F4E9CE0E947A130F5F1F4FF80180816E
:1029B0008823C1F78201E0CE833539F3853509F0EC
:1029C000FFCE8AE0882E912CA12CB12C992309F0FE
:1029D0001BCF32E0432E512C400E511EF801808156
:1029E00091816C01EE24FF2419CF672C5BCF991BDA
:1029F00079E004C0991F961708F0961B881F7A95F6
:102A0000C9F78095089597FB092E07260AD077FD10
:102A100004D02ED006D000201AF4709561957F4F17
:102A20000895F6F7909581959F4F0895A1E21A2E8B
:102A3000AA1BBB1BFD010DC0AA1FBB1FEE1FFF1F62
:102A4000A217B307E407F50720F0A21BB30BE40BB2
:102A5000F50B661F771F881F991F1A9469F76095F9
:102A60007095809590959B01AC01BD01CF010895B3
:102A7000AA1BBB1B51E107C0AA1FBB1FA617B707A4
:102A800010F0A61BB70B881F991F5A95A9F78095C0
:0C2A90009095BC01CD010895F894FFCF93
:102A9C00456E746572656420436F6D6D616E642064
:102AAC0025640A0025640A0045786974656420432E
:102ABC006F6D6D616E642C2052585F627566666531
:102ACC00723D25640A0A00060114320A1080C040C7
:102ADC000C3EFEF2E0F0E0FF7F3F1F1F1F1F0F07B1
:102AEC0003000000000000000000000000000000D7
:102AFC0000000000000000000000000000000000CA
:102B0C0000000000000000000000000000000000B9
:102B1C0000000000000000000000000000000000A9
:102B2C000000000000000000000000000000000099
:0634FC00000000070100C2
:00000001FF
