:100000000C9435000C945D000C945D000C945D0024
:100010000C945D000C945D000C945D000C945D00EC
:100020000C945D000C945D000C945D000C945D00DC
:100030000C945D000C945D000C945D000C945D00CC
:100040000C9411020C945D000C94B4020C945D00AD
:100050000C945D000C945D000C945D000C945D00AC
:100060000C945D000C945D00FD0311241FBECFEFC6
:10007000D8E0DEBFCDBF11E0A0E0B1E0ECE3FEE0F0
:1000800002C005900D92AC32B107D9F711E0ACE295
:10009000B1E001C01D92A83EB107E1F710E0CAE649
:1000A000D0E004C02297FE010E941807C836D1078D
:1000B000C9F70E940A020C941C070C94000080E00F
:1000C0000E94960290932D0180932C0181E00E9462
:1000D000960290932F0180932E0182E00E94960257
:1000E000909331018093300183E00E9496029093B7
:1000F00033018093320184E00E949602909335018F
:10010000809334014091360150913701E0912C01E8
:10011000F0912D012091420130914301CF01821BCA
:10012000930B481759078CF128C1609138017091E1
:10013000390120912E0130912F01409144015091BD
:100140004501C901841B950B68177907F4F00EC1AE
:1001500060913A0170913B01209130013091310161
:100160004091460150914701C901841B950B6817C6
:1001700079075CF0F4C080914001909141010196B3
:1001800090934101809340010895BF01882777FD36
:100190008095982F0E94070620E030E048E453E461
:1001A0000E946C050E94D405709343016093420144
:1001B00060912E0170912F01882777FD8095982FEF
:1001C0000E94070620E030E048E453E40E946C05FA
:1001D0000E94D40570934501609344016091300101
:1001E00070913101882777FD8095982F0E9407062E
:1001F00020E030E048EC52E40E946C050E94D405F7
:10020000709347016093460185ED91E060E071E0F5
:100210000E946E0440912C0150912D01662757FDDC
:100220006095762F85ED91E02AE030E00E94570539
:1002300085ED91E06AE171E00E946E0440912E012B
:1002400050912F01662757FD6095762F85ED91E03F
:100250002AE030E00E94570585ED91E06AE171E007
:100260000E946E044091300150913101662757FD84
:100270006095762F85ED91E02AE030E00E945705E9
:1002800085ED91E06AE171E00E946E0440913201D7
:1002900050913301662757FD6095762F85ED91E0EB
:1002A0002AE030E00E94570585ED91E06AE171E0B7
:1002B0000E946E044091340150913501662757FD2C
:1002C0006095762F85ED91E02AE030E00E94570599
:1002D00085ED91E06CE171E00E946E044091400177
:1002E00050914101662757FD6095762F85ED91E08D
:1002F0002AE030E00E94570585ED91E06FE171E062
:100300000E948D0480912C0190912D0190933701D2
:100310008093360180912E0190912F0190933901A5
:1003200080933801809130019091310190933B018D
:1003300080933A01809132019091330190933D0175
:1003400080933C01809134019091350190933F015D
:1003500080933E0110924101109240010895240FB4
:10036000351F261737070CF410CF05CF240F351F84
:10037000261737070CF409CFEBCE2E0F3F1F24179B
:1003800035070CF402CFD1CE81E090E09093470185
:1003900080934601909345018093440190934301DB
:1003A0008093420110923501109234011092330172
:1003B00010923201109231011092300110922F01EF
:1003C00010922E0110922D0110922C0110923F01DB
:1003D00010923E0110923D0110923C0110923B019F
:1003E00010923A011092390110923801109237019F
:1003F00010923601109241011092400185ED91E07A
:1004000040E855E260E070E00E94F10280E00E9466
:10041000930208950E9459020E94C4010E945F0045
:10042000FDCF1F920F920FB60F9211242F933F937F
:100430008F939F93AF93BF9380914C0190914D0107
:10044000A0914E01B0914F01309150010196A11D34
:10045000B11D232F2D5F2D3720F02D570196A11DA3
:10046000B11D2093500180934C0190934D01A093B6
:100470004E01B0934F018091480190914901A091A4
:100480004A01B0914B010196A11DB11D8093480115
:1004900090934901A0934A01B0934B01BF91AF9152
:1004A0009F918F913F912F910F900FBE0F901F90B2
:1004B0001895789484B5826084BD84B5816084BDCC
:1004C00085B5826085BD85B5816085BDEEE6F0E0CD
:1004D000808181608083E1E8F0E0808182608083B8
:1004E000808181608083E0E8F0E0808181608083AA
:1004F000E1EBF0E0808184608083E0EBF0E08081DC
:1005000081608083EAE7F0E080818460808380817D
:100510008260808380818160808380818068808325
:100520001092C10008958093210108958F709091D9
:1005300021019295990F990F907C982B90937C00B4
:1005400080917A00806480937A0080917A0086FDA1
:10055000FCCF2091780040917900942F80E030E02A
:10056000282B392BC90108951F920F920FB60F92B5
:1005700011242F933F934F935F936F937F938F93A8
:100580009F93AF93BF93EF93FF934091C600E09189
:10059000D101F091D201CF01019660E870E00E9494
:1005A000B2069C018091D3019091D401281739079C
:1005B00039F0EF5AFE4F40833093D2012093D1019E
:1005C000FF91EF91BF91AF919F918F917F916F912B
:1005D0005F914F913F912F910F900FBE0F901F9001
:1005E00018955F926F927F928F929F92AF92BF9277
:1005F000CF92DF92EF92FF920F931F93CF93DF93EF
:10060000EC013A014B01413482E458078FE068075E
:1006100080E078070CF07FC060E874E88EE190E03D
:10062000A40193010E94E706215030404040504011
:10063000CA01B90122E030E040E050E00E94E70644
:1006400059016A01A6019501209530954095509574
:1006500094E0220F331F441F551F9A95D1F760E095
:1006600074E284EF90E00E94E706CA01B9012FEF1F
:1006700030E040E050E00E949306A40193010E9404
:10068000E706C90181509F4F181619061CF4522E17
:100690005A9403C055245394521A60E079E08DE3D4
:1006A00090E0A40193010E94E706215030404040B1
:1006B0005040CA01B90122E030E040E050E00E9421
:1006C000E706209530954095509583E0220F331F23
:1006D000441F551F8A95D1F760E074E284EF90E0E3
:1006E0000E94E706CA01B9012FEF30E040E050E078
:1006F0000E949306A40193010E94E706C90181505C
:100700009F4F181619061CF4822F815002C081E0F9
:10071000821B851500F5E885F98581E090E00A885F
:1007200002C0880F991F0A94E2F7808360E079E0A5
:100730008DE390E0A40193010E94E7062150304030
:1007400040405040CA01B90122E030E040E050E0B2
:100750000E94E70604C0E885F98510829501EC81C6
:10076000FD813083EE81FF812083EA85FB85208136
:1007700041E050E0CA010E8402C0880F991F0A941C
:10078000E2F7282B2083EA85FB852081CA010F84AC
:1007900002C0880F991F0A94E2F7282B2083EA856C
:1007A000FB858081088802C0440F551F0A94E2F738
:1007B000842B8083DF91CF911F910F91FF90EF9059
:1007C000DF90CF90BF90AF909F908F907F906F9071
:1007D0005F900895FC01A085B18521898C9190E0FE
:1007E000022E02C0959587950A94E2F780FFF6CF16
:1007F0000484F585E02D6083089586E291E090936E
:10080000D6018093D50181E591E09093D801809342
:10081000D70185EC90E09093DA018093D90184ECC4
:1008200090E09093DC018093DB0180EC90E090936A
:10083000DE018093DD0181EC90E09093E0018093F4
:10084000DF0186EC90E09093E2018093E10184E087
:100850008093E30183E08093E40187E08093E501E6
:1008600085E08093E60181E08093E70108950F938E
:100870001F93CF93DF938C01EB0109C02196D80120
:10088000ED91FC910190F081E02DC80109956881FE
:100890006623A1F7DF91CF911F910F910895EF92F9
:1008A000FF920F931F93CF93DF938C017B01EA019B
:1008B0000CC0D7016D917D01D801ED91FC910190A3
:1008C000F081E02DC80109952197209791F7DF91DC
:1008D000CF911F910F91FF90EF900895DC01ED9162
:1008E000FC910280F381E02D099508950F931F93E9
:1008F0008C01DC01ED91FC910190F081E02D6DE027
:100900000995D801ED91FC910190F081E02DC8018D
:100910006AE009951F910F9108950F931F938C0121
:100920000E946E04C8010E9476041F910F910895E1
:100930002F923F924F925F926F927F928F929F92EF
:10094000AF92BF92CF92DF92EF92FF920F931F93DD
:10095000DF93CF93CDB7DEB7A0970FB6F894DEBF85
:100960000FBECDBF1C016A017B0141155105610518
:10097000710549F4DC01ED91FC910190F081E02DCD
:1009800060E3099554C0882499245401422E5524CB
:100990006624772401E010E00C0F1D1F080D191DBF
:1009A000C701B601A30192010E94C506F801608348
:1009B0000894811C911CA11CB11CC701B601A301A4
:1009C00092010E94C506C901DA016C017D01C114C2
:1009D000D104E104F104F1F681E0E82EF12CEC0EF3
:1009E000FD1EE80CF91C3E010894611C711CD50128
:1009F000C4010197A109B1096C01C818D90814C034
:100A0000F601EE0DFF1D60816A3010F4605D01C0DB
:100A1000695CD101ED91FC910190F081E02DC10163
:100A200009950894E108F1086E147F0449F7A0962F
:100A30000FB6F894DEBF0FBECDBFCF91DF911F91EF
:100A40000F91FF90EF90DF90CF90BF90AF909F906D
:100A50008F907F906F905F904F903F902F90089570
:100A6000EF92FF920F931F93CF93DF93EC017A01E4
:100A70008B0177FF0FC0E881F9810190F081E02DB3
:100A80006DE2099510950095F094E094E11CF11C3D
:100A9000011D111DCE01B801A7012AE00E94980492
:100AA000DF91CF911F910F91FF90EF900895DC019E
:100AB0002115310541F4ED91FC910190F081E02D7B
:100AC000642F099508952A30310519F40E943005E4
:100AD00008950E94980408950CD0EBC0E3D040F034
:100AE000DAD030F021F45F3F19F0CCC0511115C1BC
:100AF000CFC0F0D098F39923C9F35523B1F3951BD8
:100B0000550BBB27AA2762177307840738F09F5F2E
:100B10005F4F220F331F441FAA1FA9F333D00E2E9D
:100B20003AF0E0E830D091505040E695001CCAF70A
:100B300029D0FE2F27D0660F771F881FBB1F2617CF
:100B400037074807AB07B0E809F0BB0B802DBF01A2
:100B5000FF2793585F4F2AF09E3F510568F092C0DF
:100B6000DCC05F3FECF3983EDCF3869577956795A4
:100B7000B795F7959F5FC9F7880F911D9695879553
:100B800097F90895E1E0660F771F881FBB1F621772
:100B900073078407BA0720F0621B730B840BBA0B30
:100BA000EE1F88F7E095089504D06894B111B5C0A0
:100BB000089598D088F09F5790F0B92F9927B75192
:100BC000A0F0D1F0660F771F881F991F1AF0BA9511
:100BD000C9F712C0B13081F09FD0B1E008959CC038
:100BE000672F782F8827B85F39F0B93FCCF3869507
:100BF00077956795B395D9F73EF490958095709564
:100C000061957F4F8F4F9F4F0895E89409C097FBE0
:100C10003EF490958095709561957F4F8F4F9F4FD3
:100C20009923A9F0F92F96E9BB279395F695879517
:100C300077956795B795F111F8CFFAF4BB0F11F4DA
:100C400060FF1BC06F5F7F4F8F4F9F4F16C0882381
:100C500011F096E911C0772321F09EE8872F762FB7
:100C600005C0662371F096E8862F70E060E02AF0F8
:100C70009A95660F771F881FDAF7880F96958795E4
:100C800097F9089597F99F6780E870E060E008950C
:100C90009FEF80EC089500240A9416161706180694
:100CA0000906089500240A94121613061406050670
:100CB0000895092E0394000C11F4882352F0BB0F01
:100CC00040F4BF2B11F460FF04C06F5F7F4F8F4F64
:100CD0009F4F089557FD9058440F551F59F05F3F9F
:100CE00071F04795880F97FB991F61F09F3F79F04E
:100CF00087950895121613061406551FF2CF4695D0
:100D0000F1DF08C0161617061806991FF1CF869551
:100D10007105610508940895E894BB276627772735
:100D2000CB0197F90895629FD001739FF001829FD4
:100D3000E00DF11D649FE00DF11D929FF00D839F6A
:100D4000F00D749FF00D659FF00D9927729FB00D07
:100D5000E11DF91F639FB00DE11DF91FBD01CF011A
:100D60001124089597FB092E07260AD077FD04D099
:100D700049D006D000201AF4709561957F4F0895F0
:100D8000F6F7909581959F4F0895A1E21A2EAA1B20
:100D9000BB1BFD010DC0AA1FBB1FEE1FFF1FA2172B
:100DA000B307E407F50720F0A21BB30BE40BF50B28
:100DB000661F771F881F991F1A9469F760957095B1
:100DC000809590959B01AC01BD01CF01089597FBE3
:100DD000092E05260ED057FD04D0D7DF0AD0001CFF
:100DE00038F450954095309521953F4F4F4F5F4FC8
:100DF0000895F6F790958095709561957F4F8F4F88
:100E00009F4F0895AA1BBB1B51E107C0AA1FBB1F20
:100E1000A617B70710F0A61BB70B881F991F5A9586
:100E2000A9F780959095BC01CD010895EE0FFF1FA5
:0C0E30000590F491E02D0994F894FFCF98
:100E3C00782C20792C207A2C20786163632C2079F3
:100E4C006163632C2073633A200020002028002962
:0C0E5C00000100000000EA0337044F040E
:00000001FF
