:100000000C945B000C9495020C94C2020C94830037
:100010000C9483000C9483000C9483000C94830054
:100020000C9483000C9483000C9483000C94830044
:100030000C9483000C9483000C9483000C94830034
:100040000C94EF020C9483000C94C6040C9483006F
:100050000C9483000C9483000C9483000C94830014
:100060000C9483000C948300000024272A000025B0
:10007000282B000023262904040404040404040299
:100080000202020202030303030303010204081035
:100090002040800102040810200102040810200002
:1000A0000000070002010000030406000000000039
:1000B000000000007C0111241FBECFEFD8E0DEBF9E
:1000C000CDBF11E0A0E0B1E0EEEDFAE002C0059096
:1000D0000D92AC34B107D9F711E0ACE4B1E001C046
:1000E0001D92A43EB107E1F710E0C6EBD0E004C0DA
:1000F0002297FE010E946905C43BD107C9F70E94FF
:1001000075010C946D050C9400004F925F926F92F4
:100110007F928F929F92AF92BF92CF92DF92EF9297
:10012000FF920F931F93CF93DF9380914C01909197
:100130004D01892B09F09FC031E0832E912C26E9D7
:10014000422E512C91E0692E712C8EC0F5018081D8
:10015000992787FD9095849D7001859DF00C949D55
:10016000F00C11248EE491E060E071E00E948C01BB
:100170008EE491E0B7010E9485028EE491E068E090
:1001800071E00E948C018EE491E0B6010E9485022C
:100190008EE491E06FE071E00E948C0164E670E013
:1001A00080E090E00E945F03F5016081772767FDA2
:1001B00070958EE491E00E948502E114F10401F152
:1001C00001E311E0C0E0D0E0C3010C2E02C0880FB3
:1001D000991F0A94E2F788219921892B29F0F801C7
:1001E000808160E070E004C0F80180816FEF70E012
:1001F0000E94C30321960E5F1F4FC330D10521F724
:10020000B701882777FD8095982F0E945F03809122
:1002100031016FEF70E00E94C303809133016FEFF3
:1002200070E00E94C303809135016FEF70E00E947F
:10023000C3036AEF70E080E090E00E945F030894DF
:10024000C11CD11C0894A11CB11C80913701909154
:100250003801C816D9060CF479CF0894811C911C7A
:10026000F8E08F16910439F089E3A82E81E0B82ECA
:10027000CC24DD24EACFDF91CF911F910F91FF9025
:10028000EF90DF90CF90BF90AF909F908F907F9036
:100290006F905F904F900895CF93DF93C1E3D1E0CB
:1002A000888161E00E941C04888161E070E00E9406
:1002B000C303229681E0C733D80791F78EE491E01B
:1002C00040E051EE60E070E00E9487018EE491E032
:1002D0006BE171E00E94BB0164E670E080E090E0B9
:1002E0000E945F03DF91CF9108950E9489030E94CD
:1002F0004C010E948500FDCF89E491E090934F016D
:1003000080934E010895862F0E94BE040895CB016C
:10031000BA010E94850408950F931F93CF93DF9332
:100320008C01EB0109C02196D801ED91FC9101905F
:10033000F081E02DC801099568816623A1F7DF915E
:10034000CF911F910F9108950F931F938C01DC01A2
:10035000ED91FC910190F081E02D6DE00995D801BF
:10036000ED91FC910190F081E02DC8016AE00995C2
:100370001F910F9108950F931F938C010E948C0180
:10038000C8010E94A4011F910F9108952F923F92DE
:100390004F925F926F927F928F929F92AF92BF9295
:1003A000CF92DF92EF92FF920F931F93DF93CF9341
:1003B000CDB7DEB7A0970FB6F894DEBF0FBECDBFA6
:1003C0001C016A017B01411551056105710549F464
:1003D000DC01ED91FC910190F081E02D60E3099545
:1003E00054C0882499245401422E5524662477242D
:1003F00001E010E00C0F1D1F080D191DC701B6010B
:10040000A30192010E941605F80160830894811CE3
:10041000911CA11CB11CC701B601A30192010E944D
:100420001605C901DA016C017D01C114D104E10492
:10043000F104F1F681E0E82EF12CEC0EFD1EE80C43
:10044000F91C3E010894611C711CD501C40101977F
:10045000A109B1096C01C818D90814C0F601EE0D44
:10046000FF1D60816A3010F4605D01C0695CD101DC
:10047000ED91FC910190F081E02DC1010995089466
:10048000E108F1086E147F0449F7A0960FB6F894BE
:10049000DEBF0FBECDBFCF91DF911F910F91FF90B7
:1004A000EF90DF90CF90BF90AF909F908F907F9014
:1004B0006F905F904F903F902F900895EF92FF9232
:1004C0000F931F93CF93DF93EC017A018B0177FF9A
:1004D0000FC0E881F9810190F081E02D6DE209956E
:1004E00010950095F094E094E11CF11C011D111D84
:1004F000CE01B801A7012AE00E94C601DF91CF9189
:100500001F910F91FF90EF9008950F931F938C010F
:10051000AB01662757FD6095762F0E945E02C801E9
:100520000E94A4011F910F9108951F920F920FB680
:100530000F9211242F933F934F935F936F937F9369
:100540008F939F93AF93BF93EF93FF93809150014D
:1005500090915101892B29F0E0915001F0915101C6
:100560000995FF91EF91BF91AF919F918F917F91ED
:100570006F915F914F913F912F910F900FBE0F9010
:100580001F9018951F920F920FB60F9211242F9360
:100590003F934F935F936F937F938F939F93AF930B
:1005A000BF93EF93FF938091520190915301892B58
:1005B00029F0E0915201F09153010995FF91EF91DB
:1005C000BF91AF919F918F917F916F915F914F916B
:1005D0003F912F910F900FBE0F901F9018951F9273
:1005E0000F920FB60F9211242F938F939F93AF9377
:1005F000BF938091540190915501A0915601B09103
:1006000057010196A11DB11D80935401909355018E
:10061000A0935601B09357018091580190915901D0
:10062000A0915A01B0915B018050904CAF4FBF4FE9
:100630008093580190935901A0935A01B0935B01A4
:1006400027C08091580190915901A0915A01B09111
:100650005B0180589E43A040B04080935801909326
:100660005901A0935A01B0935B0180915C01909174
:100670005D01A0915E01B0915F010196A11DB11DC8
:1006800080935C0190935D01A0935E01B0935F0144
:100690008091580190915901A0915A01B0915B014C
:1006A00081589E43A040B04060F6BF91AF919F91AA
:1006B0008F912F910F900FBE0F901F901895EF9272
:1006C000FF920F931F937B018C018FB7F894409199
:1006D0005C0150915D0160915E0170915F018FBF7F
:1006E0002FB7F89480915C0190915D01A0915E011B
:1006F000B0915F012FBF841B950BA60BB70BE816BB
:10070000F9060A071B0760F71F910F91FF90EF9002
:100710000895789484B5826084BD84B5816084BD79
:1007200085B5826085BD85B5816085BDEEE6F0E06A
:10073000808181608083E1E8F0E080818260808355
:10074000808181608083E0E8F0E080818160808347
:10075000E1EBF0E0808184608083E0EBF0E0808179
:1007600081608083EAE7F0E080818460808380811B
:1007700082608083808181608083808180688083C3
:100780001092C10008951F93CF93DF93182FEB01B0
:1007900061E00E941C04E12FF0E0E156FF4F8491DC
:1007A000833051F480918000806880938000D093E2
:1007B0008900C09388003CC0843051F4809180004F
:1007C000806280938000D0938B00C0938A0030C0F9
:1007D000813039F4209729F184B5806884BDC7BD84
:1007E00027C0823039F42097E1F084B5806284BD5F
:1007F000C8BD1EC0863041F48091B00080688093EF
:10080000B000C093B30014C0873041F48091B000B1
:1008100080628093B000C093B4000AC0C038D10594
:100820001CF4812F60E002C0812F61E00E943A0435
:10083000DF91CF911F910895282F30E0C90185578E
:100840009F4FFC01949129583F4FF90184918823CF
:1008500081F0E82FF0E0E859FF4FE491F0E06623E3
:1008600029F4808190958923808308958081892B44
:1008700080830895482F50E0CA0181569F4FFC01A4
:100880002491CA0185579F4FFC01949149585F4FAD
:10089000FA0134913323C1F1222331F1233021F4C1
:1008A000809180008F7705C0243031F480918000E2
:1008B0008F7D8093800018C0213019F484B58F7724
:1008C00004C0223021F484B58F7D84BD0DC0263054
:1008D00021F48091B0008F7705C0273029F48091F2
:1008E000B0008F7D8093B000E32FF0E0E359FF4F1D
:1008F000E491F0E0662329F4808190958923808338
:1009000008958081892B80830895EF92FF920F9341
:100910001F937B018C0122E030E040E050E00E9418
:100920003805205C3D4B404F5F4FCA01B901A8011B
:1009300097010E943805C901DA010197A109B1099F
:10094000292F3A2F4B2F552747FD5A950196A11D68
:10095000B11D2093C50081508093C400E1ECF0E00C
:1009600080818061808380818860808380818068CD
:1009700080831F910F91FF90EF900895982F8091A1
:10098000C00085FFFCCF9093C60008951F920F9280
:100990000FB60F9211242F933F934F935F936F9352
:1009A0007F938F939F93AF93BF93EF93FF93409168
:1009B000C600E0916001F0916101CF01019660E80D
:1009C00070E00E9403059C01809162019091630197
:1009D0002817390739F0EC59FE4F408330936101F5
:1009E00020936001FF91EF91BF91AF919F918F9103
:1009F0007F916F915F914F913F912F910F900FBE1B
:100A00000F901F90189597FB092E07260AD077FDA7
:100A100004D049D006D000201AF4709561957F4F1C
:100A20000895F6F7909581959F4F0895A1E21A2EAB
:100A3000AA1BBB1BFD010DC0AA1FBB1FEE1FFF1F82
:100A4000A217B307E407F50720F0A21BB30BE40BD2
:100A5000F50B661F771F881F991F1A9469F7609519
:100A60007095809590959B01AC01BD01CF010895D3
:100A700097FB092E05260ED057FD04D0D7DF0AD0EC
:100A8000001C38F450954095309521953F4F4F4FBD
:100A90005F4F0895F6F790958095709561957F4F1B
:100AA0008F4F9F4F0895AA1BBB1B51E107C0AA1F80
:100AB000BB1FA617B70710F0A61BB70B881F991FFF
:100AC0005A95A9F780959095BC01CD010895EE0F38
:0E0AD000FF1F0590F491E02D0994F894FFCFDC
:100ADE0057616974203D20004E6478203D200073DC
:100AEE006F735B6E64785D203D2000436F6D6D7596
:100AFE006E69636174696F6E7320416374697665A4
:100B0E00000300050006000C0001010103030301B0
:0C0B1E0001010000000000000083010045
:00000001FF
