:100000000C9422010C943F010C943F010C943F018D
:100010000C943F010C943F010C943F010C943F0160
:100020000C943F010C943F010C943F010C943F0150
:100030000C943F010C943F010C9492010C943F01ED
:100040000C943F010C943F010C9441010C943F012E
:100050000C943F010C943F010C943F010C943F0120
:100060000C943F010C943F01000000000000F6F6E4
:10007000000000E000E00028FE28FE280064D654BE
:1000800008C2CC1026C64CB2926C0A0000E00000F8
:10009000003844820000824438008850F8508808B4
:1000A000083E0808000005060008080808080000C7
:1000B000060600020C1060807C8A92A27C0042FE40
:1000C000020042868A9262448292926C103050FE04
:1000D00010E4A2A2A29C3C5292920C808698E080EE
:1000E0006C9292926C609292947800003636000086
:1000F000003536001028448200282828282800824D
:1001000044281040808A90607C82BABA623E488857
:10011000483EFE9292926C7C82828244FE8282826F
:100120007CFE92929282FE909090807C82828A4E97
:10013000FE101010FE8282FE82828482FC8080FE8D
:1001400010284482FE02020202FE402040FEFE60B1
:10015000100CFE7C8282827CFE909090607C828279
:10016000867EFE90989462649292924C8080FE808B
:1001700080FC020202FCF8040204F8FC020C02FCFF
:10018000C6281028C6C0201E20C0868A92A2C2009F
:1001900000FE820000000000008060100C02204081
:1001A00080402001010101018040200000042A2A32
:1001B0002A1EFE1222221C1C222222141C2222127F
:1001C000FE1C2A2A2A18107E908040182525251EFC
:1001D000FE1010100E00125E0200020101115EFE00
:1001E000080814220082FE02003E201C201E3E2031
:1001F00020201E1C2222221C3F24242418182424E0
:100200003F013E10202010122A2A2A0400103C121E
:10021000043C0202023E300C020C3038061806384C
:100220002214081422380505053E22262A3222000F
:10023000106C82820402FF020482826C100008109B
:100240001808100011241FBECFEFD4E0DEBFCDBFD1
:1002500011E0A0E0B1E0E4EFFAE202C005900D92F7
:10026000A432B107D9F712E0A4E2B1E001C01D92B7
:10027000A73DB107E1F70E94270D0C9478150C9467
:1002800000001F920F920FB60F9211242F938F939D
:100290009F93EF93FF93F894E0912801F091290147
:1002A0008091C600E95CFE4F808380912801909187
:1002B00029018959914048F0E0912801F0912901E4
:1002C000E95CFE4F80818C37F9F080912801909194
:1002D000290101969093290180932801809128019A
:1002E00090912901805A914020F01092290110929A
:1002F00028017894FF91EF919F918F912F910F900A
:100300000FBE0F901F901895E0912801F0912901E0
:10031000E95CFE4F80818093370110922901109291
:100320002801D3CF1F920F920FB60F9211248F93F3
:100330009F9315BC10926E0082E085BB16BC1A9983
:1003400011C02A9A84E690910301891B87BD82E03F
:1003500080936E0085BD9F918F910F900FBE0F907F
:100360001F9018952A988091030187BDF0CF83E0F4
:1003700084B98CEF8AB92A9A229A8091270188231E
:1003800061F0813071F082E08093B10084BD809390
:100390006E008091030187BD08958FE387B988B906
:1003A000F2CF8FE388B987B9EECF882371F49FEF3E
:1003B000B89A9093B200B89BFECF882329F0B89AE0
:1003C0009093B200B89BFECF0895982F9195F0CFEF
:1003D000CF93DF93EC01009771F08AEF0E94D50173
:1003E0008AEF0E94D5018AEF0E94D5018AEF0E9410
:1003F000D501219791F7DF91CF9108959093C50092
:100400008093C40082E08093C00088E98093C1009B
:1004100086E08093C20078940895982F8091C00060
:1004200085FFFCCF9093C600089580E000008F5FA9
:100430008E31E1F7089595B19C7F95B99BB193708A
:100440009BB925B1982F9370922B95B99BB18C7F56
:10045000982B9BB90895882359F593E02CE788B130
:10046000887F88B985B18C7F85B98BB183708BB952
:1004700085B1982B95B98BB1282B2BB980E0000062
:100480008F5F8E31E1F7409A80E000008F5F8E3100
:10049000E1F7409880E000008F5F8E31E1F788B18E
:1004A000876088B980E000008F5F8E31E1F70895A2
:1004B00081508064982F9370282F2C7FD0CF98B1D3
:1004C000987F98B995B19C7F95B99BB193709BB972
:1004D00025B1886B982F9370922B95B99BB18C7F27
:1004E000892B8BB980E000008F5F8E31E1F7409A55
:1004F00080E000008F5F8E31E1F7409880E00000DF
:100500008F5F8E31E1F788B1876088B980E00000A5
:100510008F5F8E31E1F70895419A95B19C7F95B92F
:100520009BB193709BB925B1982F9370922B95B97D
:100530009BB18C7F982B9BB980E000008F5F8E3140
:10054000E1F76130D9F06230A9F080E000008F5F00
:100550008E31E1F7409A80E000008F5F8E31E1F745
:10056000409880E000008F5F8E31E1F788B18563AD
:1005700088B9089588B18A7D88B9E7CF88B18A7E25
:1005800088B980E0E3CF85B18C7F85B98BB183706A
:100590008BB985B1836085B98BB18C638BB988B118
:1005A000887F88B980E000008F5F8E31E1F7409A44
:1005B00080E000008F5F8E31E1F7409888B187605E
:1005C00088B908951F93162F882309F077C08FE309
:1005D0000E942B0288B18F6388B984B18C7F84B963
:1005E0001AB880E000008F5F8E31E1F780E00000F4
:1005F0008F5F8E31E1F7113009F46FC0123009F4CA
:1006000063C080E000008F5F8E31E1F780E0000082
:100610008F5F8E31E1F7409A80E000008F5F8E316E
:10062000E1F780E000008F5F8E31E1F7409880E0D5
:1006300000008F5F8E31E1F780E000008F5F8E3128
:10064000E1F788B18F6388B980E000008F5F8E3159
:10065000E1F780E000008F5F8E31E1F71130C1F1EA
:10066000123071F180E000008F5F8E31E1F780E0A1
:1006700000008F5F8E31E1F7409A80E000008F5FCD
:100680008E31E1F780E000008F5F8E31E1F723B11A
:1006900099B1409888B18F6388B984B1836084B977
:1006A0008AB18C6F8AB980E000008F5F8E31E1F7EC
:1006B00023709C7F892F822B1F910895815088CFB2
:1006C00088B18E7D88B9CECF88B18E7D88B999CF1B
:1006D00088B18E7E88B980E0C6CF88B18E7E88B919
:1006E00080E090CFEF92FF920F931F93CF93DF9311
:1006F0007B018C010E94B513EB01BE01882777FDB9
:100700008095982F0E94E8139B01AC01C801B701A6
:100710000E94E81220E030E040E05FE30E947414A1
:1007200088230CF02196CE01DF91CF911F910F917C
:10073000FF90EF900895F999FECF92BD81BD60BD05
:10074000FA9AF99A0895F999FECF92BD81BDF89A67
:1007500080B5089522E024BD909103019436A0F461
:10076000992369F015BC10926E0084E6891B87BD41
:1007700020936E0025BD8FB780688FBF089515BC8C
:1007800010926E002A9A089515BC10926E002A9855
:100790000895982F813059F08230C9F08330F9F0F4
:1007A0008430C9F1853021F1863031F1089580938C
:1007B000C5008FE98093C40082E08093C00088E97F
:1007C0008093C10086E08093C200789408951092CF
:1007D000C5008FEC8093C4009093C000F0CF1092BE
:1007E000C50087E68093C40082E08093C000E7CF15
:1007F0001092C50081E2DECF1092C50080E18093A7
:10080000C40082E08093C00088E98093C100909387
:10081000C200789408951092C50083E38093C400C9
:1008200082E08093C000CBCF0F931F9394B19C7F45
:1008300094B99AB192709AB998B1997F98B9813068
:1008400009F4439882E00E94D50103B1037019B105
:1008500088B18E6088B982E00E94D5011C7F812F0B
:10086000802B1F910F91089594B1936094B99AB120
:100870009C6F9AB995B19C7F95B99BB193709BB9C8
:1008800025B1962F9370922B95B99BB16C7F962BC7
:100890009BB98130B1F088B18A7F88B982E00E942B
:1008A000D50188B18D6088B982E00E94D50184B1FC
:1008B0008C7F84B98AB182708AB982E00E94D501A6
:1008C000089588B1827F88B9E9CFEF92FF920F93A4
:1008D0001F93CF93DF93F82E162F50912701652F8A
:1008E00070E0212F30E0CB01880F991F82959295FF
:1008F000907F9827807F982781589F4F8217930772
:100900000CF460C0E42FF0E000247695679507941E
:10091000769567950794762F602D615C7F4F6E17F3
:100920007F070CF44FC080912601813009F49EC0EE
:10093000552309F04EC0103408F49EC082E0809325
:10094000330110541093320146954695469587E041
:10095000841B8093340127E030E0A9014E1B5F0B1C
:10096000281B3109220F331F220F331F220F331F81
:10097000420F531F21E030E002C0220F331F4A957F
:10098000E2F7122F209331010E945F0200913201A1
:10099000802F0E942B02E0903301802F6E2D0E9449
:1009A000E20280933001FF2009F062C01095182305
:1009B00010933101802F0E942B02809131016E2D06
:1009C0000E948C02DF91CF911F910F91FF90EF90C9
:1009D00008955130B9F78FE790E08E1B9F0B880F79
:1009E000991F880F991FEC01CC0FDD1FCC0FDD1F65
:1009F000C80FD91F812F869586958695C80FD11D62
:100A000080E00E94140490E083709070892BC1F301
:100A100081E06C2F0E94340480E00E94140490E076
:100A200083709070892BC1F381E06D2F0E94340494
:100A300080E00E94140490E083709070892BC1F3D1
:100A400080E064E20E9434041095186FFF2009F4DE
:100A5000177F80E00E94140490E083709070892BCF
:100A6000C1F380E0612F0E943404ACCFF82660CF40
:100A7000182B109331019ECF81E0809333011093A6
:100A8000320162CF3F924F925F926F927F928F922C
:100A90009F92AF92BF92CF92DF92EF92FF920F930D
:100AA0001F93CF93DF93A82E322E422E55245092BF
:100AB0002D0140922C01662E772446145704CCF168
:100AC000082F10E0E42EFF2488249924680108945C
:100AD000C11CD11CE016F106F4F1B32CB818C0E02B
:100AE000D0E06A2D6C0F80E04B2D0E9465049601CA
:100AF0002C0F3D1F2196CE01800F911FE816F9069D
:100B000084F70894811C911CC201881999098615E3
:100B1000970504F764187508089441085108640C97
:100B2000751C70922D0160922C0130932F0120933F
:100B30002E01DF91CF911F910F91FF90EF90DF90E9
:100B4000CF90BF90AF909F908F907F906F905F906D
:100B50004F903F9008959801D4CF0F931F9388230F
:100B600009F043C0409124014630E0F5809127010F
:100B7000682F70E04858CB01880F991F880F991F84
:100B80009C01220F331F220F331F220F331F820FAE
:100B9000931F480F4093240140910001485F409308
:100BA0000001242F30E0CB0100249695879507940F
:100BB000969587950794982F802DCF968217930747
:100BC000B4F46095709500247695679507947695B2
:100BD00067950794762F602D842F860F80930001F0
:100BE000482F05C046504093240140910001509188
:100BF0002401052F142F1750411760F080E0602F5B
:100C0000412F0E9465041F5F409100014117B0F71A
:100C1000509124010F5F852F90E00596202F30E042
:100C2000821793073CF780912701882321F460E025
:100C300040E00E9465041F910F9108952F923F920A
:100C40004F925F926F927F928F929F92AF92BF92DC
:100C5000CF92DF92EF92FF920F931F93DF93CF9388
:100C6000CDB7DEB72B970FB6F894DEBF0FBECDBF62
:100C70008D836E834F830887A62EBB243091270176
:100C80003987432F50E0CA01880F991F82959295AA
:100C9000907F9827807F982781589F4F822E992494
:100CA0008A159B051CF088159905CCF42B960FB678
:100CB000F894DEBF0FBECDBFCF91DF911F910F9192
:100CC000FF90EF90DF90CF90BF90AF909F908F906C
:100CD0007F906F905F904F903F902F9008958F81FD
:100CE000282E3324CA01002496958795079496955B
:100CF00087950794982F802DCF96E02FF0E0FC8306
:100D0000EB838215930594F28E179F077CF2940172
:100D10002A193B093A8329836F01C218D308B60107
:100D2000882777FD8095982F0E94E8137B018C011E
:100D300049815A81BA01882777FD8095982F0E94B2
:100D4000E8139B01AC01C801B7010E944D132B01B0
:100D50003C01B101882777FD8095982F0E94E81308
:100D60007B018C01B501882777FD8095982F0E9423
:100D7000E813A30192010E9478149B01AC01C80101
:100D8000B7010E94E8120E94B5139B01C601D7FC6F
:100D9000F8C0E981FA81E817F9070CF05BC04F81D0
:100DA0005885451708F096C08B819C818215930564
:100DB0000CF486C04101821A930ACC24DD2417C0AA
:100DC000BB86AA864F814C0D8D816A850E94650481
:100DD0000894C11CD11C0894811C911CC601820D71
:100DE000931DEB81FC81E817F9070CF466C0E981DB
:100DF000FA81EF2B29F3B401882777FD8095982F8E
:100E00000E94E813A30192010E944D137B018C0103
:100E10000E94B5137B876A879B01B901882777FDFC
:100E20008095982F0E94E8139B01AC01C801B7017F
:100E30000E94E81220E030E040E05FE30E9474147A
:100E400088230CF4BFCF4A855B854F5F5F4F5B877C
:100E50004A87B8CF8A149B049CF1B901882777FD93
:100E60008095982F0E94E8136B017C012224332483
:100E70001E81120DB1016A0D7B1D882777FD8095BB
:100E8000982F0E94E813A30192010E947814A701F1
:100E900096010E94E9120E94BA139B01AC018D8158
:100EA000612F422F0E9465040894211C311CC5014A
:100EB000820D931D88169906DCF6F0912701F987BB
:100EC0002985222309F0F2CE80E060E040E00E9414
:100ED0006504ECCE4F815885541790F78B819C8127
:100EE000281639066CF34101821A930ACC24DD24BA
:100EF00016C0BB86AA864F814C198D816A850E94D7
:100F000065040894C11CD11C089481089108C10192
:100F10008C199D09EB81FC818E179F0774F2E98182
:100F2000FA81EF2B31F3B401882777FD8095982F54
:100F30000E94E813A30192010E944D137B018C01D2
:100F40000E94B5137B876A879B01B901882777FDCB
:100F50008095982F0E94E8139B01AC01C801B7014E
:100F60000E94E81220E030E040E05FE30E94741449
:100F700088230CF24A855B854F5F5F4F5B874A870A
:100F8000BACF909581959F4F04CFDF92EF92FF9259
:100F90000F931F93F82ED62EE42E122F81E0642F8C
:100FA000422F2E2D0D2D0E941E0681E06F2D412F08
:100FB0002E2D012F0E941E0681E06F2D412F2F2D17
:100FC0000D2D0E941E0681E06F2D4D2D2E2D0E94AD
:100FD0001E061F910F91FF90EF90DF900895DF9212
:100FE000EF92FF920F931F93CF93DF93D82E85E05C
:100FF000689FB0011124EB01C853D0400DECE02EE6
:101000000FEFF02EE60EF71EFE01049110E004C073
:101010001F5F183071F0000F07FFFACF40910001F9
:10102000411B8D2D609124010E9465041F5F1830C3
:1010300091F7209124012F5F209324012196CE1552
:10104000DF0511F72F5F2093240160912701462FC0
:1010500050E030E0CA01880F991F82959295907FE9
:101060009827807F982787589F4F821793079CF473
:1010700010922401809100018830D8F40024569504
:1010800047950794569547950794542F402D842FE4
:10109000815C80930001662321F480E040E00E949F
:1010A0006504DF91CF911F910F91FF90EF90DF903A
:1010B0000895885080930001EECFCF93DF93809105
:1010C0002701882309F450C0813009F0F4C080E082
:1010D0000E94140490E083709070892BC1F381E02A
:1010E00060E00E94340480E00E94140490E0837069
:1010F0009070892BC1F381E060E00E94340480E0AD
:101100000E94140490E083709070892BC1F380E0FA
:1011100064E20E943404C0E0D0E080E00E94140445
:1011200090E083709070892BC1F38091260181300B
:1011300009F4D7C0882309F4CFC080E00E941404CA
:1011400090E083709070892BC1F380E060EC0E9486
:10115000340421968AE0C030D807F9F610922401B1
:101160008FE780930001A7C000008F5F8E31E1F709
:101170004091260130E088B1887F88B985B18C7FA5
:1011800085B98BB183708BB925B1932F986B892F5B
:101190008370822B85B98BB19C7F982B9BB980E0A3
:1011A00000008F5F8E31E1F7409A80E000008F5F92
:1011B0008E31E1F7409880E000008F5F8E31E1F7DB
:1011C00088B1876088B980E000008F5F8E31E1F7D9
:1011D00088B1887F88B985B18C7F85B98BB18370E0
:1011E0008BB985B185B95E9A80E000008F5F8E3142
:1011F000E1F7409A80E000008F5F8E31E1F7409880
:1012000080E000008F5F8E31E1F788B1876088B998
:10121000413009F453C085B18C7F85B98BB183709F
:101220008BB985B185B98BB18BB990E080E00000B6
:101230008F5F8E31E1F788B18A7E88B980E0000047
:101240008F5F8E31E1F7409A80E000008F5F8E3132
:10125000E1F7409880E000008F5F8E31E1F788B1C0
:10126000856188B980E000008F5F8E31E1F788B139
:101270008A7D88B980E000008F5F8E31E1F7409A67
:1012800080E000008F5F8E31E1F7409880E0000041
:101290008F5F8E31E1F788B1856288B99F5F9034A6
:1012A00009F0C4CF3F5F383009F065CF10922401B8
:1012B0008FE380930001DF91CF91089585B18C7FFA
:1012C00085B98BB183708BB985B1836085B98BB1DA
:1012D0008C6F8BB990E0AACF81E060E00E9434046B
:1012E0002CCF6FEF0E94340428CF80E00E941404BA
:1012F00090E083709070892BC1F381E060E00E94E0
:10130000340480E00E94140490E083709070892B74
:10131000C1F381E060E00E94340480E00E94140484
:1013200090E083709070892BC1F380E062E40E94AA
:10133000340480E00E94140490E083709070892B44
:10134000C1F381E064E10E94340480E00E9414044F
:1013500090E083709070892BC1F381E060E00E947F
:10136000340480E00E94140490E083709070892B14
:10137000C1F380E063E40E94340480E00E9414041E
:1013800090E083709070892BC1F380E060E80E9448
:10139000340480E00E94140490E083709070892BE4
:1013A000C1F380E068E90E94340408952F923F92CF
:1013B0004F925F926F927F928F929F92AF92BF9265
:1013C000CF92DF92EF92FF920F931F93DF93CF9311
:1013D000CDB7DEB72C970FB6F894DEBF0FBECDBFEA
:1013E000E82E6B018A011B01221A330AC901860FFC
:1013F000971F98878F83821593050CF479C0229FDD
:10140000F001239FF00D329FF00D1124FE83ED8338
:10141000BA01882777FD8095982F0E94E813698389
:101420007A838B839C83F02FFF0FF9872601421864
:10143000530831016C187D083C862B86882499243A
:10144000AA24BB24FA8723C08E2D682D4A2D2B8514
:101450000C2D0E941E0649854A1909850C198E2DEE
:10146000682D2B850E941E068B859C85019608940D
:10147000410851080894611C711C56018B849C849E
:101480002F813885281739079CF19C878B87469CCC
:10149000B001479C700D569C700D11248D819E816A
:1014A000680F791F882777FD8095982F0E94E81391
:1014B0000E94DF1429813A814B815C810E94E812ED
:1014C0000E94B513CC24DD24C61AD70AEB85FC850F
:1014D0002E163F060CF4B8CF8E2D6B854C2D0E9436
:1014E00065044A854C198E2D6B850E946504BCCF1E
:1014F00080912701882321F460E040E00E94650488
:101500002C960FB6F894DEBF0FBECDBFCF91DF9102
:101510001F910F91FF90EF90DF90CF90BF90AF9011
:101520009F908F907F906F905F904F903F902F9003
:101530000895BF92CF92DF92EF92FF920F931F9385
:10154000CF93DF938091270190E0880F991F8295B8
:101550009295907F9827807F98276FE7C62EC80EB8
:10156000880F991F4FE3D42ED80E38E2B32E109275
:101570002401D092000100E010E203C01F5F1B377E
:10158000B9F081E00E94AD0581E0612F0E94EF0774
:101590008091280190912901892B81F3DF91CF91CE
:1015A0001F910F91FF90EF90DF90CF90BF90089523
:1015B0000F5F053009F70E945D0800E010E203C0EC
:1015C0001F5F1B37B9F080910001865080930001A6
:1015D000893010F4D092000181E00E94AD0581E0D5
:1015E000612F0E94EF078091280190912901892B9A
:1015F00039F3D4CF0F5F053009F70E945D08809161
:101600002701682F70E015E0E5E0F0E01BC01B5FEC
:10161000A09127016A2F70E0E12FF0E09B01220FDB
:10162000331F220F331F220F331FC901880F991F49
:10163000880F991F880F991F821B930BCF968E17C7
:101640009F07F4F06C5F7F4FAB0143505040440F55
:10165000551F42955295507F5427407F542781E073
:1016600062957295707F7627607F76279F010E9432
:10167000D6098091280190912901892B41F28ECFC2
:10168000CC2009F479C0FD2C10E081E060E04F2D02
:10169000212F00E00E941E062091270130E0C901A1
:1016A00080959095880F991F880F991F880F991F13
:1016B000F80E2C5F3F4F220F331F220F331F120FE4
:1016C0001C1518F310E0FF2481E0612F40E02C2D61
:1016D0000F2D0E941E068091270190E001969C012B
:1016E000220F331F220F331F220F331FF20E0396D8
:1016F000880F991F880F991F180F1C1528F3FD2CB0
:1017000010E081E0612F4D2D2C2D0F2D0E941E0623
:101710002091270130E0C90180959095880F991F8D
:10172000880F991F880F991FF80E2C5F3F4F220FCB
:10173000331F220F331F120F1C1518F310E0FF2464
:1017400081E060E04F2D212F0D2D0E941E06A091FB
:1017500027018A2F90E001969C01220F331F220F50
:10176000331F220F331FF20E0396880F991F880F25
:10177000991F180F1C1520F36A2F70E015E0E5E0A3
:10178000F0E01BC01B5FA09127016A2F70E0E12FE2
:10179000F0E09B01220F331F220F331F220F331F54
:1017A000C901880F991F880F991F880F991F821BE5
:1017B000930BCF968E179F07F4F06C5F7F4FAB01B2
:1017C00043505040440F551F42955295507F542727
:1017D000407F542780E062957295707F7627607F06
:1017E00076279F010E94D6098091280190912901B6
:1017F000892B41F2D3CECC2009F479C0FD2C10E026
:1018000080E060E04F2D212F00E00E941E06209115
:10181000270130E0C90180959095880F991F880FA6
:10182000991F880F991FF80E2C5F3F4F220F331F0F
:10183000220F331F120F1C1518F310E0FF2480E055
:10184000612F40E02C2D0F2D0E941E068091270154
:1018500090E001969C01220F331F220F331F220FAD
:10186000331FF20E0396880F991F880F991F180FC8
:101870001C1528F3FD2C10E080E0612F4D2D2C2D40
:101880000F2D0E941E062091270130E0C90180958E
:101890009095880F991F880F991F880F991FF80E30
:1018A0002C5F3F4F220F331F220F331F120F1C15C7
:1018B00018F310E0FF2480E060E04F2D212F0D2D64
:1018C0000E941E06A09127018A2F90E001969C019C
:1018D000220F331F220F331F220F331FF20E0396E6
:1018E000880F991F880F991F180F1C1520F38091DE
:1018F000280190912901892B09F050CEFA2EF294FB
:10190000FF0CFF0C10ECF1222FE2F20EEE241E2D44
:10191000105F0F2D005F8E2D6F2D412F202F0E9405
:1019200042058E2D6F2D412F202F0E94C507A091BB
:1019300027018A2F90E0BC01660F771F680F791F7F
:10194000F61A2CEFF20E2AE0E20E4E2D50E0880F30
:10195000991F880F991F880F991F9C01220F331F11
:10196000220F331F820F931F8C599F4F84179507A7
:1019700074F6CB01880F991F96E1F92EF80EC5E099
:10198000D1E00881AB9DC0011124682F182F1C598C
:1019900085599F4F212F30E08217930774F418C0A8
:1019A0001F5FAB9DA00111249A0125593F4F812F44
:1019B00090E0281739075CF0000F07FFF1CF81E0B6
:1019C000612F4F2D0E946504A0912701E9CF642F5C
:1019D0000981162F1459AB9DC00111248D589F4FBA
:1019E000212F30E0821793076CF416C01F5FAB9D68
:1019F000C00111248D589F4F212F30E0821793078B
:101A00005CF0000F07FFF2CF81E0612F4F2D0E94A5
:101A10006504A0912701EACF229681E0C332D8075E
:101A200011F0FA94AECFAA2329F480E060E040E000
:101A30000E94650488EE93E00E94E80180912601EF
:101A400091E08927809326010E945D0890CD7F92C6
:101A50008F929F92AF92BF92CF92DF92EF92FF92BE
:101A60000F931F93CF93DF932B9A80E000008F5F3B
:101A70008E31E1F71B9B49C081E0809327010E94D2
:101A8000B70186E00E94C9038DE092E00E946611D2
:101A9000F999FECF12BC11BCF89A90B5892F8150EC
:101AA0008630B0F1F894F999FECF12BC11BC86E0F3
:101AB00080BDFA9AF99AF999FECF81E090E092BD43
:101AC00081BD84E680BDFA9AF99AF999FECF82E049
:101AD00090E092BD81BD81E080BDFA9AF99AF999B2
:101AE000FECF83E090E092BD81BD10BCFA9AF99AD6
:101AF000789484E68093030186E08093020181E07C
:101B0000809304011092260123C010922701B7CFC1
:101B100090930201F999FECF81E090E092BD81BDE2
:101B2000F89A80B580930301F999FECF82E090E0A6
:101B300092BD81BDF89A80B580930401F999FECFDA
:101B400083E090E092BD81BDF89A80B58093260134
:101B500080912701882309F47CC3813051F4459892
:101B600082E390E00E94E801459A0E9475090E9474
:101B70005D08809103010E94AA0384EF91E00E9416
:101B8000E80180910401813009F488C08091270127
:101B9000882321F460E040E00E946504109229014E
:101BA0001092280188EE93E00E94E8010E945D08EF
:101BB0008091280190912901892B09F445C381E086
:101BC00061E30E94EF0781E061E30E94EF0781E09B
:101BD00065E30E94EF0781E062E30E94EF0781E086
:101BE00060E30E94EF0781E060E30E94EF0786E078
:101BF000809302010E94C903F894F999FECF12BCA8
:101C000011BC86E080BDFA9AF99A789488EE93E048
:101C10000E94E8010E945D0820912A0130912B0169
:101C2000BFE7FB2EAFE9EA2EC1E0D0E0F2E0CF2E15
:101C3000D12CE3E0AE2EB12C8091280190912901A6
:101C400082179307C9F381E02939380708F479C06E
:101C5000F901E95CFE4F00810C3709F4F7C0C901B6
:101C6000019690932B0180932A01805A914020F095
:101C700010922B0110922A01083009F4DFC00C37B2
:101C800009F464C081E00E94AD0581E0602F0E94EC
:101C9000EF0720912A0130912B01CECF80912701AF
:101CA000813009F444C048E3E42E38E2F32E88E39F
:101CB00090E02FE3C22ED12CC5E0D1E008E0702ED9
:101CC0007E0C1FE0A12EB12CA80EB91E872C9924E2
:101CD00018810E2D07C00F5F802F90E0C816D9061F
:101CE0004CF0110F17FFF7CF81E0602F4F2D0E94AE
:101CF0006504F1CF1981072DA814B90444F40FC06D
:101D00000F5F802F90E0A816B9064CF0110F17FF57
:101D1000F7CF81E0602F4F2D0E946504F1CF22960E
:101D200021E0C332D20709F431CFFA94D1CF78E45D
:101D3000E72E68E4F62E88E490E05FE4C52ED12C0F
:101D4000BBCFF901E95CFE4F008189CF20912A01C8
:101D500030912B01A90180912801909129018217CE
:101D60009307C9F3F901E95CFE4FE081EE2309F422
:101D700074C0E43009F4A4C0E23109F4F4C0E331E2
:101D800009F47DC0E23009F4B0C0E73009F413C1B2
:101D90008E2F8851823008F460C1E03109F4A1C16E
:101DA000E33009F4D0C1E53009F4F4C1EF3009F4AF
:101DB00020C2EC3009F040CF20E04F5F5F4FE1E000
:101DC000403A5E0710F040E050E080912801909189
:101DD000290184179507C9F32F5F253071F74093C8
:101DE0002A0150932B01FA01E95CFE4FDF011397A2
:101DF0009F01225030408F01015010408081349764
:101E000060814C91D9012C91F80100810E941E063D
:101E100020912A0130912B012F5F3F4F30932B01EE
:101E200020932A01F1E0203A3F0708F405CF1092F1
:101E30002B0110922A0120E030E0FECE80E00E94CB
:101E4000AD0520912A0130912B01F6CE009137018A
:101E5000D0932B01C0932A010FCF0E945D082091DF
:101E60002A0130912B012F5F3F4F30932B0120939C
:101E70002A01B1E0203A3B0708F4DECED8CF4091EA
:101E8000040181E0482740930401C9010196909321
:101E90002B0180932A01805A914020F010922B014F
:101EA00010922A01F894F999FECFD2BCC1BC40BD72
:101EB000FA9AF99A789420912A0130912B01BCCE9C
:101EC000109229011092280110922B0110922A01E0
:101ED0000E94990A0E945D0810922901109228011F
:101EE00020912A0130912B01A7CEC9010196909330
:101EF0002B0180932A01805A914020F010922B01EF
:101F000010922A0120912A0130912B018091280101
:101F10009091290182179307C9F3F901E95CFE4FFB
:101F2000E081E0930301C901019690932B01809316
:101F30002A01805A914020F010922B0110922A0120
:101F40008E2F0E94AA03F89480910301F999FECF85
:101F5000D2BDC1BD80BDFA9AF99A789420912A0128
:101F600030912B0169CE8091260191E089278093E1
:101F700026010E945D0820912A0130912B012F5FDC
:101F80003F4F30932B0120932A01E1E0203A3E0796
:101F900030F010922B0110922A0120E030E0F894EA
:101FA00080912601F999FECFB2BCA1BC80BDFA9AFE
:101FB000F99A789441CEC901019690932B018093B0
:101FC0002A01805A914020F010922B0110922A0190
:101FD000E0912A01F0912B01809128019091290133
:101FE0008E179F07C9F3E95CFE4F408160E070E007
:101FF000473310F461E070E020E030E0413310F04E
:1020000021E030E0629FC001639F900D729F900DB0
:102010001124892B19F04053409302018091020151
:102020000E94C903F89480910201F999FECF12BC75
:1020300011BC80BDFA9AF99A789420912A013091C6
:102040002B012F5F3F4F30932B0120932A01E1E0BA
:10205000203A3E0708F4F0CDEACEC90101969093EC
:102060002B0180932A01805A914020F010922B017D
:1020700010922A0120912A0130912B018091280190
:102080009091290182179307C9F3F901E95CFE4F8A
:1020900082913196883109F4A8C0893119F4808180
:1020A00080930001C901019690932B0180932A012E
:1020B000805A914020F010922B0110922A018091B9
:1020C0002401803A10F0E0922401809100018823DD
:1020D0000CF0DFCDF092000120912A0130912B010C
:1020E000ABCD20E04F5F5F4F81E0403A580710F0E2
:1020F00040E050E0809128019091290184179507D4
:10210000C9F32F5F233071F750932B0140932A01BD
:10211000FA01E95CFE4FDF011197808132976081FF
:102120004C910E94650420912A0130912B012F5F70
:102130003F4F30932B0120932A01A1E0203A3A0728
:1021400008F47ACD74CE20E04F5F5F4FB1E0403AA3
:102150005B0710F040E050E0809128019091290148
:1021600084179507C9F32F5F243071F750932B0123
:1021700040932A01FA01E95CFE4F33976191408157
:10218000329622913196808170E050E030E00E94DA
:10219000D60953CF20E04F5F5F4FF1E0403A5F0731
:1021A00010F040E050E080912801909129014817FB
:1021B0005907C9F32F5F243071F750932B014093D7
:1021C0002A01FA01E95CFE4FDF0113979F012250BB
:1021D0003040AF01415050408C91D9016C91DA01EF
:1021E0004C9120810E9442053ACE80818093240147
:1021F00059CF20E04F5F5F4FE1E0403A5E0710F0BB
:1022000040E050E0809128019091290184179507C2
:10221000C9F32F5F243071F750932B0140932A01AB
:10222000FA01E95CFE4FDF0113979F012250304015
:10223000AF01415050408C91D9016C91DA014C9121
:1022400020810E94C5070BCE809102010E94C90324
:10225000DDCC439882E390E00E94E801439A0E941B
:102260005D0880E00E945F0280E00E942B020E94D5
:10227000C30288B1887F88B985B18C7F85B98BB15D
:1022800083708BB985B185B98BB1806C8BB980E0D7
:1022900000008F5F8E31E1F7409A80E000008F5F91
:1022A0008E31E1F7409880E000008F5F8E31E1F7DA
:1022B00088B1876088B980E000008F5F8E31E1F7D8
:1022C0001092240180E00E945F0253CC909336016B
:1022D0008093350108951F93182F8A3049F0E091BB
:1022E0003501F0913601812F90E009951F910895F5
:1022F000E0913501F09136018DE090E00995EFCF46
:102300002F923F924F925F926F927F928F929F9205
:10231000AF92BF92CF92DF92EF92FF920F931F93F3
:10232000DF93CF93CDB7DEB72D970FB6F894DEBF0E
:102330000FBECDBF8E010E5D1F4FF8012190319071
:102340008F01F10181911F01853261F0882309F429
:10235000B3C00E946B1128018201F10181911F011C
:102360008532A1F791911F01903309F49AC0903200
:1023700009F497C0892F66241D868C3641F18C3470
:1023800031F190E0883549F1893568F4893409F4F0
:10239000B4C08A3408F001C1833471F0843409F484
:1023A000ACC0280110C0893609F4A7C08A3608F0ED
:1023B000D5C0833609F09EC0F2E04F2E512C400E5E
:1023C000511EF80180810E946B118201C6CFF1017C
:1023D00081911F0191E08835B9F6A0E18A2E912CF8
:1023E000A12CB12C992309F4E5C044E0442E512CD2
:1023F000400E511EF801C080D180E280F3808E0132
:10240000045F1F4F1C86C701B601A50194010E94FD
:10241000561520E3722E760EF9E3F71518F497E3BC
:10242000792E760EF80172928F01C701B601A501CF
:1024300094010E945615C901DA016C017D01FD85E8
:10244000FF2311F0F150FD870097A105B105D9F6E2
:10245000A8012D85222309F4B9C08D858150282F2C
:1024600030E001501040C801821B930B0F5F1F4FDB
:10247000F80162928F01E817F907D1F789010095F9
:102480001095040F151F662009F466CF862D0E9453
:102490006B110F5F1F4FF80160806620B9F7820152
:1024A0005CCFF10181911F01F82FF053FD87FA30C5
:1024B000E0F0692E1D8661CF2D960FB6F894DEBF31
:1024C0000FBECDBFCF91DF911F910F91FF90EF9085
:1024D000DF90CF90BF90AF909F908F907F906F9044
:1024E0005F904F903F902F900895F10181911F01CF
:1024F000692E43CF843609F054CF9923B9F462E0B2
:10250000462E512C400E511EF801808191817C0194
:102510000027F7FC0095102F17FD14C06701780104
:102520005AE0852E912CA12CB12C69CF74E0472E56
:10253000512C400E511EF801E080F1800281138180
:1025400017FFECCF10950095F094E094E11CF11C7E
:10255000011D111D8DE20E946B11E0CF853711F135
:10256000883709F43ACF833709F01BCFE2E04E2ECB
:10257000512C400E511EF80100811181F80180811B
:10258000882309F4E9CE0E946B110F5F1F4FF801F9
:1025900080818823C1F78201E0CE833539F3853508
:1025A00009F0FFCE8AE0882E912CA12CB12C992322
:1025B00009F01BCF32E0432E512C400E511EF80182
:1025C000808191816C01EE24FF2419CF672C5BCFB1
:1025D0005058BB27AA270ED04DC13ED130F043D171
:1025E00020F031F49F3F11F41EF433C10EF4E09556
:1025F000E7FB29C1E92F4FD180F3BA1762077307B0
:102600008407950718F071F49EF567C10EF4E09504
:102610000B2EBA2FA02D0B01B90190010C01CA019C
:10262000A0011124FF27591B99F0593F50F4503E47
:1026300068F11A16F040A22F232F342F4427585F39
:10264000F3CF469537952795A795F0405395C9F751
:102650007EF41F16BA0B620B730B840BBAF0915009
:10266000A1F0FF0FBB1F661F771F881FC2F70EC0A8
:10267000BA0F621F731F841F48F48795779567957B
:10268000B795F7959E3F08F0B3CF9395880F08F064
:102690009927EE0F9795879508950CD0EBC0E3D05E
:1026A00040F0DAD030F021F45F3F19F0CCC0511186
:1026B00015C1CFC0F0D098F39923C9F35523B1F3D6
:1026C000951B550BBB27AA2762177307840738F0A1
:1026D0009F5F5F4F220F331F441FAA1FA9F333D000
:1026E0000E2E3AF0E0E830D091505040E695001CB4
:1026F000CAF729D0FE2F27D0660F771F881FBB1F70
:10270000261737074807AB07B0E809F0BB0B802D49
:10271000BF01FF2793585F4F2AF09E3F510568F095
:1027200092C0DCC05F3FECF3983EDCF38695779572
:102730006795B795F7959F5FC9F7880F911D969597
:10274000879597F90895E1E0660F771F881FBB1FF3
:10275000621773078407BA0720F0621B730B840BA0
:10276000BA0BEE1F88F7E095089504D06894B11174
:10277000B5C0089598D088F09F5790F0B92F992749
:10278000B751A0F0D1F0660F771F881F991F1AF07C
:10279000BA95C9F712C0B13081F09FD0B1E0089569
:1027A0009CC0672F782F8827B85F39F0B93FCCF3EA
:1027B000869577956795B395D9F73EF49095809572
:1027C000709561957F4F8F4F9F4F0895E89409C092
:1027D00097FB3EF490958095709561957F4F8F4F54
:1027E0009F4F9923A9F0F92F96E9BB279395F6956A
:1027F000879577956795B795F111F8CFFAF4BB0FE8
:1028000011F460FF1BC06F5F7F4F8F4F9F4F16C04B
:10281000882311F096E911C0772321F09EE8872FD5
:10282000762F05C0662371F096E8862F70E060E091
:102830002AF09A95660F771F881FDAF7880F96950A
:10284000879597F9089597F99F6780E870E060E0B1
:1028500008959FEF80EC089500240A941616170639
:1028600018060906089500240A9412161306140681
:1028700005060895092E0394000C11F4882352F0E4
:10288000BB0F40F4BF2B11F460FF04C06F5F7F4F9C
:102890008F4F9F4F089557FD9058440F551F59F083
:1028A0005F3F71F04795880F97FB991F61F09F3F3D
:1028B00079F087950895121613061406551FF2CF66
:1028C0004695F1DF08C0161617061806991FF1CFB6
:1028D00086957105610508940895E894BB276627DD
:1028E0007727CB0197F90895A8D008F48FEF0895C2
:1028F0000BD0C0CFB1DF28F0B6DF18F0952309F078
:10290000A2CFA7CF1124EACFC6DFA0F3959FD1F3C2
:10291000950F50E0551F629FF001729FBB27F00D8D
:10292000B11D639FAA27F00DB11DAA1F649F6627E2
:10293000B00DA11D661F829F2227B00DA11D621F31
:10294000739FB00DA11D621F839FA00D611D221FEB
:10295000749F3327A00D611D231F849F600D211DCF
:10296000822F762F6A2F11249F5750408AF0E1F072
:1029700088234AF0EE0FFF1FBB1F661F771F881FBB
:1029800091505040A9F79E3F510570F05CCFA6CF03
:102990005F3FECF3983EDCF3869577956795B795A6
:1029A000F795E7959F5FC1F7FE2B880F911D9695D0
:1029B000879597F9089511F40EF44BCF62C073DF39
:1029C000D0F39923D9F3CEF39F57550B87FF67D0E8
:1029D0000024A0E640EA900180585695979528F487
:1029E000805C660F771F881F20F02617370748077F
:1029F00030F4621B730B840B202931294A2BA695D6
:102A000017940794202531254A2758F7660F771F1A
:102A1000881F20F026173707480730F4620B730B26
:102A2000840B200D311D411DA09581F7B901842F24
:102A30009158880F969587950895990F0008550F1E
:102A4000AA0BE0E8FEEF16161706E807F907C0F034
:102A500012161306E407F50798F0621B730B840B3C
:102A6000950B39F40A2661F0232B242B252B21F416
:102A700008950A2609F4A140A6958FEF811D811DB6
:102A800008959F3F31F0915020F487957795679591
:102A9000B795880F911D9695879597F90895915050
:102AA0005040660F771F881FD2F70895A1E21A2EB3
:102AB000AA1BBB1BFD010DC0AA1FBB1FEE1FFF1FE2
:102AC000A217B307E407F50720F0A21BB30BE40B32
:102AD000F50B661F771F881F991F1A9469F7609579
:102AE0007095809590959B01AC01BD01CF01089533
:042AF000F894FFCF88
:102AF4003F0106640101C00380038001D001F80C8A
:102B0400F818F81FF81FF81FF01FE01FC01C00186A
:042B140000100000AD
:00000001FF
