:100000000C94AC000C94D4000C94D4000C944001DB
:100010000C946A010C9494010C94D4000C94D400B8
:100020000C94D4000C94D4000C94D4000C94D40000
:100030000C94D4000C94D4000C94D4000C94D400F0
:100040000C9494040C94D4000C94AD050C94D4003E
:100050000C94D4000C94D4000C94D4000C94D400D0
:100060000C94D4000C94D40000C2010001001100D3
:1000700011000C0000E100000A002500250021000D
:10008000009600001900390039003600127A00008D
:100090001F004600460044008070000022004D0012
:1000A0004D004A00004B00003600750075007200DC
:1000B000403800004A009C009C0099008025000008
:1000C0007200EC00EC00E900C0120000E900DA0167
:1000D000DA01D70160090000D701B603B603B30304
:1000E000B0040000B3036E076E076B072C0100001D
:1000F000DC0EC11DC11DBE1D000000002400270034
:100100002A0000000000250028002B00000000004D
:100110002300260029000404040404040404020249
:100120000202020203030303030301020408102076
:100130004080010204081020010204081020000081
:100140000007000201000003040600000000000098
:1001500000001504F6060E0411241FBECFEFD8E0F0
:10016000DEBFCDBF11E0A0E0B1E0E6E0F2E102C009
:1001700005900D92AA36B107D9F712E0AAE6B1E0D0
:1001800001C01D92A036B107E1F711E0C6E5D1E04C
:1001900004C02297FE010E94F208C235D107C9F7B8
:1001A0000E948D040C94F6080C9400000F931F938A
:1001B000CF93DF93FC01718976957170A481B5812D
:1001C0009381772329F08C91892309F454C004C0CA
:1001D0008C91892309F04FC08185928520E0019799
:1001E0002FEF8F3F9207D9F7C385D485A481B581BE
:1001F000138160E031E040E050E000E0CE01202FCC
:1002000001972FEF8F3F9207D9F78C91812311F03F
:10021000632B03C0832F80956823330F4F5F5F4F9D
:100220004830510559F78585968520E001972FEFD5
:100230008F3F9207D9F7711160958091AC012091A1
:10024000AD0190E001968F73907030E082179307B4
:1002500079F0E091AC01F0E0E459FE4F60838091C9
:10026000AC0190E001968F7390708093AC0103C055
:1002700081898160818BDF91CF911F910F910895CA
:100280001F920F920FB60F9211242F933F934F930B
:100290005F936F937F938F939F93AF93BF93EF93EE
:1002A000FF9380916A0190916B01009711F00E9479
:1002B000D600FF91EF91BF91AF919F918F917F9168
:1002C0006F915F914F913F912F910F900FBE0F90C3
:1002D0001F9018951F920F920FB60F9211242F9313
:1002E0003F934F935F936F937F938F939F93AF93BE
:1002F000BF93EF93FF9380916A0190916B010097F8
:1003000011F00E94D600FF91EF91BF91AF919F91A4
:100310008F917F916F915F914F913F912F910F90AE
:100320000FBE0F901F9018951F920F920FB60F924D
:1003300011242F933F934F935F936F937F938F93EA
:100340009F93AF93BF93EF93FF9380916A01909136
:100350006B01009711F00E94D600FF91EF91BF91C1
:10036000AF919F918F917F916F915F914F913F914D
:100370002F910F900FBE0F901F901895CF92DF9284
:10038000EF92FF920F931F93CF93DF93EC017A01CB
:100390008B01188A1F861E861D861C861B861A8660
:1003A000198620E030E06901CC0CDD1CC20ED31EA2
:1003B000B601660F771F660F771FAB0148595F4F75
:1003C000FA0185919591A591B4918E159F05A0078D
:1003D000B107E9F4FB01E459FF4F859194919A87A5
:1003E0008987FB01E259FF4F859194919C878B8708
:1003F000FB01E059FF4F859194919E878D87FB010A
:10040000EE58FF4F85919491988B8F8706C02F5F90
:100410003F4F2C30310509F0C6CF8D859E85892B45
:1004200009F449C04A81463108F03DC09091680006
:10043000483010F484E005C04E3010F082E001C076
:1004400081E0892B80936800483028F4EDE6F0E0E5
:10045000ADE6B0E00BC04E3028F0ECE6F0E0ACE6E4
:10046000B0E004C0EBE6F0E0ABE6B0E0508148302D
:1004700040F481E090E002C0880F991F4A95E2F7AE
:1004800010C0242F30E04E3018F42850304002C005
:100490002E50304081E090E002C0880F991F2A95CD
:1004A000E2F7852B8C938F85988920E001972FEFB9
:1004B0008F3F9207D9F780916A0190916B018C1759
:1004C0009D0781F089898E7F898B9FB7F894109260
:1004D000AC018091AC018093AD01D0936B01C093CE
:1004E0006A019FBFDF91CF911F910F91FF90EF9015
:1004F000DF90CF900895FC014281463180F548306D
:1005000028F4EDE6F0E0ADE6B0E00BC04E3028F4A4
:10051000EBE6F0E0ABE6B0E004C0ECE6F0E0ACE621
:10052000B0E05081483040F481E090E002C0880F94
:10053000991F4A95E2F710C0242F30E04E3018F48E
:100540002850304002C02E50304081E090E002C080
:10055000880F991F2A95E2F7809585238C9308953B
:10056000FC0189E591E091838083CF010E947B02A9
:1005700008950F931F93DC011F968D919C915097C6
:10058000892B09F4B6C080916A0190916B018A179A
:100590009B07A1F051968C9151978E7F51968C9329
:1005A00051979FB7F8941092AC018091AC01809361
:1005B000AD01B0936B01A0936A019FBF0FB7F89490
:1005C00051968C9151971796ED91FC91189716962C
:1005D0002C91169781FF88C08081822B80831F9683
:1005E0008D919C915097059620E001972FEF8F3FBA
:1005F0009207D9F751968C91519781FF35C031E020
:1006000040E050E070E010E0832F90E086239723D5
:100610001796ED91FC91189716962C911697892BA9
:1006200029F0808120952823208303C08081822B9C
:1006300080831F968D919C915097212F01972FEFCA
:100640008F3F9207D9F7330F4F5F5F4F4830510507
:10065000D9F61796ED91FC911897908116968C918A
:1006600016978095892333C031E040E050E070E078
:1006700010E0832F90E0862397231796ED91FC914D
:10068000189716962C911697892B21F08081822B32
:10069000808304C080812095282320831F968D911C
:1006A0009C915097212F01972FEF8F3F9207D9F7F9
:1006B000330F4F5F5F4F48305105D9F61796ED91D4
:1006C000FC911897808116969C911697892B8083B0
:1006D0000FBF1F968D919C91509720E001972FEFAF
:1006E0008F3F9207D9F705C080812095282320836A
:1006F00076CF1F910F9108951F93CF93DF93EC0155
:10070000162F862F60E00E944005898981FD04C074
:10071000812F61E00E9460051A83212F30E0C9011A
:10072000865D9E4FFC0184918B832A5E3E4FF901CA
:100730006491E62FF0E0EE0FFF1FE45FFE4F85911E
:1007400094919D838C83DF91CF911F910895FF92A7
:100750000F931F938C01F62E862F61E00E944005B7
:100760008F2D61E00E9460058F2D90E0FC01E65D19
:10077000FE4FE491D8011696EC9316978A5E9E4F31
:10078000FC016491E62FF0E0EE0FFF1FEE5FFE4FDD
:100790008591949118969C938E9317971F910F9122
:1007A000FF900895FF920F931F938C01F62E89E519
:1007B00091E0F80191838083128611861486138656
:1007C00016861586108A178681892170220F8C7FE4
:1007D000822B818BC801642F0E94A703C8016F2D53
:1007E0000E947C031F910F91FF9008958130910525
:1007F00059F46F5F7F4F89F48EEA91E06BE04CE033
:1008000020E00E94D2030895892B39F46F5F7F4F57
:1008100021F48EEA91E00E94B002089580E090E019
:100820006FEF7FEF0E94F603089581E090E06FEF95
:100830007FEF0E94F60308958EEA91E060E071E098
:100840000E946F0768EE73E080E090E00E94DC0495
:100850000895CF93DF938DE492E040E051EE60E0A5
:1008600070E00E94EA058091530190915401892B18
:10087000D1F18EEA91E040E052EC61E070E00E943C
:10088000BE01C0E0D0E08EEA91E06DE071E00E9430
:100890006F072196CA30D105B1F74091320150E07F
:1008A00060E070E08EEA91E020E030E00E945808BD
:1008B0004091330150E060E070E08EEA91E020E08A
:1008C00030E00E945808E0915201F0E0E45BFE4FF6
:1008D0008EEA91E060810E9467076CE271E080E03F
:1008E00090E00E94DC04E0915201F0E0EE0FFF1F67
:1008F000EE0FFF1FEC5CFE4F4081518162817381DE
:100900008EEA91E00E94BE018EEA91E06CE271E015
:100910000E948E07DF91CF9108950E9406050E94E4
:1009200029040E941C04FDCF1F920F920FB60F9254
:1009300011242F933F938F939F93AF93BF938091F5
:10094000C4019091C501A091C601B091C701309139
:10095000C8010196A11DB11D232F2D5F2D3720F059
:100960002D570196A11DB11D2093C8018093C4018C
:100970009093C501A093C601B093C7018091C001B7
:100980009091C101A091C201B091C3010196A11D36
:10099000B11D8093C0019093C101A093C201B09397
:1009A000C301BF91AF919F918F913F912F910F9074
:1009B0000FBE0F901F901895EF92FF920F931F9309
:1009C0007B018C018FB7F8944091C4015091C5010F
:1009D0006091C6017091C7018FBF2FB7F8948091C5
:1009E000C4019091C501A091C601B091C7012FBF6C
:1009F000841B950BA60BB70BE816F9060A071B0715
:100A000060F71F910F91FF90EF900895789484B54F
:100A1000826084BD84B5816084BD85B5826085BDFA
:100A200085B5816085BDEEE6F0E0808181608083E0
:100A3000E1E8F0E080818260808380818160808352
:100A4000E0E8F0E0808181608083E1EBF0E080818C
:100A500084608083E0EBF0E0808181608083EAE75E
:100A6000F0E08081846080838081826080838081E7
:100A7000816080838081806880831092C1000895A6
:100A8000282F30E0C901865D9E4FFC0194912A5EBB
:100A90003E4FF9018491882391F0E82FF0E0EE0FAA
:100AA000FF1FE850FF4FA591B491662329F48C9164
:100AB000909589238C9308958C91892B8C9308951C
:100AC000482F50E0CA01825C9E4FFC012491CA016C
:100AD000865D9E4FFC0194914A5E5E4FFA0134910F
:100AE0003323D1F1222331F1233021F4809180008E
:100AF0008F7705C0243031F4809180008F7D809302
:100B0000800018C0213019F484B58F7704C02230DA
:100B100021F484B58F7D84BD0DC0263021F48091F1
:100B2000B0008F7705C0273029F48091B0008F7D09
:100B30008093B000E32FF0E0EE0FFF1FEE5FFE4F5B
:100B4000A591B491662329F48C91909589238C9377
:100B500008958C91892B8C9308951F920F920FB654
:100B60000F9211242F933F934F935F936F937F9333
:100B70008F939F93AF93BF93EF93FF934091C600E2
:100B8000E0914902F0914A02CF01019660E870E0DD
:100B90000E948C089C0180914B0290914C02281776
:100BA000390739F0E753FE4F408330934A022093D0
:100BB0004902FF91EF91BF91AF919F918F917F91EA
:100BC0006F915F914F913F912F910F900FBE0F90BA
:100BD0001F9018955F926F927F928F929F92AF9223
:100BE000BF92CF92DF92EF92FF920F931F93CF931A
:100BF000DF93EC013A014B01413482E458078FE066
:100C0000680780E078070CF07FC060E874E88EE148
:100C100090E0A40193010E94C1082150304040405F
:100C20005040CA01B90122E030E040E050E00E94AB
:100C3000C10859016A01A60195012095309540959A
:100C4000509594E0220F331F441F551F9A95D1F7FA
:100C500060E074E284EF90E00E94C108CA01B9012B
:100C60002FEF30E040E050E00E946D08A4019301B6
:100C70000E94C108C90181509F4F181619061CF423
:100C8000522E5A9403C055245394521A60E079E0CE
:100C90008DE390E0A40193010E94C10821503040EF
:100CA00040405040CA01B90122E030E040E050E04D
:100CB0000E94C108209530954095509583E0220F01
:100CC000331F441F551F8A95D1F760E074E284EF0B
:100CD00090E00E94C108CA01B9012FEF30E040E066
:100CE00050E00E946D08A40193010E94C108C9014F
:100CF00081509F4F181619061CF4822F815002C094
:100D000081E0821B851500F5E885F98581E090E09A
:100D10000A8802C0880F991F0A94E2F7808360E076
:100D200079E08DE390E0A40193010E94C108215075
:100D3000304040405040CA01B90122E030E040E07C
:100D400050E00E94C10804C0E885F9851082950131
:100D5000EC81FD813083EE81FF812083EA85FB8574
:100D6000208141E050E0CA010E8402C0880F991F23
:100D70000A94E2F7282B2083EA85FB852081CA01AB
:100D80000F8402C0880F991F0A94E2F7282B208352
:100D9000EA85FB858081088802C0440F551F0A94AC
:100DA000E2F7842B8083DF91CF911F910F91FF9009
:100DB000EF90DF90CF90BF90AF909F908F907F90FB
:100DC0006F905F900895FC01A085B18521898C9179
:100DD00090E0022E02C0959587950A94E2F780FF75
:100DE000F6CF0484F585E02D6083089583E691E0D5
:100DF00090934E0280934D0289EC91E090935002C3
:100E000080934F0285EC90E09093520280935102C0
:100E100084EC90E0909354028093530280EC90E035
:100E2000909356028093550281EC90E09093580283
:100E30008093570286EC90E090935A028093590277
:100E400084E080935B0283E080935C0287E0809380
:100E50005D0285E080935E0281E080935F020895E9
:100E60000F931F93CF93DF938C01EB0109C0219661
:100E7000D801ED91FC910190F081E02DC801099518
:100E800068816623A1F7DF91CF911F910F9108959B
:100E9000EF92FF920F931F93CF93DF938C017B010F
:100EA000EA010CC0D7016D917D01D801ED91FC9153
:100EB0000190F081E02DC80109952197209791F7C5
:100EC000DF91CF911F910F91FF90EF900895DC017A
:100ED000ED91FC910190F081E02D09950895DC01E0
:100EE000ED91FC910280F381E02D099508950F9317
:100EF0001F938C01DC01ED91FC910190F081E02DBC
:100F00006DE00995D801ED91FC910190F081E02D03
:100F1000C8016AE009951F910F9108950F931F93DF
:100F20008C010E946F07C8010E9477071F910F91E3
:100F300008952F923F924F925F926F927F928F927D
:100F40009F92AF92BF92CF92DF92EF92FF920F9358
:100F50001F93DF93CF93CDB7DEB7A0970FB6F8946A
:100F6000DEBF0FBECDBF1C016A017B0141155105DB
:100F70006105710549F4DC01ED91FC910190F0816E
:100F8000E02D60E3099554C0882499245401422E31
:100F900055246624772401E010E00C0F1D1F080D76
:100FA000191DC701B601A30192010E949F08F80113
:100FB00060830894811C911CA11CB11CC701B6015F
:100FC000A30192010E949F08C901DA016C017D0111
:100FD000C114D104E104F104F1F681E0E82EF12C12
:100FE000EC0EFD1EE80CF91C3E010894611C711CFE
:100FF000D501C4010197A109B1096C01C818D9082C
:1010000014C0F601EE0DFF1D60816A3010F4605DC2
:1010100001C0695CD101ED91FC910190F081E02D5E
:10102000C10109950894E108F1086E147F0449F79D
:10103000A0960FB6F894DEBF0FBECDBFCF91DF9163
:101040001F910F91FF90EF90DF90CF90BF90AF90E6
:101050009F908F907F906F905F904F903F902F90D8
:101060000895EF92FF920F931F93CF93DF93EC01BC
:101070007A018B0177FF0FC0E881F9810190F0813F
:10108000E02D6DE2099510950095F094E094E11C37
:10109000F11C011D111DCE01B801A7012AE00E941B
:1010A0009907DF91CF911F910F91FF90EF900895D5
:1010B000DC012115310541F4ED91FC910190F081A5
:1010C000E02D642F099508952A30310519F40E9406
:1010D000310808950E9499070895629FD001739F77
:1010E000F001829FE00DF11D649FE00DF11D929FC4
:1010F000F00D839FF00D749FF00D659FF00D992703
:10110000729FB00DE11DF91F639FB00DE11DF91F26
:10111000BD01CF011124089597FB092E07260AD09F
:1011200077FD04D049D006D000201AF4709561955F
:101130007F4F0895F6F7909581959F4F0895A1E20E
:101140001A2EAA1BBB1BFD010DC0AA1FBB1FEE1F41
:10115000FF1FA217B307E407F50720F0A21BB30B8C
:10116000E40BF50B661F771F881F991F1A9469F708
:1011700060957095809590959B01AC01BD01CF0164
:10118000089597FB092E05260ED057FD04D0D7DF12
:101190000AD0001C38F450954095309521953F4F6A
:1011A0004F4F5F4F0895F6F7909580957095619534
:1011B0007F4F8F4F9F4F0895AA1BBB1B51E107C064
:1011C000AA1FBB1FA617B70710F0A61BB70B881FD7
:1011D000991F5A95A9F780959095BC01CD01089566
:1011E000EE0FFF1F0590F491E02D099411E0C6E584
:1011F000D1E004C0FE010E94F2082296C835D10752
:06120000C9F7F894FFCFCE
:1012060048656C6C6F20576F726C64210048656C82
:101216006C6F21204368616E67696E672062617535
:10122600642072617465206E6F772E00446F6E6560
:1012360021007C07C012000080250000004B000042
:101246000096000000E1000000C201003132333494
:10125600353605010000000000B9023007480700D6
:0A126600000000E30630074807000F
:00000001FF
