:100000000C9435000C945D000C945D000C945D0024
:100010000C945D000C945D000C945D000C945D00EC
:100020000C945D000C945D000C945D000C945D00DC
:100030000C945D000C945D000C945D000C945D00CC
:100040000C94AF000C945D000C945B010C945D006B
:100050000C945D000C945D000C945D000C945D00AC
:100060000C945D000C945D00A40211241FBECFEF20
:10007000D8E0DEBFCDBF11E0A0E0B1E0E0E5F7E001
:1000800002C005900D92AC33B107D9F711E0ACE393
:10009000B1E001C01D92AC3DB107E1F710E0CAE646
:1000A000D0E004C02297FE010E94A203C836D10707
:1000B000C9F70E94AA000C94A6030C9400000F93A9
:1000C0001F93DF93CF9300D00F92CDB7DEB709EC2B
:1000D00011E0C80140E052EC61E070E00E9498013C
:1000E000C801609122010E949102C8016091230120
:1000F0000E949102E0913101F0E0EE0FFF1FEB5DF5
:10010000FE4F60817181C8010E94DE02C80160E07B
:1001100071E00E94150368EC70E080E090E00E94BE
:10012000F700FE01319683E0DF011D928A95E9F721
:10013000809122018983809124018A83C801BF01B3
:100140000E94DE020F900F900F90CF91DF911F91D0
:100150000F9108950E9421010E945F00FFCF1F921E
:100160000F920FB60F9211242F933F938F939F936B
:10017000AF93BF938091400190914101A0914201C2
:10018000B0914301309144010196A11DB11D232F6F
:100190002D5F2D3720F02D570196A11DB11D209305
:1001A00044018093400190934101A0934201B09398
:1001B000430180913C0190913D01A0913E01B0919D
:1001C0003F010196A11DB11D80933C0190933D011B
:1001D000A0933E01B0933F01BF91AF919F918F914A
:1001E0003F912F910F900FBE0F901F901895EF9297
:1001F000FF920F931F937B018C018FB7F89440916E
:1002000040015091410160914201709143018FBFC3
:100210002FB7F8948091400190914101A091420143
:10022000B09143012FBF841B950BA60BB70BE816AB
:10023000F9060A071B0760F71F910F91FF90EF90D7
:100240000895789484B5826084BD84B5816084BD4E
:1002500085B5826085BD85B5816085BDEEE6F0E03F
:10026000808181608083E1E8F0E08081826080832A
:10027000808181608083E0E8F0E08081816080831C
:10028000E1EBF0E0808184608083E0EBF0E080814E
:1002900081608083EAE7F0E08081846080838081F0
:1002A0008260808380818160808380818068808398
:1002B0001092C10008951F920F920FB60F92112451
:1002C0002F933F934F935F936F937F938F939F935E
:1002D000AF93BF93EF93FF934091C600E091C501A8
:1002E000F091C601CF01019660E870E00E943C03E6
:1002F0009C018091C7019091C8012817390739F0F6
:10030000EB5BFE4F40833093C6012093C501FF9104
:10031000EF91BF91AF919F918F917F916F915F917D
:100320004F913F912F910F900FBE0F901F901895F6
:100330005F926F927F928F929F92AF92BF92CF9275
:10034000DF92EF92FF920F931F93CF93DF93EC0115
:100350003A014B01413482E458078FE0680780E09E
:1003600078070CF07FC060E874E88EE190E0A401AB
:1003700093010E9471032150304040405040CA0117
:10038000B90122E030E040E050E00E9471035901E1
:100390006A01A6019501209530954095509594E00D
:1003A000220F331F441F551F9A95D1F760E074E266
:1003B00084EF90E00E947103CA01B9012FEF30E091
:1003C00040E050E00E941D03A40193010E947103CC
:1003D000C90181509F4F181619061CF4522E5A94C9
:1003E00003C055245394521A60E079E08DE390E005
:1003F000A40193010E9471032150304040405040BD
:10040000CA01B90122E030E040E050E00E947103EF
:10041000209530954095509583E0220F331F441F5F
:10042000551F8A95D1F760E074E284EF90E00E9456
:100430007103CA01B9012FEF30E040E050E00E94A3
:100440001D03A40193010E947103C90181509F4FB4
:10045000181619061CF4822F815002C081E0821BFD
:10046000851500F5E885F98581E090E00A8802C0ED
:10047000880F991F0A94E2F7808360E079E08DE3AA
:1004800090E0A40193010E9471032150304040404C
:100490005040CA01B90122E030E040E050E00E9443
:1004A000710304C0E885F98510829501EC81FD8116
:1004B0003083EE81FF812083EA85FB85208141E046
:1004C00050E0CA010E8402C0880F991F0A94E2F717
:1004D000282B2083EA85FB852081CA010F8402C076
:1004E000880F991F0A94E2F7282B2083EA85FB8561
:1004F0008081088802C0440F551F0A94E2F7842BBC
:100500008083DF91CF911F910F91FF90EF90DF904B
:10051000CF90BF90AF909F908F907F906F905F90A3
:100520000895FC01A085B18521898C9190E0022E6F
:1005300002C0959587950A94E2F780FFF6CF048470
:10054000F585E02D6083089586E391E09093CA01DC
:100550008093C90185E491E09093CC018093CB0115
:1005600085EC90E09093CE018093CD0184EC90E0F7
:100570009093D0018093CF0180EC90E09093D201D2
:100580008093D10181EC90E09093D4018093D301CA
:1005900086EC90E09093D6018093D50184E080931F
:1005A000D70183E08093D80187E08093D90185E06B
:1005B0008093DA0181E08093DB0108950F931F930C
:1005C000CF93DF938C01EB0109C02196D801ED9107
:1005D000FC910190F081E02DC801099568816623A6
:1005E000A1F7DF91CF911F910F910895EF92FF92A4
:1005F0000F931F93CF93DF938C017B01EA010CC013
:10060000D7016D917D01D801ED91FC910190F081B0
:10061000E02DC80109952197209791F7DF91CF919F
:100620001F910F91FF90EF900895DC01ED91FC91E7
:100630000280F381E02D09950895629FD001739F98
:10064000F001829FE00DF11D649FE00DF11D929F6E
:10065000F00D839FF00D749FF00D659FF00D9927AD
:10066000729FB00DE11DF91F639FB00DE11DF91FD1
:10067000BD01CF011124089597FB092E07260AD04A
:1006800077FD04D049D006D000201AF4709561950A
:100690007F4F0895F6F7909581959F4F0895A1E2B9
:1006A0001A2EAA1BBB1BFD010DC0AA1FBB1FEE1FEC
:1006B000FF1FA217B307E407F50720F0A21BB30B37
:1006C000E40BF50B661F771F881F991F1A9469F7B3
:1006D00060957095809590959B01AC01BD01CF010F
:1006E000089597FB092E05260ED057FD04D0D7DFBD
:1006F0000AD0001C38F450954095309521953F4F15
:100700004F4F5F4F0895F6F79095809570956195DE
:100710007F4F8F4F9F4F0895AA1BBB1B51E107C00E
:10072000AA1FBB1FA617B70710F0A61BB70B881F81
:10073000991F5A95A9F780959095BC01CD01089510
:10074000EE0FFF1F0590F491E02D0994F894FFCF70
:1007500053656E64696E672044656D6F20436F6DED
:100760006D616E642E0031003200330034003500BC
:1007700036007C0704160118011A011C011E012015
:0C0780000106000000009102DE02F602FB
:00000001FF
